{
  "_format": "hh-sol-artifact-1",
  "contractName": "SpaceDefenderMinimal",
  "sourceName": "contracts/SpaceDefenderMinimal.sol",
  "abi": [
    {
      "inputs": [
        {
          "internalType": "address",
          "name": "_ssdTokenAddress",
          "type": "address"
        }
      ],
      "stateMutability": "nonpayable",
      "type": "constructor"
    },
    {
      "anonymous": false,
      "inputs": [
        {
          "indexed": true,
          "internalType": "address",
          "name": "player",
          "type": "address"
        },
        {
          "indexed": false,
          "internalType": "uint256",
          "name": "aliensKilled",
          "type": "uint256"
        },
        {
          "indexed": false,
          "internalType": "uint256",
          "name": "ssdAmount",
          "type": "uint256"
        }
      ],
      "name": "SSDRewardClaimed",
      "type": "event"
    },
    {
      "anonymous": false,
      "inputs": [
        {
          "indexed": true,
          "internalType": "address",
          "name": "player",
          "type": "address"
        },
        {
          "indexed": false,
          "internalType": "uint256",
          "name": "itemId",
          "type": "uint256"
        },
        {
          "indexed": false,
          "internalType": "uint256",
          "name": "price",
          "type": "uint256"
        }
      ],
      "name": "ShopItemPurchased",
      "type": "event"
    },
    {
      "anonymous": false,
      "inputs": [
        {
          "indexed": true,
          "internalType": "address",
          "name": "player",
          "type": "address"
        },
        {
          "indexed": false,
          "internalType": "string",
          "name": "twitterHandle",
          "type": "string"
        },
        {
          "indexed": false,
          "internalType": "uint256",
          "name": "reward",
          "type": "uint256"
        }
      ],
      "name": "TwitterRewardClaimed",
      "type": "event"
    },
    {
      "inputs": [],
      "name": "SSD_PER_KILL",
      "outputs": [
        {
          "internalType": "uint256",
          "name": "",
          "type": "uint256"
        }
      ],
      "stateMutability": "view",
      "type": "function"
    },
    {
      "inputs": [],
      "name": "TWITTER_REWARD",
      "outputs": [
        {
          "internalType": "uint256",
          "name": "",
          "type": "uint256"
        }
      ],
      "stateMutability": "view",
      "type": "function"
    },
    {
      "inputs": [
        {
          "internalType": "string",
          "name": "_name",
          "type": "string"
        },
        {
          "internalType": "uint256",
          "name": "_price",
          "type": "uint256"
        },
        {
          "internalType": "uint256",
          "name": "_duration",
          "type": "uint256"
        }
      ],
      "name": "addShopItem",
      "outputs": [],
      "stateMutability": "nonpayable",
      "type": "function"
    },
    {
      "inputs": [
        {
          "internalType": "uint256",
          "name": "_itemId",
          "type": "uint256"
        }
      ],
      "name": "buyShopItem",
      "outputs": [],
      "stateMutability": "nonpayable",
      "type": "function"
    },
    {
      "inputs": [
        {
          "internalType": "address",
          "name": "player",
          "type": "address"
        },
        {
          "internalType": "uint16",
          "name": "aliensKilled",
          "type": "uint16"
        }
      ],
      "name": "claimSSDReward",
      "outputs": [],
      "stateMutability": "nonpayable",
      "type": "function"
    },
    {
      "inputs": [],
      "name": "contractActive",
      "outputs": [
        {
          "internalType": "bool",
          "name": "",
          "type": "bool"
        }
      ],
      "stateMutability": "view",
      "type": "function"
    },
    {
      "inputs": [
        {
          "internalType": "uint256",
          "name": "_amount",
          "type": "uint256"
        }
      ],
      "name": "fundContract",
      "outputs": [],
      "stateMutability": "nonpayable",
      "type": "function"
    },
    {
      "inputs": [],
      "name": "getAllShopItems",
      "outputs": [
        {
          "components": [
            {
              "internalType": "string",
              "name": "name",
              "type": "string"
            },
            {
              "internalType": "uint256",
              "name": "price",
              "type": "uint256"
            },
            {
              "internalType": "uint256",
              "name": "duration",
              "type": "uint256"
            },
            {
              "internalType": "bool",
              "name": "active",
              "type": "bool"
            }
          ],
          "internalType": "struct SpaceDefenderMinimal.ShopItem[]",
          "name": "",
          "type": "tuple[]"
        }
      ],
      "stateMutability": "view",
      "type": "function"
    },
    {
      "inputs": [],
      "name": "getContractInfo",
      "outputs": [
        {
          "internalType": "address",
          "name": "contractOwner",
          "type": "address"
        },
        {
          "internalType": "bool",
          "name": "isActive",
          "type": "bool"
        },
        {
          "internalType": "address",
          "name": "tokenAddress",
          "type": "address"
        },
        {
          "internalType": "uint256",
          "name": "contractBalance",
          "type": "uint256"
        },
        {
          "internalType": "string",
          "name": "version",
          "type": "string"
        }
      ],
      "stateMutability": "view",
      "type": "function"
    },
    {
      "inputs": [
        {
          "internalType": "address",
          "name": "_player",
          "type": "address"
        }
      ],
      "name": "getPlayerSSDStats",
      "outputs": [
        {
          "internalType": "uint256",
          "name": "earned",
          "type": "uint256"
        },
        {
          "internalType": "uint256",
          "name": "spent",
          "type": "uint256"
        },
        {
          "internalType": "uint256",
          "name": "balance",
          "type": "uint256"
        }
      ],
      "stateMutability": "view",
      "type": "function"
    },
    {
      "inputs": [
        {
          "internalType": "uint256",
          "name": "_itemId",
          "type": "uint256"
        }
      ],
      "name": "getShopItem",
      "outputs": [
        {
          "components": [
            {
              "internalType": "string",
              "name": "name",
              "type": "string"
            },
            {
              "internalType": "uint256",
              "name": "price",
              "type": "uint256"
            },
            {
              "internalType": "uint256",
              "name": "duration",
              "type": "uint256"
            },
            {
              "internalType": "bool",
              "name": "active",
              "type": "bool"
            }
          ],
          "internalType": "struct SpaceDefenderMinimal.ShopItem",
          "name": "",
          "type": "tuple"
        }
      ],
      "stateMutability": "view",
      "type": "function"
    },
    {
      "inputs": [
        {
          "internalType": "address",
          "name": "_player",
          "type": "address"
        },
        {
          "internalType": "uint256",
          "name": "_itemId",
          "type": "uint256"
        }
      ],
      "name": "hasActiveBoost",
      "outputs": [
        {
          "internalType": "bool",
          "name": "",
          "type": "bool"
        }
      ],
      "stateMutability": "view",
      "type": "function"
    },
    {
      "inputs": [
        {
          "internalType": "address",
          "name": "_player",
          "type": "address"
        }
      ],
      "name": "isTwitterVerified",
      "outputs": [
        {
          "internalType": "bool",
          "name": "",
          "type": "bool"
        }
      ],
      "stateMutability": "view",
      "type": "function"
    },
    {
      "inputs": [],
      "name": "owner",
      "outputs": [
        {
          "internalType": "address",
          "name": "",
          "type": "address"
        }
      ],
      "stateMutability": "view",
      "type": "function"
    },
    {
      "inputs": [
        {
          "internalType": "address",
          "name": "",
          "type": "address"
        },
        {
          "internalType": "uint256",
          "name": "",
          "type": "uint256"
        }
      ],
      "name": "playerBoosts",
      "outputs": [
        {
          "internalType": "uint256",
          "name": "",
          "type": "uint256"
        }
      ],
      "stateMutability": "view",
      "type": "function"
    },
    {
      "inputs": [],
      "name": "shopItemCount",
      "outputs": [
        {
          "internalType": "uint256",
          "name": "",
          "type": "uint256"
        }
      ],
      "stateMutability": "view",
      "type": "function"
    },
    {
      "inputs": [
        {
          "internalType": "uint256",
          "name": "",
          "type": "uint256"
        }
      ],
      "name": "shopItems",
      "outputs": [
        {
          "internalType": "string",
          "name": "name",
          "type": "string"
        },
        {
          "internalType": "uint256",
          "name": "price",
          "type": "uint256"
        },
        {
          "internalType": "uint256",
          "name": "duration",
          "type": "uint256"
        },
        {
          "internalType": "bool",
          "name": "active",
          "type": "bool"
        }
      ],
      "stateMutability": "view",
      "type": "function"
    },
    {
      "inputs": [
        {
          "internalType": "address",
          "name": "",
          "type": "address"
        }
      ],
      "name": "ssdEarned",
      "outputs": [
        {
          "internalType": "uint256",
          "name": "",
          "type": "uint256"
        }
      ],
      "stateMutability": "view",
      "type": "function"
    },
    {
      "inputs": [
        {
          "internalType": "address",
          "name": "",
          "type": "address"
        }
      ],
      "name": "ssdSpent",
      "outputs": [
        {
          "internalType": "uint256",
          "name": "",
          "type": "uint256"
        }
      ],
      "stateMutability": "view",
      "type": "function"
    },
    {
      "inputs": [],
      "name": "ssdToken",
      "outputs": [
        {
          "internalType": "contract IERC20",
          "name": "",
          "type": "address"
        }
      ],
      "stateMutability": "view",
      "type": "function"
    },
    {
      "inputs": [
        {
          "internalType": "uint256",
          "name": "_score",
          "type": "uint256"
        },
        {
          "internalType": "uint8",
          "name": "_level",
          "type": "uint8"
        },
        {
          "internalType": "uint16",
          "name": "_aliensKilled",
          "type": "uint16"
        }
      ],
      "name": "submitScore",
      "outputs": [
        {
          "internalType": "bool",
          "name": "success",
          "type": "bool"
        }
      ],
      "stateMutability": "nonpayable",
      "type": "function"
    },
    {
      "inputs": [],
      "name": "toggleContractActive",
      "outputs": [],
      "stateMutability": "nonpayable",
      "type": "function"
    },
    {
      "inputs": [
        {
          "internalType": "uint256",
          "name": "_itemId",
          "type": "uint256"
        }
      ],
      "name": "toggleShopItem",
      "outputs": [],
      "stateMutability": "nonpayable",
      "type": "function"
    },
    {
      "inputs": [
        {
          "internalType": "address",
          "name": "_newOwner",
          "type": "address"
        }
      ],
      "name": "transferOwnership",
      "outputs": [],
      "stateMutability": "nonpayable",
      "type": "function"
    },
    {
      "inputs": [
        {
          "internalType": "address",
          "name": "",
          "type": "address"
        }
      ],
      "name": "twitterHandles",
      "outputs": [
        {
          "internalType": "string",
          "name": "",
          "type": "string"
        }
      ],
      "stateMutability": "view",
      "type": "function"
    },
    {
      "inputs": [
        {
          "internalType": "address",
          "name": "",
          "type": "address"
        }
      ],
      "name": "twitterVerified",
      "outputs": [
        {
          "internalType": "bool",
          "name": "",
          "type": "bool"
        }
      ],
      "stateMutability": "view",
      "type": "function"
    },
    {
      "inputs": [
        {
          "internalType": "address",
          "name": "_newTokenAddress",
          "type": "address"
        }
      ],
      "name": "updateSSDToken",
      "outputs": [],
      "stateMutability": "nonpayable",
      "type": "function"
    },
    {
      "inputs": [
        {
          "internalType": "string",
          "name": "_twitterHandle",
          "type": "string"
        }
      ],
      "name": "verifyTwitter",
      "outputs": [],
      "stateMutability": "nonpayable",
      "type": "function"
    },
    {
      "inputs": [
        {
          "internalType": "uint256",
          "name": "_amount",
          "type": "uint256"
        }
      ],
      "name": "withdrawSSD",
      "outputs": [],
      "stateMutability": "nonpayable",
      "type": "function"
    }
  ],
  "bytecode": "0x60806040523480156200001157600080fd5b506040516200237138038062002371833981016040819052620000349162000413565b60088054600160a01b6001600160a81b03199091163360ff60a01b191617179055600080546001600160a01b0319166001600160a01b0383161790556200007a62000081565b50620005b6565b6040805160c0810182526013608082019081527f32782053636f7265204d756c7469706c6965720000000000000000000000000060a0830152815267d02ab486cedc0000602080830191909152610708928201929092526001606082015260008052600390915280517f3617319a054d772f909f7c479a2cebe5066e836a939412e32403c99029b92eff9081906200011a9082620004ea565b5060208281015160018381019190915560408085015160028501556060948501516003948501805460ff1916911515919091179055805160c081018252600a60808201908152695261706964204669726560b01b60a08301528152678ac7230489e8000081850152610e10918101919091529384018190526000525280517fa15bc60c955c405d20d9149c709e2460f1c2d9a497496a7f46004d1772c3054c908190620001c89082620004ea565b506020828101516001838101919091556040808501516002808601919091556060958601516003958601805460ff1916911515919091179055815160c081018352600d608082019081526c115b995c99de4814da1a595b19609a1b60a0830152815267a688906bd8b0000081860152610a8c92810192909252948101919091526000939093525280517fc3a24b0501bd2c13a7e57f2db4369ec4c223447539fc0724a9d55ac4a06ebd4d908190620002819082620004ea565b5060208281015160018381019190915560408085015160028501556060948501516003948501805460ff1916911515919091179055805160c081018252600a6080820190815269135d5b1d1a4b54da1bdd60b21b60a08301528152676f05b59d3b20000081850152610708918101919091529384015260008290525280517fcbc4e5fb02c3d1de23a9f1e014b4d2ee5aeaea9505df5e855c9210bf472495af9081906200032f9082620004ea565b5060208281015160018381019190915560408085015160028501556060948501516003948501805460ff1916911515919091179055805160c081018252600a60808201908152694578747261204c69666560b01b60a0830152815268015af1d78b58c4000081850152600091810182905294850191909152600490525280517f83ec6a1f0257b830b5e016457c9cf1435391bf56cc98f369a58a54fe93772465908190620003de9082620004ea565b5060208201516001820155604082015160028201556060909101516003909101805460ff191691151591909117905560058055565b6000602082840312156200042657600080fd5b81516001600160a01b03811681146200043e57600080fd5b9392505050565b634e487b7160e01b600052604160045260246000fd5b600181811c908216806200047057607f821691505b6020821081036200049157634e487b7160e01b600052602260045260246000fd5b50919050565b601f821115620004e557600081815260208120601f850160051c81016020861015620004c05750805b601f850160051c820191505b81811015620004e157828155600101620004cc565b5050505b505050565b81516001600160401b0381111562000506576200050662000445565b6200051e816200051784546200045b565b8462000497565b602080601f8311600181146200055657600084156200053d5750858301515b600019600386901b1c1916600185901b178555620004e1565b600085815260208120601f198616915b82811015620005875788860151825594840194600190910190840162000566565b5085821015620005a65787850151600019600388901b60f8161c191681555b5050505050600190811b01905550565b611dab80620005c66000396000f3fe608060405234801561001057600080fd5b50600436106101cf5760003560e01c8063790b3228116101045780639e123201116100a2578063ccf1b68c11610071578063ccf1b68c1461047a578063e289fcb61461048d578063e4649eaf146104a1578063f2fde38b146104b457600080fd5b80639e123201146103ff5780639e8a4dd31461042d578063a59b33d814610459578063c3bbe5fc1461046c57600080fd5b80638cc5fa04116100de5780638cc5fa04146103bb5780638da5cb5b146103c45780639b2e0e98146103d75780639cb1e729146103ea57600080fd5b8063790b3228146103575780637cc1f867146103775780638b8c21d71461039057600080fd5b80633fae35081161017157806366c096681161014b57806366c09668146102e15780636b4247831461030457806372af7ea21461031757806376302a571461033757600080fd5b80633fae35081461028e5780635ca9e380146102a157806361d8b34d146102c457600080fd5b80631859c9f7116101ad5780631859c9f71461021a578063188891091461022d5780633519a2f8146102585780633aa7cd3d1461026b57600080fd5b806301650e74146101d45780631385d24c146101e957806313a5cede146101f1575b600080fd5b6101e76101e236600461170e565b6104c7565b005b6101e7610710565b6102046101ff366004611743565b61075b565b60405161021191906117ab565b60405180910390f35b6101e76102283660046117d0565b6107f5565b600054610240906001600160a01b031681565b6040516001600160a01b039091168152602001610211565b6101e761026636600461170e565b6109da565b61027e610279366004611803565b610abf565b6040519015158152602001610211565b6101e761029c3660046118ea565b610d12565b6102b46102af36600461170e565b610f3a565b6040516102119493929190611927565b6102d3670de0b6b3a764000081565b604051908152602001610211565b61027e6102ef366004611743565b60066020526000908152604090205460ff1681565b6101e761031236600461170e565b610fef565b61032a61032536600461170e565b61105e565b6040516102119190611999565b6102d3610345366004611743565b60026020526000908152604090205481565b6102d3610365366004611743565b60016020526000908152604090205481565b61037f611180565b6040516102119594939291906119ac565b6102d361039e3660046119f2565b600460209081526000928352604080842090915290825290205481565b6102d360055481565b600854610240906001600160a01b031681565b6101e76103e536600461170e565b611242565b6103f2611325565b6040516102119190611a1c565b61041261040d366004611743565b6114b8565b60408051938452602084019290925290820152606001610211565b61027e61043b366004611743565b6001600160a01b031660009081526006602052604090205460ff1690565b6101e7610467366004611743565b61154d565b6102d3662386f26fc1000081565b61027e6104883660046119f2565b611599565b60085461027e90600160a01b900460ff1681565b6101e76104af366004611a7e565b6115c6565b6101e76104c2366004611743565b61167a565b600854600160a01b900460ff166104f95760405162461bcd60e51b81526004016104f090611acc565b60405180910390fd5b600554811061051a5760405162461bcd60e51b81526004016104f090611afc565b6000818152600360208190526040909120015460ff166105715760405162461bcd60e51b81526020600482015260126024820152714974656d206e6f7420617661696c61626c6560701b60448201526064016104f0565b60008181526003602052604080822060010154915490516323b872dd60e01b8152336004820152306024820152604481018390526001600160a01b03909116906323b872dd906064016020604051808303816000875af11580156105d9573d6000803e3d6000fd5b505050506040513d601f19601f820116820180604052508101906105fd9190611b25565b61063a5760405162461bcd60e51b815260206004820152600e60248201526d14185e5b595b9d0819985a5b195960921b60448201526064016104f0565b3360009081526002602052604081208054839290610659908490611b5d565b9091555050600082815260036020526040902060020154156106b1576000828152600360205260409020600201546106919042611b5d565b3360009081526004602090815260408083208684529091529020556106d1565b336000908152600460209081526040808320858452909152902060001990555b604080518381526020810183905233917fb6bcee922866611224e5a28ad1c1a9e8fcf086bd97a51c61a05396a26daa5e63910160405180910390a25050565b6008546001600160a01b0316331461073a5760405162461bcd60e51b81526004016104f090611b70565b6008805460ff60a01b198116600160a01b9182900460ff1615909102179055565b6007602052600090815260409020805461077490611bb1565b80601f01602080910402602001604051908101604052809291908181526020018280546107a090611bb1565b80156107ed5780601f106107c2576101008083540402835291602001916107ed565b820191906000526020600020905b8154815290600101906020018083116107d057829003601f168201915b505050505081565b6008546001600160a01b0316331461081f5760405162461bcd60e51b81526004016104f090611b70565b600854600160a01b900460ff166108485760405162461bcd60e51b81526004016104f090611acc565b60008161ffff161161088f5760405162461bcd60e51b815260206004820152601060248201526f139bc8185b1a595b9cc81ada5b1b195960821b60448201526064016104f0565b60006108a6662386f26fc1000061ffff8416611be5565b60005460405163a9059cbb60e01b81526001600160a01b0386811660048301526024820184905292935091169063a9059cbb906044016020604051808303816000875af11580156108fb573d6000803e3d6000fd5b505050506040513d601f19601f8201168201806040525081019061091f9190611b25565b6109605760405162461bcd60e51b815260206004820152601260248201527114d1081d1c985b9cd9995c8819985a5b195960721b60448201526064016104f0565b6001600160a01b03831660009081526001602052604081208054839290610988908490611b5d565b90915550506040805161ffff84168152602081018390526001600160a01b038516917f9681069aecaef768ef64a39ab7ce961efa7122bbc3f846152b64788d662ee158910160405180910390a2505050565b6008546001600160a01b03163314610a045760405162461bcd60e51b81526004016104f090611b70565b6000546040516323b872dd60e01b8152336004820152306024820152604481018390526001600160a01b03909116906323b872dd906064016020604051808303816000875af1158015610a5b573d6000803e3d6000fd5b505050506040513d601f19601f82011682018060405250810190610a7f9190611b25565b610abc5760405162461bcd60e51b815260206004820152600e60248201526d119d5b991a5b99c819985a5b195960921b60448201526064016104f0565b50565b600854600090600160a01b900460ff16610aeb5760405162461bcd60e51b81526004016104f090611acc565b60008411610b3b5760405162461bcd60e51b815260206004820152601c60248201527f53636f7265206d7573742062652067726561746572207468616e20300000000060448201526064016104f0565b60018360ff1610158015610b535750600a8360ff1611155b610b8f5760405162461bcd60e51b815260206004820152600d60248201526c125b9d985b1a59081b195d995b609a1b60448201526064016104f0565b60008261ffff1611610bd65760405162461bcd60e51b815260206004820152601060248201526f139bc8185b1a595b9cc81ada5b1b195960821b60448201526064016104f0565b6000610bed662386f26fc1000061ffff8516611be5565b60005460405163a9059cbb60e01b8152336004820152602481018390529192506001600160a01b03169063a9059cbb906044016020604051808303816000875af1158015610c3f573d6000803e3d6000fd5b505050506040513d601f19601f82011682018060405250810190610c639190611b25565b610ca45760405162461bcd60e51b815260206004820152601260248201527114d1081d1c985b9cd9995c8819985a5b195960721b60448201526064016104f0565b3360009081526001602052604081208054839290610cc3908490611b5d565b90915550506040805161ffff851681526020810183905233917f9681069aecaef768ef64a39ab7ce961efa7122bbc3f846152b64788d662ee158910160405180910390a2506001949350505050565b600854600160a01b900460ff16610d3b5760405162461bcd60e51b81526004016104f090611acc565b3360009081526006602052604090205460ff1615610d8e5760405162461bcd60e51b815260206004820152601060248201526f105b1c9958591e481d995c9a599a595960821b60448201526064016104f0565b6000815111610dd05760405162461bcd60e51b815260206004820152600e60248201526d496e76616c69642068616e646c6560901b60448201526064016104f0565b336000908152600660209081526040808320805460ff1916600117905560079091529020610dfe8282611c4b565b5060005460405163a9059cbb60e01b8152336004820152670de0b6b3a764000060248201526001600160a01b039091169063a9059cbb906044016020604051808303816000875af1158015610e57573d6000803e3d6000fd5b505050506040513d601f19601f82011682018060405250810190610e7b9190611b25565b610ec75760405162461bcd60e51b815260206004820152601e60248201527f5477697474657220726577617264207472616e73666572206661696c6564000060448201526064016104f0565b3360009081526001602052604081208054670de0b6b3a76400009290610eee908490611b5d565b909155505060405133907f4cc3d910a2b2d90830fa03667c7ee5a1203b5df11eaf97ced89229f2fb8ab7e190610f2f908490670de0b6b3a764000090611d0b565b60405180910390a250565b600360205260009081526040902080548190610f5590611bb1565b80601f0160208091040260200160405190810160405280929190818152602001828054610f8190611bb1565b8015610fce5780601f10610fa357610100808354040283529160200191610fce565b820191906000526020600020905b815481529060010190602001808311610fb157829003601f168201915b50505050600183015460028401546003909401549293909290915060ff1684565b6008546001600160a01b031633146110195760405162461bcd60e51b81526004016104f090611b70565b600554811061103a5760405162461bcd60e51b81526004016104f090611afc565b600090815260036020819052604090912001805460ff19811660ff90911615179055565b61108b60405180608001604052806060815260200160008152602001600081526020016000151581525090565b60055482106110ac5760405162461bcd60e51b81526004016104f090611afc565b600082815260036020526040908190208151608081019092528054829082906110d490611bb1565b80601f016020809104026020016040519081016040528092919081815260200182805461110090611bb1565b801561114d5780601f106111225761010080835404028352916020019161114d565b820191906000526020600020905b81548152906001019060200180831161113057829003601f168201915b5050509183525050600182015460208201526002820154604082015260039091015460ff16151560609091015292915050565b600854600080546040516370a0823160e01b815230600482015291928392839283926060926001600160a01b0380831693600160a01b90930460ff1692169081906370a0823190602401602060405180830381865afa1580156111e7573d6000803e3d6000fd5b505050506040513d601f19601f8201168201806040525081019061120b9190611d2d565b6040518060400160405280600d81526020016c0c8b8c0b8c0b5b5a5b9a5b585b609a1b815250945094509450945094509091929394565b6008546001600160a01b0316331461126c5760405162461bcd60e51b81526004016104f090611b70565b60005460085460405163a9059cbb60e01b81526001600160a01b0391821660048201526024810184905291169063a9059cbb906044016020604051808303816000875af11580156112c1573d6000803e3d6000fd5b505050506040513d601f19601f820116820180604052508101906112e59190611b25565b610abc5760405162461bcd60e51b815260206004820152601160248201527015da5d1a191c985dd85b0819985a5b1959607a1b60448201526064016104f0565b6060600060055467ffffffffffffffff81111561134457611344611847565b6040519080825280602002602001820160405280156113a257816020015b61138f60405180608001604052806060815260200160008152602001600081526020016000151581525090565b8152602001906001900390816113625790505b50905060005b6005548110156114b257600081815260036020526040908190208151608081019092528054829082906113da90611bb1565b80601f016020809104026020016040519081016040528092919081815260200182805461140690611bb1565b80156114535780601f1061142857610100808354040283529160200191611453565b820191906000526020600020905b81548152906001019060200180831161143657829003601f168201915b5050509183525050600182015460208201526002820154604082015260039091015460ff161515606090910152825183908390811061149457611494611d46565b602002602001018190525080806114aa90611d5c565b9150506113a8565b50919050565b6001600160a01b03818116600081815260016020908152604080832054600290925280832054835491516370a0823160e01b81526004810195909552919491939116906370a0823190602401602060405180830381865afa158015611521573d6000803e3d6000fd5b505050506040513d601f19601f820116820180604052508101906115459190611d2d565b929491935050565b6008546001600160a01b031633146115775760405162461bcd60e51b81526004016104f090611b70565b600080546001600160a01b0319166001600160a01b0392909216919091179055565b6001600160a01b038216600090815260046020908152604080832084845290915290205442105b92915050565b6008546001600160a01b031633146115f05760405162461bcd60e51b81526004016104f090611b70565b604080516080810182528481526020808201859052818301849052600160608301526005546000908152600390915291909120815181906116319082611c4b565b5060208201516001820155604082015160028201556060909101516003909101805460ff19169115159190911790556005805490600061167083611d5c565b9190505550505050565b6008546001600160a01b031633146116a45760405162461bcd60e51b81526004016104f090611b70565b6001600160a01b0381166116ec5760405162461bcd60e51b815260206004820152600f60248201526e496e76616c6964206164647265737360881b60448201526064016104f0565b600880546001600160a01b0319166001600160a01b0392909216919091179055565b60006020828403121561172057600080fd5b5035919050565b80356001600160a01b038116811461173e57600080fd5b919050565b60006020828403121561175557600080fd5b61175e82611727565b9392505050565b6000815180845260005b8181101561178b5760208185018101518683018201520161176f565b506000602082860101526020601f19601f83011685010191505092915050565b60208152600061175e6020830184611765565b803561ffff8116811461173e57600080fd5b600080604083850312156117e357600080fd5b6117ec83611727565b91506117fa602084016117be565b90509250929050565b60008060006060848603121561181857600080fd5b83359250602084013560ff8116811461183057600080fd5b915061183e604085016117be565b90509250925092565b634e487b7160e01b600052604160045260246000fd5b600082601f83011261186e57600080fd5b813567ffffffffffffffff8082111561188957611889611847565b604051601f8301601f19908116603f011681019082821181831017156118b1576118b1611847565b816040528381528660208588010111156118ca57600080fd5b836020870160208301376000602085830101528094505050505092915050565b6000602082840312156118fc57600080fd5b813567ffffffffffffffff81111561191357600080fd5b61191f8482850161185d565b949350505050565b60808152600061193a6080830187611765565b60208301959095525060408101929092521515606090910152919050565b600081516080845261196d6080850182611765565b905060208301516020850152604083015160408501526060830151151560608501528091505092915050565b60208152600061175e6020830184611958565b6001600160a01b0386811682528515156020830152841660408201526060810183905260a0608082018190526000906119e790830184611765565b979650505050505050565b60008060408385031215611a0557600080fd5b611a0e83611727565b946020939093013593505050565b6000602080830181845280855180835260408601915060408160051b870101925083870160005b82811015611a7157603f19888603018452611a5f858351611958565b94509285019290850190600101611a43565b5092979650505050505050565b600080600060608486031215611a9357600080fd5b833567ffffffffffffffff811115611aaa57600080fd5b611ab68682870161185d565b9660208601359650604090950135949350505050565b602080825260169082015275436f6e7472616374206973206e6f742061637469766560501b604082015260600190565b6020808252600f908201526e125b9d985b1a59081a5d195b481251608a1b604082015260600190565b600060208284031215611b3757600080fd5b8151801515811461175e57600080fd5b634e487b7160e01b600052601160045260246000fd5b808201808211156115c0576115c0611b47565b60208082526021908201527f4f6e6c79206f776e65722063616e2063616c6c20746869732066756e6374696f6040820152603760f91b606082015260800190565b600181811c90821680611bc557607f821691505b6020821081036114b257634e487b7160e01b600052602260045260246000fd5b80820281158282048414176115c0576115c0611b47565b601f821115611c4657600081815260208120601f850160051c81016020861015611c235750805b601f850160051c820191505b81811015611c4257828155600101611c2f565b5050505b505050565b815167ffffffffffffffff811115611c6557611c65611847565b611c7981611c738454611bb1565b84611bfc565b602080601f831160018114611cae5760008415611c965750858301515b600019600386901b1c1916600185901b178555611c42565b600085815260208120601f198616915b82811015611cdd57888601518255948401946001909101908401611cbe565b5085821015611cfb5787850151600019600388901b60f8161c191681555b5050505050600190811b01905550565b604081526000611d1e6040830185611765565b90508260208301529392505050565b600060208284031215611d3f57600080fd5b5051919050565b634e487b7160e01b600052603260045260246000fd5b600060018201611d6e57611d6e611b47565b506001019056fea2646970667358221220308fd5e50e84ebb86dece829ef6072b36acdcc2864f8f65ba462e2e0e2472b2664736f6c63430008130033",
  "linkReferences": {},
  "deployedLinkReferences": {}
}