{"contracts/SomniaSpaceDefender.sol":{"SomniaSpaceDefender":{"abi":[{"inputs":[{"internalType":"address","name":"_ssdTokenAddress","type":"address"}],"stateMutability":"nonpayable","type":"constructor"},{"anonymous":false,"inputs":[{"indexed":true,"internalType":"address","name":"player","type":"address"},{"indexed":false,"internalType":"string","name":"achievement","type":"string"}],"name":"AchievementUnlocked","type":"event"},{"anonymous":false,"inputs":[{"indexed":true,"internalType":"address","name":"player","type":"address"},{"indexed":false,"internalType":"uint256","name":"rank","type":"uint256"}],"name":"LeaderboardUpdated","type":"event"},{"anonymous":false,"inputs":[{"indexed":true,"internalType":"address","name":"player","type":"address"},{"indexed":false,"internalType":"uint256","name":"score","type":"uint256"}],"name":"NewHighScore","type":"event"},{"anonymous":false,"inputs":[{"indexed":true,"internalType":"address","name":"player","type":"address"},{"indexed":false,"internalType":"uint256","name":"score","type":"uint256"},{"indexed":false,"internalType":"uint8","name":"level","type":"uint8"},{"indexed":false,"internalType":"uint256","name":"timestamp","type":"uint256"}],"name":"ScoreSubmitted","type":"event"},{"inputs":[],"name":"MAX_LEADERBOARD_SIZE","outputs":[{"internalType":"uint256","name":"","type":"uint256"}],"stateMutability":"view","type":"function"},{"inputs":[],"name":"SSD_PER_KILL","outputs":[{"internalType":"uint256","name":"","type":"uint256"}],"stateMutability":"view","type":"function"},{"inputs":[],"name":"SUBMISSION_COOLDOWN","outputs":[{"internalType":"uint256","name":"","type":"uint256"}],"stateMutability":"view","type":"function"},{"inputs":[],"name":"TWITTER_REWARD","outputs":[{"internalType":"uint256","name":"","type":"uint256"}],"stateMutability":"view","type":"function"},{"inputs":[],"name":"achievementCount","outputs":[{"internalType":"uint256","name":"","type":"uint256"}],"stateMutability":"view","type":"function"},{"inputs":[{"internalType":"uint256","name":"","type":"uint256"}],"name":"achievements","outputs":[{"internalType":"string","name":"name","type":"string"},{"internalType":"string","name":"description","type":"string"},{"internalType":"uint256","name":"requirement","type":"uint256"},{"internalType":"uint8","name":"achievementType","type":"uint8"},{"internalType":"bool","name":"isActive","type":"bool"}],"stateMutability":"view","type":"function"},{"inputs":[{"internalType":"uint256","name":"","type":"uint256"}],"name":"activePlayers","outputs":[{"internalType":"address","name":"","type":"address"}],"stateMutability":"view","type":"function"},{"inputs":[{"internalType":"string","name":"_name","type":"string"},{"internalType":"string","name":"_description","type":"string"},{"internalType":"uint256","name":"_requirement","type":"uint256"},{"internalType":"uint8","name":"_type","type":"uint8"}],"name":"addAchievement","outputs":[],"stateMutability":"nonpayable","type":"function"},{"inputs":[{"internalType":"string","name":"_name","type":"string"},{"internalType":"uint256","name":"_price","type":"uint256"},{"internalType":"uint256","name":"_duration","type":"uint256"}],"name":"addShopItem","outputs":[],"stateMutability":"nonpayable","type":"function"},{"inputs":[{"internalType":"uint256","name":"_itemId","type":"uint256"}],"name":"buyShopItem","outputs":[],"stateMutability":"nonpayable","type":"function"},{"inputs":[{"internalType":"uint256","name":"_achievementId","type":"uint256"}],"name":"deactivateAchievement","outputs":[],"stateMutability":"nonpayable","type":"function"},{"inputs":[],"name":"emergencyPause","outputs":[],"stateMutability":"nonpayable","type":"function"},{"inputs":[],"name":"gameActive","outputs":[{"internalType":"bool","name":"","type":"bool"}],"stateMutability":"view","type":"function"},{"inputs":[],"name":"gameStartTime","outputs":[{"internalType":"uint256","name":"","type":"uint256"}],"stateMutability":"view","type":"function"},{"inputs":[],"name":"getActivePlayers","outputs":[{"internalType":"address[]","name":"","type":"address[]"}],"stateMutability":"view","type":"function"},{"inputs":[],"name":"getAllAchievements","outputs":[{"components":[{"internalType":"string","name":"name","type":"string"},{"internalType":"string","name":"description","type":"string"},{"internalType":"uint256","name":"requirement","type":"uint256"},{"internalType":"uint8","name":"achievementType","type":"uint8"},{"internalType":"bool","name":"isActive","type":"bool"}],"internalType":"struct SomniaSpaceDefender.Achievement[]","name":"","type":"tuple[]"}],"stateMutability":"view","type":"function"},{"inputs":[],"name":"getAllShopItems","outputs":[{"components":[{"internalType":"string","name":"name","type":"string"},{"internalType":"uint256","name":"price","type":"uint256"},{"internalType":"uint256","name":"duration","type":"uint256"},{"internalType":"bool","name":"active","type":"bool"}],"internalType":"struct SomniaSpaceDefender.ShopItem[]","name":"","type":"tuple[]"}],"stateMutability":"view","type":"function"},{"inputs":[],"name":"getContractInfo","outputs":[{"internalType":"address","name":"contractOwner","type":"address"},{"internalType":"bool","name":"isGameActive","type":"bool"},{"internalType":"uint256","name":"startTime","type":"uint256"},{"internalType":"string","name":"version","type":"string"}],"stateMutability":"view","type":"function"},{"inputs":[],"name":"getGameStats","outputs":[{"internalType":"uint256","name":"totalGames","type":"uint256"},{"internalType":"uint256","name":"totalPlayers","type":"uint256"},{"internalType":"uint256","name":"leaderboardSize","type":"uint256"},{"internalType":"uint256","name":"gameAge","type":"uint256"}],"stateMutability":"view","type":"function"},{"inputs":[],"name":"getLeaderboardSize","outputs":[{"internalType":"uint256","name":"","type":"uint256"}],"stateMutability":"view","type":"function"},{"inputs":[{"internalType":"address","name":"_player","type":"address"}],"name":"getPlayerAchievements","outputs":[{"internalType":"bool[]","name":"","type":"bool[]"}],"stateMutability":"view","type":"function"},{"inputs":[{"internalType":"address","name":"_player","type":"address"}],"name":"getPlayerRank","outputs":[{"internalType":"uint256","name":"","type":"uint256"}],"stateMutability":"view","type":"function"},{"inputs":[{"internalType":"address","name":"_player","type":"address"}],"name":"getPlayerSSDStats","outputs":[{"internalType":"uint256","name":"earned","type":"uint256"},{"internalType":"uint256","name":"spent","type":"uint256"},{"internalType":"uint256","name":"balance","type":"uint256"}],"stateMutability":"view","type":"function"},{"inputs":[{"internalType":"address","name":"_player","type":"address"}],"name":"getPlayerScores","outputs":[{"components":[{"internalType":"address","name":"player","type":"address"},{"internalType":"uint256","name":"score","type":"uint256"},{"internalType":"uint8","name":"level","type":"uint8"},{"internalType":"uint256","name":"timestamp","type":"uint256"},{"internalType":"uint16","name":"aliensKilled","type":"uint16"},{"internalType":"string","name":"gameMode","type":"string"}],"internalType":"struct SomniaSpaceDefender.GameScore[]","name":"","type":"tuple[]"}],"stateMutability":"view","type":"function"},{"inputs":[{"internalType":"address","name":"_player","type":"address"}],"name":"getPlayerStats","outputs":[{"components":[{"internalType":"uint256","name":"highScore","type":"uint256"},{"internalType":"uint256","name":"totalGames","type":"uint256"},{"internalType":"uint256","name":"totalAliensKilled","type":"uint256"},{"internalType":"uint8","name":"maxLevelReached","type":"uint8"},{"internalType":"uint256","name":"totalPlayTime","type":"uint256"},{"internalType":"bool[]","name":"achievementsUnlocked","type":"bool[]"}],"internalType":"struct SomniaSpaceDefender.PlayerStats","name":"","type":"tuple"}],"stateMutability":"view","type":"function"},{"inputs":[{"internalType":"uint256","name":"_itemId","type":"uint256"}],"name":"getShopItem","outputs":[{"components":[{"internalType":"string","name":"name","type":"string"},{"internalType":"uint256","name":"price","type":"uint256"},{"internalType":"uint256","name":"duration","type":"uint256"},{"internalType":"bool","name":"active","type":"bool"}],"internalType":"struct SomniaSpaceDefender.ShopItem","name":"","type":"tuple"}],"stateMutability":"view","type":"function"},{"inputs":[{"internalType":"uint256","name":"_count","type":"uint256"}],"name":"getTopScores","outputs":[{"components":[{"internalType":"address","name":"player","type":"address"},{"internalType":"uint256","name":"score","type":"uint256"},{"internalType":"uint8","name":"level","type":"uint8"},{"internalType":"uint256","name":"timestamp","type":"uint256"},{"internalType":"uint16","name":"aliensKilled","type":"uint16"},{"internalType":"string","name":"gameMode","type":"string"}],"internalType":"struct SomniaSpaceDefender.GameScore[]","name":"","type":"tuple[]"}],"stateMutability":"view","type":"function"},{"inputs":[],"name":"getTotalAchievements","outputs":[{"internalType":"uint256","name":"","type":"uint256"}],"stateMutability":"view","type":"function"},{"inputs":[{"internalType":"uint256","name":"","type":"uint256"}],"name":"globalLeaderboard","outputs":[{"internalType":"address","name":"player","type":"address"},{"internalType":"uint256","name":"score","type":"uint256"},{"internalType":"uint8","name":"level","type":"uint8"},{"internalType":"uint256","name":"timestamp","type":"uint256"},{"internalType":"uint16","name":"aliensKilled","type":"uint16"},{"internalType":"string","name":"gameMode","type":"string"}],"stateMutability":"view","type":"function"},{"inputs":[{"internalType":"address","name":"_player","type":"address"},{"internalType":"uint256","name":"_itemId","type":"uint256"}],"name":"hasActiveBoost","outputs":[{"internalType":"bool","name":"","type":"bool"}],"stateMutability":"view","type":"function"},{"inputs":[{"internalType":"address","name":"_player","type":"address"}],"name":"isPlayerRegistered","outputs":[{"internalType":"bool","name":"","type":"bool"}],"stateMutability":"view","type":"function"},{"inputs":[{"internalType":"address","name":"_player","type":"address"}],"name":"isTwitterVerified","outputs":[{"internalType":"bool","name":"","type":"bool"}],"stateMutability":"view","type":"function"},{"inputs":[{"internalType":"address","name":"","type":"address"}],"name":"lastSubmissionTime","outputs":[{"internalType":"uint256","name":"","type":"uint256"}],"stateMutability":"view","type":"function"},{"inputs":[],"name":"owner","outputs":[{"internalType":"address","name":"","type":"address"}],"stateMutability":"view","type":"function"},{"inputs":[{"internalType":"address","name":"","type":"address"},{"internalType":"uint256","name":"","type":"uint256"}],"name":"playerBoosts","outputs":[{"internalType":"uint256","name":"","type":"uint256"}],"stateMutability":"view","type":"function"},{"inputs":[{"internalType":"address","name":"","type":"address"},{"internalType":"uint256","name":"","type":"uint256"}],"name":"playerScores","outputs":[{"internalType":"address","name":"player","type":"address"},{"internalType":"uint256","name":"score","type":"uint256"},{"internalType":"uint8","name":"level","type":"uint8"},{"internalType":"uint256","name":"timestamp","type":"uint256"},{"internalType":"uint16","name":"aliensKilled","type":"uint16"},{"internalType":"string","name":"gameMode","type":"string"}],"stateMutability":"view","type":"function"},{"inputs":[{"internalType":"address","name":"","type":"address"}],"name":"playerStats","outputs":[{"internalType":"uint256","name":"highScore","type":"uint256"},{"internalType":"uint256","name":"totalGames","type":"uint256"},{"internalType":"uint256","name":"totalAliensKilled","type":"uint256"},{"internalType":"uint8","name":"maxLevelReached","type":"uint8"},{"internalType":"uint256","name":"totalPlayTime","type":"uint256"}],"stateMutability":"view","type":"function"},{"inputs":[],"name":"shopItemCount","outputs":[{"internalType":"uint256","name":"","type":"uint256"}],"stateMutability":"view","type":"function"},{"inputs":[{"internalType":"uint256","name":"","type":"uint256"}],"name":"shopItems","outputs":[{"internalType":"string","name":"name","type":"string"},{"internalType":"uint256","name":"price","type":"uint256"},{"internalType":"uint256","name":"duration","type":"uint256"},{"internalType":"bool","name":"active","type":"bool"}],"stateMutability":"view","type":"function"},{"inputs":[{"internalType":"address","name":"","type":"address"}],"name":"ssdEarned","outputs":[{"internalType":"uint256","name":"","type":"uint256"}],"stateMutability":"view","type":"function"},{"inputs":[{"internalType":"address","name":"","type":"address"}],"name":"ssdSpent","outputs":[{"internalType":"uint256","name":"","type":"uint256"}],"stateMutability":"view","type":"function"},{"inputs":[],"name":"ssdToken","outputs":[{"internalType":"contract IERC20","name":"","type":"address"}],"stateMutability":"view","type":"function"},{"inputs":[{"internalType":"uint256","name":"_score","type":"uint256"},{"internalType":"uint8","name":"_level","type":"uint8"},{"internalType":"uint16","name":"_aliensKilled","type":"uint16"},{"internalType":"string","name":"_gameMode","type":"string"}],"name":"submitScore","outputs":[],"stateMutability":"nonpayable","type":"function"},{"inputs":[],"name":"toggleGameActive","outputs":[],"stateMutability":"nonpayable","type":"function"},{"inputs":[],"name":"totalGamesPlayed","outputs":[{"internalType":"uint256","name":"","type":"uint256"}],"stateMutability":"view","type":"function"},{"inputs":[],"name":"totalPlayersRegistered","outputs":[{"internalType":"uint256","name":"","type":"uint256"}],"stateMutability":"view","type":"function"},{"inputs":[{"internalType":"address","name":"_newOwner","type":"address"}],"name":"transferOwnership","outputs":[],"stateMutability":"nonpayable","type":"function"},{"inputs":[{"internalType":"address","name":"","type":"address"}],"name":"twitterHandles","outputs":[{"internalType":"string","name":"","type":"string"}],"stateMutability":"view","type":"function"},{"inputs":[{"internalType":"address","name":"","type":"address"}],"name":"twitterVerified","outputs":[{"internalType":"bool","name":"","type":"bool"}],"stateMutability":"view","type":"function"},{"inputs":[{"internalType":"address","name":"_newTokenAddress","type":"address"}],"name":"updateSSDToken","outputs":[],"stateMutability":"nonpayable","type":"function"},{"inputs":[{"internalType":"string","name":"_twitterHandle","type":"string"}],"name":"verifyTwitter","outputs":[],"stateMutability":"nonpayable","type":"function"},{"inputs":[{"internalType":"uint256","name":"_amount","type":"uint256"}],"name":"withdrawSSD","outputs":[],"stateMutability":"nonpayable","type":"function"}],"evm":{"bytecode":{"linkReferences":{},"object":"60806040523480156200001157600080fd5b506040516200494e3803806200494e833981016040819052620000349162000b51565b60118054600160a01b6001600160a81b03199091163360ff60a01b19161717905542601255600680546001600160a01b0319166001600160a01b0383161790556200007e6200008f565b62000088620006f6565b5062000d1c565b620000f36040518060400160405280600b81526020016a14dc1858d94810d859195d60aa1b8152506040518060400160405280601281526020017153636f726520312c30303020706f696e747360701b8152506103e8600062000a9860201b60201c565b620001576040518060400160405280600b81526020016a14dc1858d948141a5b1bdd60aa1b8152506040518060400160405280601281526020017153636f726520352c30303020706f696e747360701b815250611388600062000a9860201b60201c565b620001c46040518060400160405280600981526020016853706163652041636560b81b8152506040518060400160405280601381526020017f53636f72652031302c30303020706f696e747300000000000000000000000000815250612710600062000a9860201b60201c565b620002346040518060400160405280600c81526020016b14dc1858d948131959d95b9960a21b8152506040518060400160405280601381526020017f53636f72652032352c30303020706f696e7473000000000000000000000000008152506161a8600062000a9860201b60201c565b620002a46040518060400160405280600c81526020016b29b830b1b29026b0b9ba32b960a11b8152506040518060400160405280601381526020017f53636f72652035302c30303020706f696e74730000000000000000000000000081525061c350600062000a9860201b60201c565b6200031a6040518060400160405280601181526020017023b0b630b1ba34b19021b430b6b834b7b760791b8152506040518060400160405280601481526020017f53636f7265203130302c30303020706f696e7473000000000000000000000000815250620186a0600062000a9860201b60201c565b6200037a6040518060400160405280600d81526020016c15995d195c985b88141a5b1bdd609a1b8152506040518060400160405280600d81526020016c5265616368204c6576656c203560981b8152506005600162000a9860201b60201c565b620003dc6040518060400160405280600f81526020016e22b634ba329021b7b6b6b0b73232b960891b8152506040518060400160405280600d81526020016c0a4cac2c6d04098caeccad8407609b1b8152506008600162000a9860201b60201c565b6200043b6040518060400160405280600c81526020016b125394d0539148141a5b1bdd60a21b8152506040518060400160405280600d81526020016c042656174204c6576656c20313609c1b815250600a600162000a9860201b60201c565b6200049b6040518060400160405280600c81526020016b20b634b2b710243ab73a32b960a11b8152506040518060400160405280600e81526020016d4b696c6c20353020616c69656e7360901b8152506032600262000a9860201b60201c565b620004fc6040518060400160405280600c81526020016b20b634b2b71029b630bcb2b960a11b8152506040518060400160405280600f81526020016e4b696c6c2031303020616c69656e7360881b8152506064600262000a9860201b60201c565b620005606040518060400160405280600f81526020016e20b634b2b7102232b9ba3937bcb2b960891b8152506040518060400160405280600f81526020016e4b696c6c2032353020616c69656e7360881b81525060fa600262000a9860201b60201c565b620005c76040518060400160405280601181526020017020b634b2b71020b73734b434b630ba37b960791b8152506040518060400160405280600f81526020016e4b696c6c2035303020616c69656e7360881b8152506101f4600262000a9860201b60201c565b6200062c604051806040016040528060128152602001712232b234b1b0ba32b2102232b332b73232b960711b8152506040518060400160405280600d81526020016c506c61792031302067616d657360981b815250600a600362000a9860201b60201c565b6200068f6040518060400160405280601081526020016f14195c9cda5cdd195b9d08141a5b1bdd60821b8152506040518060400160405280600d81526020016c506c61792035302067616d657360981b8152506032600362000a9860201b60201c565b620006f46040518060400160405280601181526020017027b139b2b9b9b2b21023bab0b93234b0b760791b8152506040518060400160405280600e81526020016d506c6179203130302067616d657360901b8152506064600362000a9860201b60201c565b565b6040805160c0810182526013608082019081527f32782053636f7265204d756c7469706c6965720000000000000000000000000060a0830152815267d02ab486cedc0000602080830191909152610708928201929092526001606082015260008052600990915280517fec8156718a8372b1db44bb411437d0870f3e3790d4a08526d024ce1b0b668f6b9081906200078f908262000c28565b5060208281015160018381019190915560408085015160028501556060948501516003909401805460ff191694151594909417909355825160c081018452600a60808201908152695261706964204669726560b01b60a08301528152678ac7230489e8000081840152610e1093810193909352928201839052600092909252600990915280517f92e85d02570a8092d09a6e3a57665bc3815a2699a4074001bf1ccabf660f5a3690819062000845908262000c28565b506020828101516001838101919091556040808501516002808601919091556060958601516003909501805460ff191695151595909517909455805160c081018252600d608082019081526c115b995c99de4814da1a595b19609a1b60a0830152815267a688906bd8b0000081850152610a8c91810191909152938401526000919091526009905280517f6cde3cea4b3a3fb2488b2808bae7556f4a405e50f65e1794383bc026131b13c3908190620008ff908262000c28565b5060208281015160018381019190915560408085015160028501556060948501516003948501805460ff1916911515919091179055805160c081018252600a6080820190815269135d5b1d1a4b54da1bdd60b21b60a08301528152676f05b59d3b2000008185015261070891810191909152938401526000919091526009905280517fc575c31fea594a6eb97c8e9d3f9caee4c16218c6ef37e923234c0fe9014a61e7908190620009b1908262000c28565b5060208281015160018381019190915560408085015160028501556060948501516003909401805460ff191694151594909417909355825160c081018452600a60808201908152694578747261204c69666560b01b60a0830152815268015af1d78b58c400008184015260009381018490529384015260049091526009905280517f8dc18c4ccfd75f5c815b63770fa542fd953e8fef7e0e44bbdd4913470ce7e9cb90819062000a62908262000c28565b5060208201516001820155604082015160028201556060909101516003909101805460ff19169115159190911790556005600b55565b6040805160a081018252858152602080820186905281830185905260ff8416606083015260016080830152600e5460009081526002909152919091208151819062000ae4908262000c28565b506020820151600182019062000afb908262000c28565b506040820151600282015560608201516003909101805460809093015115156101000261ffff1990931660ff90921691909117919091179055600e805490600062000b468362000cf4565b919050555050505050565b60006020828403121562000b6457600080fd5b81516001600160a01b038116811462000b7c57600080fd5b9392505050565b634e487b7160e01b600052604160045260246000fd5b600181811c9082168062000bae57607f821691505b60208210810362000bcf57634e487b7160e01b600052602260045260246000fd5b50919050565b601f82111562000c2357600081815260208120601f850160051c8101602086101562000bfe5750805b601f850160051c820191505b8181101562000c1f5782815560010162000c0a565b5050505b505050565b81516001600160401b0381111562000c445762000c4462000b83565b62000c5c8162000c55845462000b99565b8462000bd5565b602080601f83116001811462000c94576000841562000c7b5750858301515b600019600386901b1c1916600185901b17855562000c1f565b600085815260208120601f198616915b8281101562000cc55788860151825594840194600190910190840162000ca4565b508582101562000ce45787850151600019600388901b60f8161c191681555b5050505050600190811b01905550565b60006001820162000d1557634e487b7160e01b600052601160045260246000fd5b5060010190565b613c228062000d2c6000396000f3fe608060405234801561001057600080fd5b506004361061030c5760003560e01c80637cc1f8671161019d578063a697cb0e116100e9578063cdafbbb6116100a2578063e4649eaf1161007c578063e4649eaf1461082d578063f020044f14610840578063f0860c0114610854578063f2fde38b1461085c57600080fd5b8063cdafbbb6146107a7578063db87714214610812578063deffae5b1461081a57600080fd5b8063a697cb0e14610744578063b162f25714610757578063b55f108f1461076a578063bee1ffb71461077d578063c3bbe5fc14610786578063ccf1b68c1461079457600080fd5b80639cb1e729116101565780639e8a4dd3116101305780639e8a4dd3146106dd578063a0ec242a14610709578063a436547614610711578063a59b33d81461073157600080fd5b80639cb1e7291461067a5780639ce67bdd1461068f5780639e123201146106af57600080fd5b80637cc1f867146105b25780638b8c21d7146106005780638cc5fa041461062b5780638da5cb5b14610634578063968ffe34146106475780639b2e0e981461066757600080fd5b80634fd66eae1161025c57806366c096681161021557806373055bc3116101ef57806373055bc31461054a57806376302a571461055d5780637725a9fb1461057d578063790b32281461059257600080fd5b806366c09668146104f45780637225d3401461051757806372af7ea21461052a57600080fd5b80634fd66eae1461047d578063506915051461049d57806351858e27146104b05780635c492129146104b85780635ca9e380146104c157806361d8b34d146104e457600080fd5b80631b3e4db1116102c957806333b2641f116102a357806333b2641f146104445780633c4f5a661461044c5780633fae3508146104615780634443993a1461047457600080fd5b80631b3e4db1146103f357806327aed72e146103fb578063330ab49a1461041f57600080fd5b806301650e74146103115780630252b9951461032657806313a5cede146103425780631417b82a1461036257806318889109146103a05780631aff30dd146103cb575b600080fd5b61032461031f3660046130f9565b61086f565b005b61032f60125481565b6040519081526020015b60405180910390f35b61035561035036600461312e565b610a72565b604051610339919061318f565b61039061037036600461312e565b6001600160a01b0316600090815260208190526040902060010154151590565b6040519015158152602001610339565b6006546103b3906001600160a01b031681565b6040516001600160a01b039091168152602001610339565b6103d3610b0c565b604080519485526020850193909352918301526060820152608001610339565b60035461032f565b61040e6104093660046130f9565b610b3a565b6040516103399594939291906131a2565b61043261042d3660046130f9565b610c7f565b604051610339969594939291906131ea565b610324610d66565b610454610db1565b6040516103399190613236565b61032461046f366004613326565b610e13565b61032f600e5481565b61049061048b36600461312e565b610f97565b6040516103399190613398565b6103246104ab3660046133f9565b6110a1565b6103246110dd565b61032f600f5481565b6104d46104cf3660046130f9565b611116565b6040516103399493929190613477565b61032f6802b5e3af16b188000081565b61039061050236600461312e565b600c6020526000908152604090205460ff1681565b6103246105253660046134a8565b6111cb565b61053d6105383660046130f9565b61176c565b604051610339919061355a565b61043261055836600461356d565b6118b0565b61032f61056b36600461312e565b60086020526000908152604090205481565b610585611922565b6040516103399190613597565b61032f6105a036600461312e565b60076020526000908152604090205481565b6105f06011546012546040805180820190915260058152640312e302e360dc1b60208201526001600160a01b03831693600160a01b90930460ff1692565b6040516103399493929190613641565b61032f61060e36600461356d565b600a60209081526000928352604080842090915290825290205481565b61032f600b5481565b6011546103b3906001600160a01b031681565b61065a6106553660046130f9565b611b55565b604051610339919061367a565b6103246106753660046130f9565b611d52565b610682611e41565b604051610339919061371b565b6106a261069d36600461312e565b611fce565b604051610339919061377d565b6106c26106bd36600461312e565b61205b565b60408051938452602084019290925290820152606001610339565b6103906106eb36600461312e565b6001600160a01b03166000908152600c602052604090205460ff1690565b61032f600581565b61032f61071f36600461312e565b60056020526000908152604090205481565b61032461073f36600461312e565b61210a565b61032f61075236600461312e565b612156565b61065a61076536600461312e565b612227565b6103b36107783660046130f9565b612374565b61032f60105481565b61032f662386f26fc1000081565b6103906107a236600461356d565b61239e565b6107e76107b536600461312e565b6000602081905290815260409020805460018201546002830154600384015460049094015492939192909160ff169085565b6040805195865260208601949094529284019190915260ff166060830152608082015260a001610339565b61032f606481565b6103246108283660046130f9565b6123cb565b61032461083b366004613790565b61245b565b60115461039090600160a01b900460ff1681565b600e5461032f565b61032461086a36600461312e565b61250f565b600b5481106108b75760405162461bcd60e51b815260206004820152600f60248201526e125b9d985b1a59081a5d195b481251608a1b60448201526064015b60405180910390fd5b60008181526009602052604090206003015460ff1661090d5760405162461bcd60e51b81526020600482015260126024820152714974656d206e6f7420617661696c61626c6560701b60448201526064016108ae565b600081815260096020526040908190206001015460065491516323b872dd60e01b81523360048201523060248201526044810182905290916001600160a01b0316906323b872dd906064016020604051808303816000875af1158015610977573d6000803e3d6000fd5b505050506040513d601f19601f8201168201806040525081019061099b91906137de565b6109d85760405162461bcd60e51b815260206004820152600e60248201526d14185e5b595b9d0819985a5b195960921b60448201526064016108ae565b33600090815260086020526040812080548392906109f7908490613816565b909155505060008281526009602052604090206002015415610a4e57600082815260096020526040902060020154610a2f9042613816565b336000908152600a602090815260408083208684529091529020555050565b336000908152600a60209081526040808320858452909152902060001990555b5050565b600d6020526000908152604090208054610a8b90613829565b80601f0160208091040260200160405190810160405280929190818152602001828054610ab790613829565b8015610b045780601f10610ad957610100808354040283529160200191610b04565b820191906000526020600020905b815481529060010190602001808311610ae757829003601f168201915b505050505081565b600080600080600f5460105460038054905060125442610b2c919061385d565b935093509350935090919293565b600260205260009081526040902080548190610b5590613829565b80601f0160208091040260200160405190810160405280929190818152602001828054610b8190613829565b8015610bce5780601f10610ba357610100808354040283529160200191610bce565b820191906000526020600020905b815481529060010190602001808311610bb157829003601f168201915b505050505090806001018054610be390613829565b80601f0160208091040260200160405190810160405280929190818152602001828054610c0f90613829565b8015610c5c5780601f10610c3157610100808354040283529160200191610c5c565b820191906000526020600020905b815481529060010190602001808311610c3f57829003601f168201915b50505050600283015460039093015491929160ff80821692506101009091041685565b60038181548110610c8f57600080fd5b60009182526020909120600690910201805460018201546002830154600384015460048501546005860180546001600160a01b039096169750939560ff90931694919361ffff9091169291610ce390613829565b80601f0160208091040260200160405190810160405280929190818152602001828054610d0f90613829565b8015610d5c5780601f10610d3157610100808354040283529160200191610d5c565b820191906000526020600020905b815481529060010190602001808311610d3f57829003601f168201915b5050505050905086565b6011546001600160a01b03163314610d905760405162461bcd60e51b81526004016108ae90613870565b6011805460ff60a01b198116600160a01b9182900460ff1615909102179055565b60606004805480602002602001604051908101604052809291908181526020018280548015610e0957602002820191906000526020600020905b81546001600160a01b03168152600190910190602001808311610deb575b5050505050905090565b336000908152600c602052604090205460ff1615610e665760405162461bcd60e51b815260206004820152601060248201526f105b1c9958591e481d995c9a599a595960821b60448201526064016108ae565b6000815111610ea85760405162461bcd60e51b815260206004820152600e60248201526d496e76616c69642068616e646c6560901b60448201526064016108ae565b336000908152600c60209081526040808320805460ff19166001179055600d9091529020610ed682826138ff565b506006546001600160a01b031615610f945760065460405163a9059cbb60e01b81523360048201526802b5e3af16b188000060248201526001600160a01b039091169063a9059cbb906044016020604051808303816000875af1158015610f41573d6000803e3d6000fd5b505050506040513d601f19601f82011682018060405250810190610f6591906137de565b5033600090815260076020526040812080546802b5e3af16b18800009290610f8e908490613816565b90915550505b50565b610fd36040518060c00160405280600081526020016000815260200160008152602001600060ff16815260200160008152602001606081525090565b6001600160a01b03821660009081526020818152604091829020825160c08101845281548152600182015481840152600282015481850152600382015460ff166060820152600482015460808201526005820180548551818602810186019096528086529194929360a0860193929083018282801561109157602002820191906000526020600020906000905b825461010083900a900460ff1615158152602060019283018181049485019490930390920291018084116110605790505b5050505050815250509050919050565b6011546001600160a01b031633146110cb5760405162461bcd60e51b81526004016108ae90613870565b6110d7848484846125a3565b50505050565b6011546001600160a01b031633146111075760405162461bcd60e51b81526004016108ae90613870565b6011805460ff60a01b19169055565b60096020526000908152604090208054819061113190613829565b80601f016020809104026020016040519081016040528092919081815260200182805461115d90613829565b80156111aa5780601f1061117f576101008083540402835291602001916111aa565b820191906000526020600020905b81548152906001019060200180831161118d57829003601f168201915b50505050600183015460028401546003909401549293909290915060ff1684565b601154600160a01b900460ff166112195760405162461bcd60e51b815260206004820152601260248201527147616d65206973206e6f742061637469766560701b60448201526064016108ae565b8260018160ff16101580156112325750600a8160ff1611155b61126e5760405162461bcd60e51b815260206004820152600d60248201526c125b9d985b1a59081b195d995b609a1b60448201526064016108ae565b84600081116112bf5760405162461bcd60e51b815260206004820152601c60248201527f53636f7265206d7573742062652067726561746572207468616e20300000000060448201526064016108ae565b6112ca868686612656565b6113165760405162461bcd60e51b815260206004820152601760248201527f53636f72652076616c69646174696f6e206661696c656400000000000000000060448201526064016108ae565b61131f33612772565b61136b5760405162461bcd60e51b815260206004820152601860248201527f5375626d697373696f6e2072617465206578636565646564000000000000000060448201526064016108ae565b336000611383662386f26fc1000061ffff88166139bf565b905060008111801561139f57506006546001600160a01b031615155b1561144a5760065460405163a9059cbb60e01b81526001600160a01b038481166004830152602482018490529091169063a9059cbb906044016020604051808303816000875af11580156113f7573d6000803e3d6000fd5b505050506040513d601f19601f8201168201806040525081019061141b91906137de565b506001600160a01b03821660009081526007602052604081208054839290611444908490613816565b90915550505b6001600160a01b038216600090815260208190526040812060010154900361153f576004805460018101825560009182527f8a35acfbc15ff81a39ae7d344fd709f28e8600b4aa8c65c6b64bfe7fe36bd19b0180546001600160a01b0319166001600160a01b03851617905560108054916114c4836139d6565b9190505550600e5467ffffffffffffffff8111156114e4576114e4613283565b60405190808252806020026020018201604052801561150d578160200160208202803683370190505b506001600160a01b038316600090815260208181526040909120825161153d936005909201929190910190613009565b505b6040805160c0810182526001600160a01b03841680825260208083018c905260ff8b168385015242606084015261ffff8a16608084015260a083018990526000918252819052918220600181018054929391929161159c836139d6565b91905055508761ffff168160020160008282546115b99190613816565b9091555050600f80549060006115ce836139d6565b9091555050600381015460ff908116908a1611156115f85760038101805460ff191660ff8b161790555b80546000908b111561164a57508981556040518a81526001906001600160a01b038616907fe265ae360c48dc3c258727b698cc5a994da69b0d32354166f39003a4889194439060200160405180910390a25b6001600160a01b0385811660009081526001602081815260408084208054808501825590855293829020885160069095020180546001600160a01b031916949095169390931784558601519083015584015160028201805460ff191660ff90921691909117905560608401516003820155608084015160048201805461ffff191661ffff90921691909117905560a084015184919060058201906116ee90826138ff565b5050506116fa836127c6565b61170385612dcc565b604080518c815260ff8c166020820152428183015290516001600160a01b038716917f5cda6e39a6c4e0b3311e33c36de098da84b9222dcc24c13b2e9165c175f4e3d3919081900360600190a2801561175f5761175f85612fb5565b5050505050505050505050565b61179960405180608001604052806060815260200160008152602001600081526020016000151581525090565b600b5482106117dc5760405162461bcd60e51b815260206004820152600f60248201526e125b9d985b1a59081a5d195b481251608a1b60448201526064016108ae565b6000828152600960205260409081902081516080810190925280548290829061180490613829565b80601f016020809104026020016040519081016040528092919081815260200182805461183090613829565b801561187d5780601f106118525761010080835404028352916020019161187d565b820191906000526020600020905b81548152906001019060200180831161186057829003601f168201915b5050509183525050600182015460208201526002820154604082015260039091015460ff16151560609091015292915050565b600160205281600052604060002081815481106118cc57600080fd5b60009182526020909120600690910201805460018201546002830154600384015460048501546005860180546001600160a01b03909616985093965060ff90921694909361ffff909216929091610ce390613829565b60606000600e5467ffffffffffffffff81111561194157611941613283565b6040519080825280602002602001820160405280156119a957816020015b6119966040518060a00160405280606081526020016060815260200160008152602001600060ff1681526020016000151581525090565b81526020019060019003908161195f5790505b50905060005b600e54811015611b4f5760008181526002602052604090819020815160a081019092528054829082906119e190613829565b80601f0160208091040260200160405190810160405280929190818152602001828054611a0d90613829565b8015611a5a5780601f10611a2f57610100808354040283529160200191611a5a565b820191906000526020600020905b815481529060010190602001808311611a3d57829003601f168201915b50505050508152602001600182018054611a7390613829565b80601f0160208091040260200160405190810160405280929190818152602001828054611a9f90613829565b8015611aec5780601f10611ac157610100808354040283529160200191611aec565b820191906000526020600020905b815481529060010190602001808311611acf57829003601f168201915b50505091835250506002820154602082015260039091015460ff80821660408401526101009091041615156060909101528251839083908110611b3157611b316139ef565b60200260200101819052508080611b47906139d6565b9150506119af565b50919050565b6003546060906000908311611b6a5782611b6e565b6003545b905060008167ffffffffffffffff811115611b8b57611b8b613283565b604051908082528060200260200182016040528015611c0557816020015b611bf26040518060c0016040528060006001600160a01b0316815260200160008152602001600060ff16815260200160008152602001600061ffff168152602001606081525090565b815260200190600190039081611ba95790505b50905060005b82811015611d4a5760038181548110611c2657611c266139ef565b60009182526020918290206040805160c081018252600690930290910180546001600160a01b03168352600181015493830193909352600283015460ff169082015260038201546060820152600482015461ffff16608082015260058201805491929160a084019190611c9890613829565b80601f0160208091040260200160405190810160405280929190818152602001828054611cc490613829565b8015611d115780601f10611ce657610100808354040283529160200191611d11565b820191906000526020600020905b815481529060010190602001808311611cf457829003601f168201915b505050505081525050828281518110611d2c57611d2c6139ef565b60200260200101819052508080611d42906139d6565b915050611c0b565b509392505050565b6011546001600160a01b03163314611d7c5760405162461bcd60e51b81526004016108ae90613870565b6006546001600160a01b0316611dc85760405162461bcd60e51b815260206004820152601160248201527014d4d1081d1bdad95b881b9bdd081cd95d607a1b60448201526064016108ae565b60065460115460405163a9059cbb60e01b81526001600160a01b0391821660048201526024810184905291169063a9059cbb906044016020604051808303816000875af1158015611e1d573d6000803e3d6000fd5b505050506040513d601f19601f82011682018060405250810190610a6e91906137de565b60606000600b5467ffffffffffffffff811115611e6057611e60613283565b604051908082528060200260200182016040528015611ebe57816020015b611eab60405180608001604052806060815260200160008152602001600081526020016000151581525090565b815260200190600190039081611e7e5790505b50905060005b600b54811015611b4f5760008181526009602052604090819020815160808101909252805482908290611ef690613829565b80601f0160208091040260200160405190810160405280929190818152602001828054611f2290613829565b8015611f6f5780601f10611f4457610100808354040283529160200191611f6f565b820191906000526020600020905b815481529060010190602001808311611f5257829003601f168201915b5050509183525050600182015460208201526002820154604082015260039091015460ff1615156060909101528251839083908110611fb057611fb06139ef565b60200260200101819052508080611fc6906139d6565b915050611ec4565b6001600160a01b0381166000908152602081815260409182902060050180548351818402810184019094528084526060939283018282801561204f57602002820191906000526020600020906000905b825461010083900a900460ff16151581526020600192830181810494850194909303909202910180841161201e5790505b50505050509050919050565b6001600160a01b038082166000908152600760209081526040808320546008909252822054600654919390929116612094576000612102565b6006546040516370a0823160e01b81526001600160a01b038681166004830152909116906370a0823190602401602060405180830381865afa1580156120de573d6000803e3d6000fd5b505050506040513d601f19601f820116820180604052508101906121029190613a05565b929491935050565b6011546001600160a01b031633146121345760405162461bcd60e51b81526004016108ae90613870565b600680546001600160a01b0319166001600160a01b0392909216919091179055565b6001600160a01b03811660009081526020819052604081205480820361217f5750600092915050565b60005b60035481101561221d57836001600160a01b0316600382815481106121a9576121a96139ef565b60009182526020909120600690910201546001600160a01b03161480156121f3575081600382815481106121df576121df6139ef565b906000526020600020906006020160010154145b1561220b57612203816001613816565b949350505050565b80612215816139d6565b915050612182565b5060009392505050565b6001600160a01b0381166000908152600160209081526040808320805482518185028101850190935280835260609492939192909184015b828210156123695760008481526020908190206040805160c0810182526006860290920180546001600160a01b03168352600181015493830193909352600283015460ff169082015260038201546060820152600482015461ffff16608082015260058201805491929160a0840191906122d890613829565b80601f016020809104026020016040519081016040528092919081815260200182805461230490613829565b80156123515780601f1061232657610100808354040283529160200191612351565b820191906000526020600020905b81548152906001019060200180831161233457829003601f168201915b5050505050815250508152602001906001019061225f565b505050509050919050565b6004818154811061238457600080fd5b6000918252602090912001546001600160a01b0316905081565b6001600160a01b0382166000908152600a6020908152604080832084845290915290205442105b92915050565b6011546001600160a01b031633146123f55760405162461bcd60e51b81526004016108ae90613870565b600e54811061243f5760405162461bcd60e51b8152602060048201526016602482015275125b9d985b1a59081858da1a595d995b595b9d08125160521b60448201526064016108ae565b6000908152600260205260409020600301805461ff0019169055565b6011546001600160a01b031633146124855760405162461bcd60e51b81526004016108ae90613870565b60408051608081018252848152602080820185905281830184905260016060830152600b546000908152600990915291909120815181906124c690826138ff565b5060208201516001820155604082015160028201556060909101516003909101805460ff1916911515919091179055600b8054906000612505836139d6565b9190505550505050565b6011546001600160a01b031633146125395760405162461bcd60e51b81526004016108ae90613870565b6001600160a01b0381166125815760405162461bcd60e51b815260206004820152600f60248201526e496e76616c6964206164647265737360881b60448201526064016108ae565b601180546001600160a01b0319166001600160a01b0392909216919091179055565b6040805160a081018252858152602080820186905281830185905260ff8416606083015260016080830152600e546000908152600290915291909120815181906125ed90826138ff565b506020820151600182019061260290826138ff565b506040820151600282015560608201516003909101805460809093015115156101000261ffff1990931660ff90921691909117919091179055600e805490600061264b836139d6565b919050555050505050565b6000620f424084111561266b5750600061276b565b6127108261ffff1611156126815750600061276b565b61ffff8216156126c157600061269b61ffff841686613a1e565b905060058110806126ac5750609681115b156126bb57600091505061276b565b506126d2565b60648411156126d25750600061276b565b60408051610140810182526103e88152610bb86020820152611770918101919091526127106060820152613a9860808201526161a860a0820152619c4060c082015261ea6060e0820152620186a061010082015262030d406101208201528061273c600186613a40565b60ff16600a811061274f5761274f6139ef565b602002015185111561276557600091505061276b565b60019150505b9392505050565b6001600160a01b03811660009081526005602081905260408220546127979190613816565b4210156127a657506000919050565b506001600160a01b03166000908152600560205260409020429055600190565b600354600003612922576003805460018101825560009190915281517fc2575a0e9e593c00f959f8c92f12db2869c3395a3b0502d05e2516446f71f85b600690920291820180546001600160a01b0319166001600160a01b0390921691909117815560208301517fc2575a0e9e593c00f959f8c92f12db2869c3395a3b0502d05e2516446f71f85c83015560408301517fc2575a0e9e593c00f959f8c92f12db2869c3395a3b0502d05e2516446f71f85d8301805460ff191660ff90921691909117905560608301517fc2575a0e9e593c00f959f8c92f12db2869c3395a3b0502d05e2516446f71f85e83015560808301517fc2575a0e9e593c00f959f8c92f12db2869c3395a3b0502d05e2516446f71f85f8301805461ffff191661ffff90921691909117905560a083015183927fc2575a0e9e593c00f959f8c92f12db2869c3395a3b0502d05e2516446f71f86001906110d790826138ff565b60035460005b60035481101561297c5760038181548110612945576129456139ef565b9060005260206000209060060201600101548360200151111561296a5780915061297c565b80612974816139d6565b915050612928565b50600354811015612bfa576003805481906129999060019061385d565b815481106129a9576129a96139ef565b6000918252602080832084546001818101875595855291909320600692830290930180549190920290920180546001600160a01b0319166001600160a01b039093169290921782558281015492820192909255600280830154908201805460ff191660ff90921691909117905560038083015490820155600480830154908201805461ffff191661ffff909216919091179055600580820190612a4e90840182613a59565b505060035460009150612a639060019061385d565b90505b81811115612b4e576003612a7b60018361385d565b81548110612a8b57612a8b6139ef565b906000526020600020906006020160038281548110612aac57612aac6139ef565b60009182526020909120825460069092020180546001600160a01b0319166001600160a01b0390921691909117815560018083015490820155600280830154908201805460ff191660ff90921691909117905560038083015490820155600480830154908201805461ffff191661ffff909216919091179055600580820190612b3790840182613a59565b509050508080612b4690613b34565b915050612a66565b508160038281548110612b6357612b636139ef565b600091825260209182902083516006929092020180546001600160a01b0319166001600160a01b03909216919091178155908201516001820155604082015160028201805460ff191660ff90921691909117905560608201516003820155608082015160048201805461ffff191661ffff90921691909117905560a08201516005820190612bf190826138ff565b50905050612d50565b6003805460018101825560009190915282517fc2575a0e9e593c00f959f8c92f12db2869c3395a3b0502d05e2516446f71f85b600690920291820180546001600160a01b0319166001600160a01b0390921691909117815560208401517fc2575a0e9e593c00f959f8c92f12db2869c3395a3b0502d05e2516446f71f85c83015560408401517fc2575a0e9e593c00f959f8c92f12db2869c3395a3b0502d05e2516446f71f85d8301805460ff191660ff90921691909117905560608401517fc2575a0e9e593c00f959f8c92f12db2869c3395a3b0502d05e2516446f71f85e83015560808401517fc2575a0e9e593c00f959f8c92f12db2869c3395a3b0502d05e2516446f71f85f8301805461ffff191661ffff90921691909117905560a084015184927fc2575a0e9e593c00f959f8c92f12db2869c3395a3b0502d05e2516446f71f8600190612d4c90826138ff565b5050505b60035460641015610a6e576003805480612d6c57612d6c613b4b565b60008281526020812060066000199093019283020180546001600160a01b03191681556001810182905560028101805460ff191690556003810182905560048101805461ffff1916905590612dc460058301826130ae565b505090555050565b6001600160a01b0381166000908152602081905260408120905b600e54811015612fb057600081815260026020526040902060030154610100900460ff161580612e475750816005018181548110612e2657612e266139ef565b90600052602060002090602091828204019190069054906101000a900460ff165b612f9e57600081815260026020526040812060030154819060ff168103612e7057508254612ee7565b60008381526002602052604090206003015460ff16600103612e9a5750600383015460ff16612ee7565b60008381526002602081905260409091206003015460ff169003612ec357506002830154612ee7565b600083815260026020526040902060039081015460ff169003612ee7575060018301545b600083815260026020819052604090912001548110612f9b576001846005018481548110612f1757612f176139ef565b90600052602060002090602091828204019190066101000a81548160ff02191690831515021790555060019150846001600160a01b03167fca8c9accce1ea9b1e88e76d666c26849f39052a6344521346b739cdd29ad4ae660026000868152602001908152602001600020600001604051612f929190613b61565b60405180910390a25b50505b80612fa8816139d6565b915050612de6565b505050565b6000612fc082612156565b9050816001600160a01b03167f24e225604268d6416871b32db1be8e49f497caf8360393b31d71a34a4ce2669382604051612ffd91815260200190565b60405180910390a25050565b82805482825590600052602060002090601f0160209004810192821561309e5791602002820160005b8382111561306f57835183826101000a81548160ff0219169083151502179055509260200192600101602081600001049283019260010302613032565b801561309c5782816101000a81549060ff021916905560010160208160000104928301926001030261306f565b505b506130aa9291506130e4565b5090565b5080546130ba90613829565b6000825580601f106130ca575050565b601f016020900490600052602060002090810190610f9491905b5b808211156130aa57600081556001016130e5565b60006020828403121561310b57600080fd5b5035919050565b80356001600160a01b038116811461312957600080fd5b919050565b60006020828403121561314057600080fd5b61276b82613112565b6000815180845260005b8181101561316f57602081850181015186830182015201613153565b506000602082860101526020601f19601f83011685010191505092915050565b60208152600061276b6020830184613149565b60a0815260006131b560a0830188613149565b82810360208401526131c78188613149565b6040840196909652505060ff929092166060830152151560809091015292915050565b60018060a01b038716815285602082015260ff8516604082015283606082015261ffff8316608082015260c060a0820152600061322a60c0830184613149565b98975050505050505050565b6020808252825182820181905260009190848201906040850190845b818110156132775783516001600160a01b031683529284019291840191600101613252565b50909695505050505050565b634e487b7160e01b600052604160045260246000fd5b600082601f8301126132aa57600080fd5b813567ffffffffffffffff808211156132c5576132c5613283565b604051601f8301601f19908116603f011681019082821181831017156132ed576132ed613283565b8160405283815286602085880101111561330657600080fd5b836020870160208301376000602085830101528094505050505092915050565b60006020828403121561333857600080fd5b813567ffffffffffffffff81111561334f57600080fd5b61220384828501613299565b600081518084526020808501945080840160005b8381101561338d57815115158752958201959082019060010161336f565b509495945050505050565b6020815281516020820152602082015160408201526040820151606082015260ff6060830151166080820152608082015160a0820152600060a083015160c08084015261220360e084018261335b565b803560ff8116811461312957600080fd5b6000806000806080858703121561340f57600080fd5b843567ffffffffffffffff8082111561342757600080fd5b61343388838901613299565b9550602087013591508082111561344957600080fd5b5061345687828801613299565b9350506040850135915061346c606086016133e8565b905092959194509250565b60808152600061348a6080830187613149565b60208301959095525060408101929092521515606090910152919050565b600080600080608085870312156134be57600080fd5b843593506134ce602086016133e8565b9250604085013561ffff811681146134e557600080fd5b9150606085013567ffffffffffffffff81111561350157600080fd5b61350d87828801613299565b91505092959194509250565b600081516080845261352e6080850182613149565b905060208301516020850152604083015160408501526060830151151560608501528091505092915050565b60208152600061276b6020830184613519565b6000806040838503121561358057600080fd5b61358983613112565b946020939093013593505050565b60006020808301818452808551808352604092508286019150828160051b87010184880160005b8381101561363357603f19898403018552815160a081518186526135e482870182613149565b915050888201518582038a8701526135fc8282613149565b838a0151878b015260608085015160ff169088015260809384015115159390960192909252505093860193908601906001016135be565b509098975050505050505050565b60018060a01b038516815283151560208201528260408201526080606082015260006136706080830184613149565b9695505050505050565b60006020808301818452808551808352604092508286019150828160051b87010184880160005b8381101561363357888303603f19018552815180516001600160a01b0316845287810151888501528681015160ff16878501526060808201519085015260808082015161ffff169085015260a09081015160c09185018290529061370781860183613149565b9689019694505050908601906001016136a1565b6000602080830181845280855180835260408601915060408160051b870101925083870160005b8281101561377057603f1988860301845261375e858351613519565b94509285019290850190600101613742565b5092979650505050505050565b60208152600061276b602083018461335b565b6000806000606084860312156137a557600080fd5b833567ffffffffffffffff8111156137bc57600080fd5b6137c886828701613299565b9660208601359650604090950135949350505050565b6000602082840312156137f057600080fd5b8151801515811461276b57600080fd5b634e487b7160e01b600052601160045260246000fd5b808201808211156123c5576123c5613800565b600181811c9082168061383d57607f821691505b602082108103611b4f57634e487b7160e01b600052602260045260246000fd5b818103818111156123c5576123c5613800565b60208082526021908201527f4f6e6c79206f776e65722063616e2063616c6c20746869732066756e6374696f6040820152603760f91b606082015260800190565b601f821115612fb057600081815260208120601f850160051c810160208610156138d85750805b601f850160051c820191505b818110156138f7578281556001016138e4565b505050505050565b815167ffffffffffffffff81111561391957613919613283565b61392d816139278454613829565b846138b1565b602080601f831160018114613962576000841561394a5750858301515b600019600386901b1c1916600185901b1785556138f7565b600085815260208120601f198616915b8281101561399157888601518255948401946001909101908401613972565b50858210156139af5787850151600019600388901b60f8161c191681555b5050505050600190811b01905550565b80820281158282048414176123c5576123c5613800565b6000600182016139e8576139e8613800565b5060010190565b634e487b7160e01b600052603260045260246000fd5b600060208284031215613a1757600080fd5b5051919050565b600082613a3b57634e487b7160e01b600052601260045260246000fd5b500490565b60ff82811682821603908111156123c5576123c5613800565b818103613a64575050565b613a6e8254613829565b67ffffffffffffffff811115613a8657613a86613283565b613a94816139278454613829565b6000601f821160018114613ac85760008315613ab05750848201545b600019600385901b1c1916600184901b178455613b2d565b600085815260209020601f19841690600086815260209020845b83811015613b025782860154825560019586019590910190602001613ae2565b5085831015613b205781850154600019600388901b60f8161c191681555b50505060018360011b0184555b5050505050565b600081613b4357613b43613800565b506000190190565b634e487b7160e01b600052603160045260246000fd5b6000602080835260008454613b7581613829565b80848701526040600180841660008114613b965760018114613bb057613bde565b60ff1985168984015283151560051b890183019550613bde565b896000528660002060005b85811015613bd65781548b8201860152908301908801613bbb565b8a0184019650505b50939897505050505050505056fea264697066735822122067b75aedb2440bcff87defffa27ad5520d192c81d93983e7b8ccb9b17c8c1add64736f6c63430008130033","opcodes":"PUSH1 0x80 PUSH1 0x40 MSTORE CALLVALUE DUP1 ISZERO PUSH3 0x11 JUMPI PUSH1 0x0 DUP1 REVERT JUMPDEST POP PUSH1 0x40 MLOAD PUSH3 0x494E CODESIZE SUB DUP1 PUSH3 0x494E DUP4 CODECOPY DUP2 ADD PUSH1 0x40 DUP2 SWAP1 MSTORE PUSH3 0x34 SWAP2 PUSH3 0xB51 JUMP JUMPDEST PUSH1 0x11 DUP1 SLOAD PUSH1 0x1 PUSH1 0xA0 SHL PUSH1 0x1 PUSH1 0x1 PUSH1 0xA8 SHL SUB NOT SWAP1 SWAP2 AND CALLER PUSH1 0xFF PUSH1 0xA0 SHL NOT AND OR OR SWAP1 SSTORE TIMESTAMP PUSH1 0x12 SSTORE PUSH1 0x6 DUP1 SLOAD PUSH1 0x1 PUSH1 0x1 PUSH1 0xA0 SHL SUB NOT AND PUSH1 0x1 PUSH1 0x1 PUSH1 0xA0 SHL SUB DUP4 AND OR SWAP1 SSTORE PUSH3 0x7E PUSH3 0x8F JUMP JUMPDEST PUSH3 0x88 PUSH3 0x6F6 JUMP JUMPDEST POP PUSH3 0xD1C JUMP JUMPDEST PUSH3 0xF3 PUSH1 0x40 MLOAD DUP1 PUSH1 0x40 ADD PUSH1 0x40 MSTORE DUP1 PUSH1 0xB DUP2 MSTORE PUSH1 0x20 ADD PUSH11 0x14DC1858D94810D859195D PUSH1 0xAA SHL DUP2 MSTORE POP PUSH1 0x40 MLOAD DUP1 PUSH1 0x40 ADD PUSH1 0x40 MSTORE DUP1 PUSH1 0x12 DUP2 MSTORE PUSH1 0x20 ADD PUSH18 0x53636F726520312C30303020706F696E7473 PUSH1 0x70 SHL DUP2 MSTORE POP PUSH2 0x3E8 PUSH1 0x0 PUSH3 0xA98 PUSH1 0x20 SHL PUSH1 0x20 SHR JUMP JUMPDEST PUSH3 0x157 PUSH1 0x40 MLOAD DUP1 PUSH1 0x40 ADD PUSH1 0x40 MSTORE DUP1 PUSH1 0xB DUP2 MSTORE PUSH1 0x20 ADD PUSH11 0x14DC1858D948141A5B1BDD PUSH1 0xAA SHL DUP2 MSTORE POP PUSH1 0x40 MLOAD DUP1 PUSH1 0x40 ADD PUSH1 0x40 MSTORE DUP1 PUSH1 0x12 DUP2 MSTORE PUSH1 0x20 ADD PUSH18 0x53636F726520352C30303020706F696E7473 PUSH1 0x70 SHL DUP2 MSTORE POP PUSH2 0x1388 PUSH1 0x0 PUSH3 0xA98 PUSH1 0x20 SHL PUSH1 0x20 SHR JUMP JUMPDEST PUSH3 0x1C4 PUSH1 0x40 MLOAD DUP1 PUSH1 0x40 ADD PUSH1 0x40 MSTORE DUP1 PUSH1 0x9 DUP2 MSTORE PUSH1 0x20 ADD PUSH9 0x537061636520416365 PUSH1 0xB8 SHL DUP2 MSTORE POP PUSH1 0x40 MLOAD DUP1 PUSH1 0x40 ADD PUSH1 0x40 MSTORE DUP1 PUSH1 0x13 DUP2 MSTORE PUSH1 0x20 ADD PUSH32 0x53636F72652031302C30303020706F696E747300000000000000000000000000 DUP2 MSTORE POP PUSH2 0x2710 PUSH1 0x0 PUSH3 0xA98 PUSH1 0x20 SHL PUSH1 0x20 SHR JUMP JUMPDEST PUSH3 0x234 PUSH1 0x40 MLOAD DUP1 PUSH1 0x40 ADD PUSH1 0x40 MSTORE DUP1 PUSH1 0xC DUP2 MSTORE PUSH1 0x20 ADD PUSH12 0x14DC1858D948131959D95B99 PUSH1 0xA2 SHL DUP2 MSTORE POP PUSH1 0x40 MLOAD DUP1 PUSH1 0x40 ADD PUSH1 0x40 MSTORE DUP1 PUSH1 0x13 DUP2 MSTORE PUSH1 0x20 ADD PUSH32 0x53636F72652032352C30303020706F696E747300000000000000000000000000 DUP2 MSTORE POP PUSH2 0x61A8 PUSH1 0x0 PUSH3 0xA98 PUSH1 0x20 SHL PUSH1 0x20 SHR JUMP JUMPDEST PUSH3 0x2A4 PUSH1 0x40 MLOAD DUP1 PUSH1 0x40 ADD PUSH1 0x40 MSTORE DUP1 PUSH1 0xC DUP2 MSTORE PUSH1 0x20 ADD PUSH12 0x29B830B1B29026B0B9BA32B9 PUSH1 0xA1 SHL DUP2 MSTORE POP PUSH1 0x40 MLOAD DUP1 PUSH1 0x40 ADD PUSH1 0x40 MSTORE DUP1 PUSH1 0x13 DUP2 MSTORE PUSH1 0x20 ADD PUSH32 0x53636F72652035302C30303020706F696E747300000000000000000000000000 DUP2 MSTORE POP PUSH2 0xC350 PUSH1 0x0 PUSH3 0xA98 PUSH1 0x20 SHL PUSH1 0x20 SHR JUMP JUMPDEST PUSH3 0x31A PUSH1 0x40 MLOAD DUP1 PUSH1 0x40 ADD PUSH1 0x40 MSTORE DUP1 PUSH1 0x11 DUP2 MSTORE PUSH1 0x20 ADD PUSH17 0x23B0B630B1BA34B19021B430B6B834B7B7 PUSH1 0x79 SHL DUP2 MSTORE POP PUSH1 0x40 MLOAD DUP1 PUSH1 0x40 ADD PUSH1 0x40 MSTORE DUP1 PUSH1 0x14 DUP2 MSTORE PUSH1 0x20 ADD PUSH32 0x53636F7265203130302C30303020706F696E7473000000000000000000000000 DUP2 MSTORE POP PUSH3 0x186A0 PUSH1 0x0 PUSH3 0xA98 PUSH1 0x20 SHL PUSH1 0x20 SHR JUMP JUMPDEST PUSH3 0x37A PUSH1 0x40 MLOAD DUP1 PUSH1 0x40 ADD PUSH1 0x40 MSTORE DUP1 PUSH1 0xD DUP2 MSTORE PUSH1 0x20 ADD PUSH13 0x15995D195C985B88141A5B1BDD PUSH1 0x9A SHL DUP2 MSTORE POP PUSH1 0x40 MLOAD DUP1 PUSH1 0x40 ADD PUSH1 0x40 MSTORE DUP1 PUSH1 0xD DUP2 MSTORE PUSH1 0x20 ADD PUSH13 0x5265616368204C6576656C2035 PUSH1 0x98 SHL DUP2 MSTORE POP PUSH1 0x5 PUSH1 0x1 PUSH3 0xA98 PUSH1 0x20 SHL PUSH1 0x20 SHR JUMP JUMPDEST PUSH3 0x3DC PUSH1 0x40 MLOAD DUP1 PUSH1 0x40 ADD PUSH1 0x40 MSTORE DUP1 PUSH1 0xF DUP2 MSTORE PUSH1 0x20 ADD PUSH15 0x22B634BA329021B7B6B6B0B73232B9 PUSH1 0x89 SHL DUP2 MSTORE POP PUSH1 0x40 MLOAD DUP1 PUSH1 0x40 ADD PUSH1 0x40 MSTORE DUP1 PUSH1 0xD DUP2 MSTORE PUSH1 0x20 ADD PUSH13 0xA4CAC2C6D04098CAECCAD8407 PUSH1 0x9B SHL DUP2 MSTORE POP PUSH1 0x8 PUSH1 0x1 PUSH3 0xA98 PUSH1 0x20 SHL PUSH1 0x20 SHR JUMP JUMPDEST PUSH3 0x43B PUSH1 0x40 MLOAD DUP1 PUSH1 0x40 ADD PUSH1 0x40 MSTORE DUP1 PUSH1 0xC DUP2 MSTORE PUSH1 0x20 ADD PUSH12 0x125394D0539148141A5B1BDD PUSH1 0xA2 SHL DUP2 MSTORE POP PUSH1 0x40 MLOAD DUP1 PUSH1 0x40 ADD PUSH1 0x40 MSTORE DUP1 PUSH1 0xD DUP2 MSTORE PUSH1 0x20 ADD PUSH13 0x42656174204C6576656C20313 PUSH1 0x9C SHL DUP2 MSTORE POP PUSH1 0xA PUSH1 0x1 PUSH3 0xA98 PUSH1 0x20 SHL PUSH1 0x20 SHR JUMP JUMPDEST PUSH3 0x49B PUSH1 0x40 MLOAD DUP1 PUSH1 0x40 ADD PUSH1 0x40 MSTORE DUP1 PUSH1 0xC DUP2 MSTORE PUSH1 0x20 ADD PUSH12 0x20B634B2B710243AB73A32B9 PUSH1 0xA1 SHL DUP2 MSTORE POP PUSH1 0x40 MLOAD DUP1 PUSH1 0x40 ADD PUSH1 0x40 MSTORE DUP1 PUSH1 0xE DUP2 MSTORE PUSH1 0x20 ADD PUSH14 0x4B696C6C20353020616C69656E73 PUSH1 0x90 SHL DUP2 MSTORE POP PUSH1 0x32 PUSH1 0x2 PUSH3 0xA98 PUSH1 0x20 SHL PUSH1 0x20 SHR JUMP JUMPDEST PUSH3 0x4FC PUSH1 0x40 MLOAD DUP1 PUSH1 0x40 ADD PUSH1 0x40 MSTORE DUP1 PUSH1 0xC DUP2 MSTORE PUSH1 0x20 ADD PUSH12 0x20B634B2B71029B630BCB2B9 PUSH1 0xA1 SHL DUP2 MSTORE POP PUSH1 0x40 MLOAD DUP1 PUSH1 0x40 ADD PUSH1 0x40 MSTORE DUP1 PUSH1 0xF DUP2 MSTORE PUSH1 0x20 ADD PUSH15 0x4B696C6C2031303020616C69656E73 PUSH1 0x88 SHL DUP2 MSTORE POP PUSH1 0x64 PUSH1 0x2 PUSH3 0xA98 PUSH1 0x20 SHL PUSH1 0x20 SHR JUMP JUMPDEST PUSH3 0x560 PUSH1 0x40 MLOAD DUP1 PUSH1 0x40 ADD PUSH1 0x40 MSTORE DUP1 PUSH1 0xF DUP2 MSTORE PUSH1 0x20 ADD PUSH15 0x20B634B2B7102232B9BA3937BCB2B9 PUSH1 0x89 SHL DUP2 MSTORE POP PUSH1 0x40 MLOAD DUP1 PUSH1 0x40 ADD PUSH1 0x40 MSTORE DUP1 PUSH1 0xF DUP2 MSTORE PUSH1 0x20 ADD PUSH15 0x4B696C6C2032353020616C69656E73 PUSH1 0x88 SHL DUP2 MSTORE POP PUSH1 0xFA PUSH1 0x2 PUSH3 0xA98 PUSH1 0x20 SHL PUSH1 0x20 SHR JUMP JUMPDEST PUSH3 0x5C7 PUSH1 0x40 MLOAD DUP1 PUSH1 0x40 ADD PUSH1 0x40 MSTORE DUP1 PUSH1 0x11 DUP2 MSTORE PUSH1 0x20 ADD PUSH17 0x20B634B2B71020B73734B434B630BA37B9 PUSH1 0x79 SHL DUP2 MSTORE POP PUSH1 0x40 MLOAD DUP1 PUSH1 0x40 ADD PUSH1 0x40 MSTORE DUP1 PUSH1 0xF DUP2 MSTORE PUSH1 0x20 ADD PUSH15 0x4B696C6C2035303020616C69656E73 PUSH1 0x88 SHL DUP2 MSTORE POP PUSH2 0x1F4 PUSH1 0x2 PUSH3 0xA98 PUSH1 0x20 SHL PUSH1 0x20 SHR JUMP JUMPDEST PUSH3 0x62C PUSH1 0x40 MLOAD DUP1 PUSH1 0x40 ADD PUSH1 0x40 MSTORE DUP1 PUSH1 0x12 DUP2 MSTORE PUSH1 0x20 ADD PUSH18 0x2232B234B1B0BA32B2102232B332B73232B9 PUSH1 0x71 SHL DUP2 MSTORE POP PUSH1 0x40 MLOAD DUP1 PUSH1 0x40 ADD PUSH1 0x40 MSTORE DUP1 PUSH1 0xD DUP2 MSTORE PUSH1 0x20 ADD PUSH13 0x506C61792031302067616D6573 PUSH1 0x98 SHL DUP2 MSTORE POP PUSH1 0xA PUSH1 0x3 PUSH3 0xA98 PUSH1 0x20 SHL PUSH1 0x20 SHR JUMP JUMPDEST PUSH3 0x68F PUSH1 0x40 MLOAD DUP1 PUSH1 0x40 ADD PUSH1 0x40 MSTORE DUP1 PUSH1 0x10 DUP2 MSTORE PUSH1 0x20 ADD PUSH16 0x14195C9CDA5CDD195B9D08141A5B1BDD PUSH1 0x82 SHL DUP2 MSTORE POP PUSH1 0x40 MLOAD DUP1 PUSH1 0x40 ADD PUSH1 0x40 MSTORE DUP1 PUSH1 0xD DUP2 MSTORE PUSH1 0x20 ADD PUSH13 0x506C61792035302067616D6573 PUSH1 0x98 SHL DUP2 MSTORE POP PUSH1 0x32 PUSH1 0x3 PUSH3 0xA98 PUSH1 0x20 SHL PUSH1 0x20 SHR JUMP JUMPDEST PUSH3 0x6F4 PUSH1 0x40 MLOAD DUP1 PUSH1 0x40 ADD PUSH1 0x40 MSTORE DUP1 PUSH1 0x11 DUP2 MSTORE PUSH1 0x20 ADD PUSH17 0x27B139B2B9B9B2B21023BAB0B93234B0B7 PUSH1 0x79 SHL DUP2 MSTORE POP PUSH1 0x40 MLOAD DUP1 PUSH1 0x40 ADD PUSH1 0x40 MSTORE DUP1 PUSH1 0xE DUP2 MSTORE PUSH1 0x20 ADD PUSH14 0x506C6179203130302067616D6573 PUSH1 0x90 SHL DUP2 MSTORE POP PUSH1 0x64 PUSH1 0x3 PUSH3 0xA98 PUSH1 0x20 SHL PUSH1 0x20 SHR JUMP JUMPDEST JUMP JUMPDEST PUSH1 0x40 DUP1 MLOAD PUSH1 0xC0 DUP2 ADD DUP3 MSTORE PUSH1 0x13 PUSH1 0x80 DUP3 ADD SWAP1 DUP2 MSTORE PUSH32 0x32782053636F7265204D756C7469706C69657200000000000000000000000000 PUSH1 0xA0 DUP4 ADD MSTORE DUP2 MSTORE PUSH8 0xD02AB486CEDC0000 PUSH1 0x20 DUP1 DUP4 ADD SWAP2 SWAP1 SWAP2 MSTORE PUSH2 0x708 SWAP3 DUP3 ADD SWAP3 SWAP1 SWAP3 MSTORE PUSH1 0x1 PUSH1 0x60 DUP3 ADD MSTORE PUSH1 0x0 DUP1 MSTORE PUSH1 0x9 SWAP1 SWAP2 MSTORE DUP1 MLOAD PUSH32 0xEC8156718A8372B1DB44BB411437D0870F3E3790D4A08526D024CE1B0B668F6B SWAP1 DUP2 SWAP1 PUSH3 0x78F SWAP1 DUP3 PUSH3 0xC28 JUMP JUMPDEST POP PUSH1 0x20 DUP3 DUP2 ADD MLOAD PUSH1 0x1 DUP4 DUP2 ADD SWAP2 SWAP1 SWAP2 SSTORE PUSH1 0x40 DUP1 DUP6 ADD MLOAD PUSH1 0x2 DUP6 ADD SSTORE PUSH1 0x60 SWAP5 DUP6 ADD MLOAD PUSH1 0x3 SWAP1 SWAP5 ADD DUP1 SLOAD PUSH1 0xFF NOT AND SWAP5 ISZERO ISZERO SWAP5 SWAP1 SWAP5 OR SWAP1 SWAP4 SSTORE DUP3 MLOAD PUSH1 0xC0 DUP2 ADD DUP5 MSTORE PUSH1 0xA PUSH1 0x80 DUP3 ADD SWAP1 DUP2 MSTORE PUSH10 0x52617069642046697265 PUSH1 0xB0 SHL PUSH1 0xA0 DUP4 ADD MSTORE DUP2 MSTORE PUSH8 0x8AC7230489E80000 DUP2 DUP5 ADD MSTORE PUSH2 0xE10 SWAP4 DUP2 ADD SWAP4 SWAP1 SWAP4 MSTORE SWAP3 DUP3 ADD DUP4 SWAP1 MSTORE PUSH1 0x0 SWAP3 SWAP1 SWAP3 MSTORE PUSH1 0x9 SWAP1 SWAP2 MSTORE DUP1 MLOAD PUSH32 0x92E85D02570A8092D09A6E3A57665BC3815A2699A4074001BF1CCABF660F5A36 SWAP1 DUP2 SWAP1 PUSH3 0x845 SWAP1 DUP3 PUSH3 0xC28 JUMP JUMPDEST POP PUSH1 0x20 DUP3 DUP2 ADD MLOAD PUSH1 0x1 DUP4 DUP2 ADD SWAP2 SWAP1 SWAP2 SSTORE PUSH1 0x40 DUP1 DUP6 ADD MLOAD PUSH1 0x2 DUP1 DUP7 ADD SWAP2 SWAP1 SWAP2 SSTORE PUSH1 0x60 SWAP6 DUP7 ADD MLOAD PUSH1 0x3 SWAP1 SWAP6 ADD DUP1 SLOAD PUSH1 0xFF NOT AND SWAP6 ISZERO ISZERO SWAP6 SWAP1 SWAP6 OR SWAP1 SWAP5 SSTORE DUP1 MLOAD PUSH1 0xC0 DUP2 ADD DUP3 MSTORE PUSH1 0xD PUSH1 0x80 DUP3 ADD SWAP1 DUP2 MSTORE PUSH13 0x115B995C99DE4814DA1A595B19 PUSH1 0x9A SHL PUSH1 0xA0 DUP4 ADD MSTORE DUP2 MSTORE PUSH8 0xA688906BD8B00000 DUP2 DUP6 ADD MSTORE PUSH2 0xA8C SWAP2 DUP2 ADD SWAP2 SWAP1 SWAP2 MSTORE SWAP4 DUP5 ADD MSTORE PUSH1 0x0 SWAP2 SWAP1 SWAP2 MSTORE PUSH1 0x9 SWAP1 MSTORE DUP1 MLOAD PUSH32 0x6CDE3CEA4B3A3FB2488B2808BAE7556F4A405E50F65E1794383BC026131B13C3 SWAP1 DUP2 SWAP1 PUSH3 0x8FF SWAP1 DUP3 PUSH3 0xC28 JUMP JUMPDEST POP PUSH1 0x20 DUP3 DUP2 ADD MLOAD PUSH1 0x1 DUP4 DUP2 ADD SWAP2 SWAP1 SWAP2 SSTORE PUSH1 0x40 DUP1 DUP6 ADD MLOAD PUSH1 0x2 DUP6 ADD SSTORE PUSH1 0x60 SWAP5 DUP6 ADD MLOAD PUSH1 0x3 SWAP5 DUP6 ADD DUP1 SLOAD PUSH1 0xFF NOT AND SWAP2 ISZERO ISZERO SWAP2 SWAP1 SWAP2 OR SWAP1 SSTORE DUP1 MLOAD PUSH1 0xC0 DUP2 ADD DUP3 MSTORE PUSH1 0xA PUSH1 0x80 DUP3 ADD SWAP1 DUP2 MSTORE PUSH10 0x135D5B1D1A4B54DA1BDD PUSH1 0xB2 SHL PUSH1 0xA0 DUP4 ADD MSTORE DUP2 MSTORE PUSH8 0x6F05B59D3B200000 DUP2 DUP6 ADD MSTORE PUSH2 0x708 SWAP2 DUP2 ADD SWAP2 SWAP1 SWAP2 MSTORE SWAP4 DUP5 ADD MSTORE PUSH1 0x0 SWAP2 SWAP1 SWAP2 MSTORE PUSH1 0x9 SWAP1 MSTORE DUP1 MLOAD PUSH32 0xC575C31FEA594A6EB97C8E9D3F9CAEE4C16218C6EF37E923234C0FE9014A61E7 SWAP1 DUP2 SWAP1 PUSH3 0x9B1 SWAP1 DUP3 PUSH3 0xC28 JUMP JUMPDEST POP PUSH1 0x20 DUP3 DUP2 ADD MLOAD PUSH1 0x1 DUP4 DUP2 ADD SWAP2 SWAP1 SWAP2 SSTORE PUSH1 0x40 DUP1 DUP6 ADD MLOAD PUSH1 0x2 DUP6 ADD SSTORE PUSH1 0x60 SWAP5 DUP6 ADD MLOAD PUSH1 0x3 SWAP1 SWAP5 ADD DUP1 SLOAD PUSH1 0xFF NOT AND SWAP5 ISZERO ISZERO SWAP5 SWAP1 SWAP5 OR SWAP1 SWAP4 SSTORE DUP3 MLOAD PUSH1 0xC0 DUP2 ADD DUP5 MSTORE PUSH1 0xA PUSH1 0x80 DUP3 ADD SWAP1 DUP2 MSTORE PUSH10 0x4578747261204C696665 PUSH1 0xB0 SHL PUSH1 0xA0 DUP4 ADD MSTORE DUP2 MSTORE PUSH9 0x15AF1D78B58C40000 DUP2 DUP5 ADD MSTORE PUSH1 0x0 SWAP4 DUP2 ADD DUP5 SWAP1 MSTORE SWAP4 DUP5 ADD MSTORE PUSH1 0x4 SWAP1 SWAP2 MSTORE PUSH1 0x9 SWAP1 MSTORE DUP1 MLOAD PUSH32 0x8DC18C4CCFD75F5C815B63770FA542FD953E8FEF7E0E44BBDD4913470CE7E9CB SWAP1 DUP2 SWAP1 PUSH3 0xA62 SWAP1 DUP3 PUSH3 0xC28 JUMP JUMPDEST POP PUSH1 0x20 DUP3 ADD MLOAD PUSH1 0x1 DUP3 ADD SSTORE PUSH1 0x40 DUP3 ADD MLOAD PUSH1 0x2 DUP3 ADD SSTORE PUSH1 0x60 SWAP1 SWAP2 ADD MLOAD PUSH1 0x3 SWAP1 SWAP2 ADD DUP1 SLOAD PUSH1 0xFF NOT AND SWAP2 ISZERO ISZERO SWAP2 SWAP1 SWAP2 OR SWAP1 SSTORE PUSH1 0x5 PUSH1 0xB SSTORE JUMP JUMPDEST PUSH1 0x40 DUP1 MLOAD PUSH1 0xA0 DUP2 ADD DUP3 MSTORE DUP6 DUP2 MSTORE PUSH1 0x20 DUP1 DUP3 ADD DUP7 SWAP1 MSTORE DUP2 DUP4 ADD DUP6 SWAP1 MSTORE PUSH1 0xFF DUP5 AND PUSH1 0x60 DUP4 ADD MSTORE PUSH1 0x1 PUSH1 0x80 DUP4 ADD MSTORE PUSH1 0xE SLOAD PUSH1 0x0 SWAP1 DUP2 MSTORE PUSH1 0x2 SWAP1 SWAP2 MSTORE SWAP2 SWAP1 SWAP2 KECCAK256 DUP2 MLOAD DUP2 SWAP1 PUSH3 0xAE4 SWAP1 DUP3 PUSH3 0xC28 JUMP JUMPDEST POP PUSH1 0x20 DUP3 ADD MLOAD PUSH1 0x1 DUP3 ADD SWAP1 PUSH3 0xAFB SWAP1 DUP3 PUSH3 0xC28 JUMP JUMPDEST POP PUSH1 0x40 DUP3 ADD MLOAD PUSH1 0x2 DUP3 ADD SSTORE PUSH1 0x60 DUP3 ADD MLOAD PUSH1 0x3 SWAP1 SWAP2 ADD DUP1 SLOAD PUSH1 0x80 SWAP1 SWAP4 ADD MLOAD ISZERO ISZERO PUSH2 0x100 MUL PUSH2 0xFFFF NOT SWAP1 SWAP4 AND PUSH1 0xFF SWAP1 SWAP3 AND SWAP2 SWAP1 SWAP2 OR SWAP2 SWAP1 SWAP2 OR SWAP1 SSTORE PUSH1 0xE DUP1 SLOAD SWAP1 PUSH1 0x0 PUSH3 0xB46 DUP4 PUSH3 0xCF4 JUMP JUMPDEST SWAP2 SWAP1 POP SSTORE POP POP POP POP POP JUMP JUMPDEST PUSH1 0x0 PUSH1 0x20 DUP3 DUP5 SUB SLT ISZERO PUSH3 0xB64 JUMPI PUSH1 0x0 DUP1 REVERT JUMPDEST DUP2 MLOAD PUSH1 0x1 PUSH1 0x1 PUSH1 0xA0 SHL SUB DUP2 AND DUP2 EQ PUSH3 0xB7C JUMPI PUSH1 0x0 DUP1 REVERT JUMPDEST SWAP4 SWAP3 POP POP POP JUMP JUMPDEST PUSH4 0x4E487B71 PUSH1 0xE0 SHL PUSH1 0x0 MSTORE PUSH1 0x41 PUSH1 0x4 MSTORE PUSH1 0x24 PUSH1 0x0 REVERT JUMPDEST PUSH1 0x1 DUP2 DUP2 SHR SWAP1 DUP3 AND DUP1 PUSH3 0xBAE JUMPI PUSH1 0x7F DUP3 AND SWAP2 POP JUMPDEST PUSH1 0x20 DUP3 LT DUP2 SUB PUSH3 0xBCF JUMPI PUSH4 0x4E487B71 PUSH1 0xE0 SHL PUSH1 0x0 MSTORE PUSH1 0x22 PUSH1 0x4 MSTORE PUSH1 0x24 PUSH1 0x0 REVERT JUMPDEST POP SWAP2 SWAP1 POP JUMP JUMPDEST PUSH1 0x1F DUP3 GT ISZERO PUSH3 0xC23 JUMPI PUSH1 0x0 DUP2 DUP2 MSTORE PUSH1 0x20 DUP2 KECCAK256 PUSH1 0x1F DUP6 ADD PUSH1 0x5 SHR DUP2 ADD PUSH1 0x20 DUP7 LT ISZERO PUSH3 0xBFE JUMPI POP DUP1 JUMPDEST PUSH1 0x1F DUP6 ADD PUSH1 0x5 SHR DUP3 ADD SWAP2 POP JUMPDEST DUP2 DUP2 LT ISZERO PUSH3 0xC1F JUMPI DUP3 DUP2 SSTORE PUSH1 0x1 ADD PUSH3 0xC0A JUMP JUMPDEST POP POP POP JUMPDEST POP POP POP JUMP JUMPDEST DUP2 MLOAD PUSH1 0x1 PUSH1 0x1 PUSH1 0x40 SHL SUB DUP2 GT ISZERO PUSH3 0xC44 JUMPI PUSH3 0xC44 PUSH3 0xB83 JUMP JUMPDEST PUSH3 0xC5C DUP2 PUSH3 0xC55 DUP5 SLOAD PUSH3 0xB99 JUMP JUMPDEST DUP5 PUSH3 0xBD5 JUMP JUMPDEST PUSH1 0x20 DUP1 PUSH1 0x1F DUP4 GT PUSH1 0x1 DUP2 EQ PUSH3 0xC94 JUMPI PUSH1 0x0 DUP5 ISZERO PUSH3 0xC7B JUMPI POP DUP6 DUP4 ADD MLOAD JUMPDEST PUSH1 0x0 NOT PUSH1 0x3 DUP7 SWAP1 SHL SHR NOT AND PUSH1 0x1 DUP6 SWAP1 SHL OR DUP6 SSTORE PUSH3 0xC1F JUMP JUMPDEST PUSH1 0x0 DUP6 DUP2 MSTORE PUSH1 0x20 DUP2 KECCAK256 PUSH1 0x1F NOT DUP7 AND SWAP2 JUMPDEST DUP3 DUP2 LT ISZERO PUSH3 0xCC5 JUMPI DUP9 DUP7 ADD MLOAD DUP3 SSTORE SWAP5 DUP5 ADD SWAP5 PUSH1 0x1 SWAP1 SWAP2 ADD SWAP1 DUP5 ADD PUSH3 0xCA4 JUMP JUMPDEST POP DUP6 DUP3 LT ISZERO PUSH3 0xCE4 JUMPI DUP8 DUP6 ADD MLOAD PUSH1 0x0 NOT PUSH1 0x3 DUP9 SWAP1 SHL PUSH1 0xF8 AND SHR NOT AND DUP2 SSTORE JUMPDEST POP POP POP POP POP PUSH1 0x1 SWAP1 DUP2 SHL ADD SWAP1 SSTORE POP JUMP JUMPDEST PUSH1 0x0 PUSH1 0x1 DUP3 ADD PUSH3 0xD15 JUMPI PUSH4 0x4E487B71 PUSH1 0xE0 SHL PUSH1 0x0 MSTORE PUSH1 0x11 PUSH1 0x4 MSTORE PUSH1 0x24 PUSH1 0x0 REVERT JUMPDEST POP PUSH1 0x1 ADD SWAP1 JUMP JUMPDEST PUSH2 0x3C22 DUP1 PUSH3 0xD2C PUSH1 0x0 CODECOPY PUSH1 0x0 RETURN INVALID PUSH1 0x80 PUSH1 0x40 MSTORE CALLVALUE DUP1 ISZERO PUSH2 0x10 JUMPI PUSH1 0x0 DUP1 REVERT JUMPDEST POP PUSH1 0x4 CALLDATASIZE LT PUSH2 0x30C JUMPI PUSH1 0x0 CALLDATALOAD PUSH1 0xE0 SHR DUP1 PUSH4 0x7CC1F867 GT PUSH2 0x19D JUMPI DUP1 PUSH4 0xA697CB0E GT PUSH2 0xE9 JUMPI DUP1 PUSH4 0xCDAFBBB6 GT PUSH2 0xA2 JUMPI DUP1 PUSH4 0xE4649EAF GT PUSH2 0x7C JUMPI DUP1 PUSH4 0xE4649EAF EQ PUSH2 0x82D JUMPI DUP1 PUSH4 0xF020044F EQ PUSH2 0x840 JUMPI DUP1 PUSH4 0xF0860C01 EQ PUSH2 0x854 JUMPI DUP1 PUSH4 0xF2FDE38B EQ PUSH2 0x85C JUMPI PUSH1 0x0 DUP1 REVERT JUMPDEST DUP1 PUSH4 0xCDAFBBB6 EQ PUSH2 0x7A7 JUMPI DUP1 PUSH4 0xDB877142 EQ PUSH2 0x812 JUMPI DUP1 PUSH4 0xDEFFAE5B EQ PUSH2 0x81A JUMPI PUSH1 0x0 DUP1 REVERT JUMPDEST DUP1 PUSH4 0xA697CB0E EQ PUSH2 0x744 JUMPI DUP1 PUSH4 0xB162F257 EQ PUSH2 0x757 JUMPI DUP1 PUSH4 0xB55F108F EQ PUSH2 0x76A JUMPI DUP1 PUSH4 0xBEE1FFB7 EQ PUSH2 0x77D JUMPI DUP1 PUSH4 0xC3BBE5FC EQ PUSH2 0x786 JUMPI DUP1 PUSH4 0xCCF1B68C EQ PUSH2 0x794 JUMPI PUSH1 0x0 DUP1 REVERT JUMPDEST DUP1 PUSH4 0x9CB1E729 GT PUSH2 0x156 JUMPI DUP1 PUSH4 0x9E8A4DD3 GT PUSH2 0x130 JUMPI DUP1 PUSH4 0x9E8A4DD3 EQ PUSH2 0x6DD JUMPI DUP1 PUSH4 0xA0EC242A EQ PUSH2 0x709 JUMPI DUP1 PUSH4 0xA4365476 EQ PUSH2 0x711 JUMPI DUP1 PUSH4 0xA59B33D8 EQ PUSH2 0x731 JUMPI PUSH1 0x0 DUP1 REVERT JUMPDEST DUP1 PUSH4 0x9CB1E729 EQ PUSH2 0x67A JUMPI DUP1 PUSH4 0x9CE67BDD EQ PUSH2 0x68F JUMPI DUP1 PUSH4 0x9E123201 EQ PUSH2 0x6AF JUMPI PUSH1 0x0 DUP1 REVERT JUMPDEST DUP1 PUSH4 0x7CC1F867 EQ PUSH2 0x5B2 JUMPI DUP1 PUSH4 0x8B8C21D7 EQ PUSH2 0x600 JUMPI DUP1 PUSH4 0x8CC5FA04 EQ PUSH2 0x62B JUMPI DUP1 PUSH4 0x8DA5CB5B EQ PUSH2 0x634 JUMPI DUP1 PUSH4 0x968FFE34 EQ PUSH2 0x647 JUMPI DUP1 PUSH4 0x9B2E0E98 EQ PUSH2 0x667 JUMPI PUSH1 0x0 DUP1 REVERT JUMPDEST DUP1 PUSH4 0x4FD66EAE GT PUSH2 0x25C JUMPI DUP1 PUSH4 0x66C09668 GT PUSH2 0x215 JUMPI DUP1 PUSH4 0x73055BC3 GT PUSH2 0x1EF JUMPI DUP1 PUSH4 0x73055BC3 EQ PUSH2 0x54A JUMPI DUP1 PUSH4 0x76302A57 EQ PUSH2 0x55D JUMPI DUP1 PUSH4 0x7725A9FB EQ PUSH2 0x57D JUMPI DUP1 PUSH4 0x790B3228 EQ PUSH2 0x592 JUMPI PUSH1 0x0 DUP1 REVERT JUMPDEST DUP1 PUSH4 0x66C09668 EQ PUSH2 0x4F4 JUMPI DUP1 PUSH4 0x7225D340 EQ PUSH2 0x517 JUMPI DUP1 PUSH4 0x72AF7EA2 EQ PUSH2 0x52A JUMPI PUSH1 0x0 DUP1 REVERT JUMPDEST DUP1 PUSH4 0x4FD66EAE EQ PUSH2 0x47D JUMPI DUP1 PUSH4 0x50691505 EQ PUSH2 0x49D JUMPI DUP1 PUSH4 0x51858E27 EQ PUSH2 0x4B0 JUMPI DUP1 PUSH4 0x5C492129 EQ PUSH2 0x4B8 JUMPI DUP1 PUSH4 0x5CA9E380 EQ PUSH2 0x4C1 JUMPI DUP1 PUSH4 0x61D8B34D EQ PUSH2 0x4E4 JUMPI PUSH1 0x0 DUP1 REVERT JUMPDEST DUP1 PUSH4 0x1B3E4DB1 GT PUSH2 0x2C9 JUMPI DUP1 PUSH4 0x33B2641F GT PUSH2 0x2A3 JUMPI DUP1 PUSH4 0x33B2641F EQ PUSH2 0x444 JUMPI DUP1 PUSH4 0x3C4F5A66 EQ PUSH2 0x44C JUMPI DUP1 PUSH4 0x3FAE3508 EQ PUSH2 0x461 JUMPI DUP1 PUSH4 0x4443993A EQ PUSH2 0x474 JUMPI PUSH1 0x0 DUP1 REVERT JUMPDEST DUP1 PUSH4 0x1B3E4DB1 EQ PUSH2 0x3F3 JUMPI DUP1 PUSH4 0x27AED72E EQ PUSH2 0x3FB JUMPI DUP1 PUSH4 0x330AB49A EQ PUSH2 0x41F JUMPI PUSH1 0x0 DUP1 REVERT JUMPDEST DUP1 PUSH4 0x1650E74 EQ PUSH2 0x311 JUMPI DUP1 PUSH4 0x252B995 EQ PUSH2 0x326 JUMPI DUP1 PUSH4 0x13A5CEDE EQ PUSH2 0x342 JUMPI DUP1 PUSH4 0x1417B82A EQ PUSH2 0x362 JUMPI DUP1 PUSH4 0x18889109 EQ PUSH2 0x3A0 JUMPI DUP1 PUSH4 0x1AFF30DD EQ PUSH2 0x3CB JUMPI JUMPDEST PUSH1 0x0 DUP1 REVERT JUMPDEST PUSH2 0x324 PUSH2 0x31F CALLDATASIZE PUSH1 0x4 PUSH2 0x30F9 JUMP JUMPDEST PUSH2 0x86F JUMP JUMPDEST STOP JUMPDEST PUSH2 0x32F PUSH1 0x12 SLOAD DUP2 JUMP JUMPDEST PUSH1 0x40 MLOAD SWAP1 DUP2 MSTORE PUSH1 0x20 ADD JUMPDEST PUSH1 0x40 MLOAD DUP1 SWAP2 SUB SWAP1 RETURN JUMPDEST PUSH2 0x355 PUSH2 0x350 CALLDATASIZE PUSH1 0x4 PUSH2 0x312E JUMP JUMPDEST PUSH2 0xA72 JUMP JUMPDEST PUSH1 0x40 MLOAD PUSH2 0x339 SWAP2 SWAP1 PUSH2 0x318F JUMP JUMPDEST PUSH2 0x390 PUSH2 0x370 CALLDATASIZE PUSH1 0x4 PUSH2 0x312E JUMP JUMPDEST PUSH1 0x1 PUSH1 0x1 PUSH1 0xA0 SHL SUB AND PUSH1 0x0 SWAP1 DUP2 MSTORE PUSH1 0x20 DUP2 SWAP1 MSTORE PUSH1 0x40 SWAP1 KECCAK256 PUSH1 0x1 ADD SLOAD ISZERO ISZERO SWAP1 JUMP JUMPDEST PUSH1 0x40 MLOAD SWAP1 ISZERO ISZERO DUP2 MSTORE PUSH1 0x20 ADD PUSH2 0x339 JUMP JUMPDEST PUSH1 0x6 SLOAD PUSH2 0x3B3 SWAP1 PUSH1 0x1 PUSH1 0x1 PUSH1 0xA0 SHL SUB AND DUP2 JUMP JUMPDEST PUSH1 0x40 MLOAD PUSH1 0x1 PUSH1 0x1 PUSH1 0xA0 SHL SUB SWAP1 SWAP2 AND DUP2 MSTORE PUSH1 0x20 ADD PUSH2 0x339 JUMP JUMPDEST PUSH2 0x3D3 PUSH2 0xB0C JUMP JUMPDEST PUSH1 0x40 DUP1 MLOAD SWAP5 DUP6 MSTORE PUSH1 0x20 DUP6 ADD SWAP4 SWAP1 SWAP4 MSTORE SWAP2 DUP4 ADD MSTORE PUSH1 0x60 DUP3 ADD MSTORE PUSH1 0x80 ADD PUSH2 0x339 JUMP JUMPDEST PUSH1 0x3 SLOAD PUSH2 0x32F JUMP JUMPDEST PUSH2 0x40E PUSH2 0x409 CALLDATASIZE PUSH1 0x4 PUSH2 0x30F9 JUMP JUMPDEST PUSH2 0xB3A JUMP JUMPDEST PUSH1 0x40 MLOAD PUSH2 0x339 SWAP6 SWAP5 SWAP4 SWAP3 SWAP2 SWAP1 PUSH2 0x31A2 JUMP JUMPDEST PUSH2 0x432 PUSH2 0x42D CALLDATASIZE PUSH1 0x4 PUSH2 0x30F9 JUMP JUMPDEST PUSH2 0xC7F JUMP JUMPDEST PUSH1 0x40 MLOAD PUSH2 0x339 SWAP7 SWAP6 SWAP5 SWAP4 SWAP3 SWAP2 SWAP1 PUSH2 0x31EA JUMP JUMPDEST PUSH2 0x324 PUSH2 0xD66 JUMP JUMPDEST PUSH2 0x454 PUSH2 0xDB1 JUMP JUMPDEST PUSH1 0x40 MLOAD PUSH2 0x339 SWAP2 SWAP1 PUSH2 0x3236 JUMP JUMPDEST PUSH2 0x324 PUSH2 0x46F CALLDATASIZE PUSH1 0x4 PUSH2 0x3326 JUMP JUMPDEST PUSH2 0xE13 JUMP JUMPDEST PUSH2 0x32F PUSH1 0xE SLOAD DUP2 JUMP JUMPDEST PUSH2 0x490 PUSH2 0x48B CALLDATASIZE PUSH1 0x4 PUSH2 0x312E JUMP JUMPDEST PUSH2 0xF97 JUMP JUMPDEST PUSH1 0x40 MLOAD PUSH2 0x339 SWAP2 SWAP1 PUSH2 0x3398 JUMP JUMPDEST PUSH2 0x324 PUSH2 0x4AB CALLDATASIZE PUSH1 0x4 PUSH2 0x33F9 JUMP JUMPDEST PUSH2 0x10A1 JUMP JUMPDEST PUSH2 0x324 PUSH2 0x10DD JUMP JUMPDEST PUSH2 0x32F PUSH1 0xF SLOAD DUP2 JUMP JUMPDEST PUSH2 0x4D4 PUSH2 0x4CF CALLDATASIZE PUSH1 0x4 PUSH2 0x30F9 JUMP JUMPDEST PUSH2 0x1116 JUMP JUMPDEST PUSH1 0x40 MLOAD PUSH2 0x339 SWAP5 SWAP4 SWAP3 SWAP2 SWAP1 PUSH2 0x3477 JUMP JUMPDEST PUSH2 0x32F PUSH9 0x2B5E3AF16B1880000 DUP2 JUMP JUMPDEST PUSH2 0x390 PUSH2 0x502 CALLDATASIZE PUSH1 0x4 PUSH2 0x312E JUMP JUMPDEST PUSH1 0xC PUSH1 0x20 MSTORE PUSH1 0x0 SWAP1 DUP2 MSTORE PUSH1 0x40 SWAP1 KECCAK256 SLOAD PUSH1 0xFF AND DUP2 JUMP JUMPDEST PUSH2 0x324 PUSH2 0x525 CALLDATASIZE PUSH1 0x4 PUSH2 0x34A8 JUMP JUMPDEST PUSH2 0x11CB JUMP JUMPDEST PUSH2 0x53D PUSH2 0x538 CALLDATASIZE PUSH1 0x4 PUSH2 0x30F9 JUMP JUMPDEST PUSH2 0x176C JUMP JUMPDEST PUSH1 0x40 MLOAD PUSH2 0x339 SWAP2 SWAP1 PUSH2 0x355A JUMP JUMPDEST PUSH2 0x432 PUSH2 0x558 CALLDATASIZE PUSH1 0x4 PUSH2 0x356D JUMP JUMPDEST PUSH2 0x18B0 JUMP JUMPDEST PUSH2 0x32F PUSH2 0x56B CALLDATASIZE PUSH1 0x4 PUSH2 0x312E JUMP JUMPDEST PUSH1 0x8 PUSH1 0x20 MSTORE PUSH1 0x0 SWAP1 DUP2 MSTORE PUSH1 0x40 SWAP1 KECCAK256 SLOAD DUP2 JUMP JUMPDEST PUSH2 0x585 PUSH2 0x1922 JUMP JUMPDEST PUSH1 0x40 MLOAD PUSH2 0x339 SWAP2 SWAP1 PUSH2 0x3597 JUMP JUMPDEST PUSH2 0x32F PUSH2 0x5A0 CALLDATASIZE PUSH1 0x4 PUSH2 0x312E JUMP JUMPDEST PUSH1 0x7 PUSH1 0x20 MSTORE PUSH1 0x0 SWAP1 DUP2 MSTORE PUSH1 0x40 SWAP1 KECCAK256 SLOAD DUP2 JUMP JUMPDEST PUSH2 0x5F0 PUSH1 0x11 SLOAD PUSH1 0x12 SLOAD PUSH1 0x40 DUP1 MLOAD DUP1 DUP3 ADD SWAP1 SWAP2 MSTORE PUSH1 0x5 DUP2 MSTORE PUSH5 0x312E302E3 PUSH1 0xDC SHL PUSH1 0x20 DUP3 ADD MSTORE PUSH1 0x1 PUSH1 0x1 PUSH1 0xA0 SHL SUB DUP4 AND SWAP4 PUSH1 0x1 PUSH1 0xA0 SHL SWAP1 SWAP4 DIV PUSH1 0xFF AND SWAP3 JUMP JUMPDEST PUSH1 0x40 MLOAD PUSH2 0x339 SWAP5 SWAP4 SWAP3 SWAP2 SWAP1 PUSH2 0x3641 JUMP JUMPDEST PUSH2 0x32F PUSH2 0x60E CALLDATASIZE PUSH1 0x4 PUSH2 0x356D JUMP JUMPDEST PUSH1 0xA PUSH1 0x20 SWAP1 DUP2 MSTORE PUSH1 0x0 SWAP3 DUP4 MSTORE PUSH1 0x40 DUP1 DUP5 KECCAK256 SWAP1 SWAP2 MSTORE SWAP1 DUP3 MSTORE SWAP1 KECCAK256 SLOAD DUP2 JUMP JUMPDEST PUSH2 0x32F PUSH1 0xB SLOAD DUP2 JUMP JUMPDEST PUSH1 0x11 SLOAD PUSH2 0x3B3 SWAP1 PUSH1 0x1 PUSH1 0x1 PUSH1 0xA0 SHL SUB AND DUP2 JUMP JUMPDEST PUSH2 0x65A PUSH2 0x655 CALLDATASIZE PUSH1 0x4 PUSH2 0x30F9 JUMP JUMPDEST PUSH2 0x1B55 JUMP JUMPDEST PUSH1 0x40 MLOAD PUSH2 0x339 SWAP2 SWAP1 PUSH2 0x367A JUMP JUMPDEST PUSH2 0x324 PUSH2 0x675 CALLDATASIZE PUSH1 0x4 PUSH2 0x30F9 JUMP JUMPDEST PUSH2 0x1D52 JUMP JUMPDEST PUSH2 0x682 PUSH2 0x1E41 JUMP JUMPDEST PUSH1 0x40 MLOAD PUSH2 0x339 SWAP2 SWAP1 PUSH2 0x371B JUMP JUMPDEST PUSH2 0x6A2 PUSH2 0x69D CALLDATASIZE PUSH1 0x4 PUSH2 0x312E JUMP JUMPDEST PUSH2 0x1FCE JUMP JUMPDEST PUSH1 0x40 MLOAD PUSH2 0x339 SWAP2 SWAP1 PUSH2 0x377D JUMP JUMPDEST PUSH2 0x6C2 PUSH2 0x6BD CALLDATASIZE PUSH1 0x4 PUSH2 0x312E JUMP JUMPDEST PUSH2 0x205B JUMP JUMPDEST PUSH1 0x40 DUP1 MLOAD SWAP4 DUP5 MSTORE PUSH1 0x20 DUP5 ADD SWAP3 SWAP1 SWAP3 MSTORE SWAP1 DUP3 ADD MSTORE PUSH1 0x60 ADD PUSH2 0x339 JUMP JUMPDEST PUSH2 0x390 PUSH2 0x6EB CALLDATASIZE PUSH1 0x4 PUSH2 0x312E JUMP JUMPDEST PUSH1 0x1 PUSH1 0x1 PUSH1 0xA0 SHL SUB AND PUSH1 0x0 SWAP1 DUP2 MSTORE PUSH1 0xC PUSH1 0x20 MSTORE PUSH1 0x40 SWAP1 KECCAK256 SLOAD PUSH1 0xFF AND SWAP1 JUMP JUMPDEST PUSH2 0x32F PUSH1 0x5 DUP2 JUMP JUMPDEST PUSH2 0x32F PUSH2 0x71F CALLDATASIZE PUSH1 0x4 PUSH2 0x312E JUMP JUMPDEST PUSH1 0x5 PUSH1 0x20 MSTORE PUSH1 0x0 SWAP1 DUP2 MSTORE PUSH1 0x40 SWAP1 KECCAK256 SLOAD DUP2 JUMP JUMPDEST PUSH2 0x324 PUSH2 0x73F CALLDATASIZE PUSH1 0x4 PUSH2 0x312E JUMP JUMPDEST PUSH2 0x210A JUMP JUMPDEST PUSH2 0x32F PUSH2 0x752 CALLDATASIZE PUSH1 0x4 PUSH2 0x312E JUMP JUMPDEST PUSH2 0x2156 JUMP JUMPDEST PUSH2 0x65A PUSH2 0x765 CALLDATASIZE PUSH1 0x4 PUSH2 0x312E JUMP JUMPDEST PUSH2 0x2227 JUMP JUMPDEST PUSH2 0x3B3 PUSH2 0x778 CALLDATASIZE PUSH1 0x4 PUSH2 0x30F9 JUMP JUMPDEST PUSH2 0x2374 JUMP JUMPDEST PUSH2 0x32F PUSH1 0x10 SLOAD DUP2 JUMP JUMPDEST PUSH2 0x32F PUSH7 0x2386F26FC10000 DUP2 JUMP JUMPDEST PUSH2 0x390 PUSH2 0x7A2 CALLDATASIZE PUSH1 0x4 PUSH2 0x356D JUMP JUMPDEST PUSH2 0x239E JUMP JUMPDEST PUSH2 0x7E7 PUSH2 0x7B5 CALLDATASIZE PUSH1 0x4 PUSH2 0x312E JUMP JUMPDEST PUSH1 0x0 PUSH1 0x20 DUP2 SWAP1 MSTORE SWAP1 DUP2 MSTORE PUSH1 0x40 SWAP1 KECCAK256 DUP1 SLOAD PUSH1 0x1 DUP3 ADD SLOAD PUSH1 0x2 DUP4 ADD SLOAD PUSH1 0x3 DUP5 ADD SLOAD PUSH1 0x4 SWAP1 SWAP5 ADD SLOAD SWAP3 SWAP4 SWAP2 SWAP3 SWAP1 SWAP2 PUSH1 0xFF AND SWAP1 DUP6 JUMP JUMPDEST PUSH1 0x40 DUP1 MLOAD SWAP6 DUP7 MSTORE PUSH1 0x20 DUP7 ADD SWAP5 SWAP1 SWAP5 MSTORE SWAP3 DUP5 ADD SWAP2 SWAP1 SWAP2 MSTORE PUSH1 0xFF AND PUSH1 0x60 DUP4 ADD MSTORE PUSH1 0x80 DUP3 ADD MSTORE PUSH1 0xA0 ADD PUSH2 0x339 JUMP JUMPDEST PUSH2 0x32F PUSH1 0x64 DUP2 JUMP JUMPDEST PUSH2 0x324 PUSH2 0x828 CALLDATASIZE PUSH1 0x4 PUSH2 0x30F9 JUMP JUMPDEST PUSH2 0x23CB JUMP JUMPDEST PUSH2 0x324 PUSH2 0x83B CALLDATASIZE PUSH1 0x4 PUSH2 0x3790 JUMP JUMPDEST PUSH2 0x245B JUMP JUMPDEST PUSH1 0x11 SLOAD PUSH2 0x390 SWAP1 PUSH1 0x1 PUSH1 0xA0 SHL SWAP1 DIV PUSH1 0xFF AND DUP2 JUMP JUMPDEST PUSH1 0xE SLOAD PUSH2 0x32F JUMP JUMPDEST PUSH2 0x324 PUSH2 0x86A CALLDATASIZE PUSH1 0x4 PUSH2 0x312E JUMP JUMPDEST PUSH2 0x250F JUMP JUMPDEST PUSH1 0xB SLOAD DUP2 LT PUSH2 0x8B7 JUMPI PUSH1 0x40 MLOAD PUSH3 0x461BCD PUSH1 0xE5 SHL DUP2 MSTORE PUSH1 0x20 PUSH1 0x4 DUP3 ADD MSTORE PUSH1 0xF PUSH1 0x24 DUP3 ADD MSTORE PUSH15 0x125B9D985B1A59081A5D195B481251 PUSH1 0x8A SHL PUSH1 0x44 DUP3 ADD MSTORE PUSH1 0x64 ADD JUMPDEST PUSH1 0x40 MLOAD DUP1 SWAP2 SUB SWAP1 REVERT JUMPDEST PUSH1 0x0 DUP2 DUP2 MSTORE PUSH1 0x9 PUSH1 0x20 MSTORE PUSH1 0x40 SWAP1 KECCAK256 PUSH1 0x3 ADD SLOAD PUSH1 0xFF AND PUSH2 0x90D JUMPI PUSH1 0x40 MLOAD PUSH3 0x461BCD PUSH1 0xE5 SHL DUP2 MSTORE PUSH1 0x20 PUSH1 0x4 DUP3 ADD MSTORE PUSH1 0x12 PUSH1 0x24 DUP3 ADD MSTORE PUSH18 0x4974656D206E6F7420617661696C61626C65 PUSH1 0x70 SHL PUSH1 0x44 DUP3 ADD MSTORE PUSH1 0x64 ADD PUSH2 0x8AE JUMP JUMPDEST PUSH1 0x0 DUP2 DUP2 MSTORE PUSH1 0x9 PUSH1 0x20 MSTORE PUSH1 0x40 SWAP1 DUP2 SWAP1 KECCAK256 PUSH1 0x1 ADD SLOAD PUSH1 0x6 SLOAD SWAP2 MLOAD PUSH4 0x23B872DD PUSH1 0xE0 SHL DUP2 MSTORE CALLER PUSH1 0x4 DUP3 ADD MSTORE ADDRESS PUSH1 0x24 DUP3 ADD MSTORE PUSH1 0x44 DUP2 ADD DUP3 SWAP1 MSTORE SWAP1 SWAP2 PUSH1 0x1 PUSH1 0x1 PUSH1 0xA0 SHL SUB AND SWAP1 PUSH4 0x23B872DD SWAP1 PUSH1 0x64 ADD PUSH1 0x20 PUSH1 0x40 MLOAD DUP1 DUP4 SUB DUP2 PUSH1 0x0 DUP8 GAS CALL ISZERO DUP1 ISZERO PUSH2 0x977 JUMPI RETURNDATASIZE PUSH1 0x0 DUP1 RETURNDATACOPY RETURNDATASIZE PUSH1 0x0 REVERT JUMPDEST POP POP POP POP PUSH1 0x40 MLOAD RETURNDATASIZE PUSH1 0x1F NOT PUSH1 0x1F DUP3 ADD AND DUP3 ADD DUP1 PUSH1 0x40 MSTORE POP DUP2 ADD SWAP1 PUSH2 0x99B SWAP2 SWAP1 PUSH2 0x37DE JUMP JUMPDEST PUSH2 0x9D8 JUMPI PUSH1 0x40 MLOAD PUSH3 0x461BCD PUSH1 0xE5 SHL DUP2 MSTORE PUSH1 0x20 PUSH1 0x4 DUP3 ADD MSTORE PUSH1 0xE PUSH1 0x24 DUP3 ADD MSTORE PUSH14 0x14185E5B595B9D0819985A5B1959 PUSH1 0x92 SHL PUSH1 0x44 DUP3 ADD MSTORE PUSH1 0x64 ADD PUSH2 0x8AE JUMP JUMPDEST CALLER PUSH1 0x0 SWAP1 DUP2 MSTORE PUSH1 0x8 PUSH1 0x20 MSTORE PUSH1 0x40 DUP2 KECCAK256 DUP1 SLOAD DUP4 SWAP3 SWAP1 PUSH2 0x9F7 SWAP1 DUP5 SWAP1 PUSH2 0x3816 JUMP JUMPDEST SWAP1 SWAP2 SSTORE POP POP PUSH1 0x0 DUP3 DUP2 MSTORE PUSH1 0x9 PUSH1 0x20 MSTORE PUSH1 0x40 SWAP1 KECCAK256 PUSH1 0x2 ADD SLOAD ISZERO PUSH2 0xA4E JUMPI PUSH1 0x0 DUP3 DUP2 MSTORE PUSH1 0x9 PUSH1 0x20 MSTORE PUSH1 0x40 SWAP1 KECCAK256 PUSH1 0x2 ADD SLOAD PUSH2 0xA2F SWAP1 TIMESTAMP PUSH2 0x3816 JUMP JUMPDEST CALLER PUSH1 0x0 SWAP1 DUP2 MSTORE PUSH1 0xA PUSH1 0x20 SWAP1 DUP2 MSTORE PUSH1 0x40 DUP1 DUP4 KECCAK256 DUP7 DUP5 MSTORE SWAP1 SWAP2 MSTORE SWAP1 KECCAK256 SSTORE POP POP JUMP JUMPDEST CALLER PUSH1 0x0 SWAP1 DUP2 MSTORE PUSH1 0xA PUSH1 0x20 SWAP1 DUP2 MSTORE PUSH1 0x40 DUP1 DUP4 KECCAK256 DUP6 DUP5 MSTORE SWAP1 SWAP2 MSTORE SWAP1 KECCAK256 PUSH1 0x0 NOT SWAP1 SSTORE JUMPDEST POP POP JUMP JUMPDEST PUSH1 0xD PUSH1 0x20 MSTORE PUSH1 0x0 SWAP1 DUP2 MSTORE PUSH1 0x40 SWAP1 KECCAK256 DUP1 SLOAD PUSH2 0xA8B SWAP1 PUSH2 0x3829 JUMP JUMPDEST DUP1 PUSH1 0x1F ADD PUSH1 0x20 DUP1 SWAP2 DIV MUL PUSH1 0x20 ADD PUSH1 0x40 MLOAD SWAP1 DUP2 ADD PUSH1 0x40 MSTORE DUP1 SWAP3 SWAP2 SWAP1 DUP2 DUP2 MSTORE PUSH1 0x20 ADD DUP3 DUP1 SLOAD PUSH2 0xAB7 SWAP1 PUSH2 0x3829 JUMP JUMPDEST DUP1 ISZERO PUSH2 0xB04 JUMPI DUP1 PUSH1 0x1F LT PUSH2 0xAD9 JUMPI PUSH2 0x100 DUP1 DUP4 SLOAD DIV MUL DUP4 MSTORE SWAP2 PUSH1 0x20 ADD SWAP2 PUSH2 0xB04 JUMP JUMPDEST DUP3 ADD SWAP2 SWAP1 PUSH1 0x0 MSTORE PUSH1 0x20 PUSH1 0x0 KECCAK256 SWAP1 JUMPDEST DUP2 SLOAD DUP2 MSTORE SWAP1 PUSH1 0x1 ADD SWAP1 PUSH1 0x20 ADD DUP1 DUP4 GT PUSH2 0xAE7 JUMPI DUP3 SWAP1 SUB PUSH1 0x1F AND DUP3 ADD SWAP2 JUMPDEST POP POP POP POP POP DUP2 JUMP JUMPDEST PUSH1 0x0 DUP1 PUSH1 0x0 DUP1 PUSH1 0xF SLOAD PUSH1 0x10 SLOAD PUSH1 0x3 DUP1 SLOAD SWAP1 POP PUSH1 0x12 SLOAD TIMESTAMP PUSH2 0xB2C SWAP2 SWAP1 PUSH2 0x385D JUMP JUMPDEST SWAP4 POP SWAP4 POP SWAP4 POP SWAP4 POP SWAP1 SWAP2 SWAP3 SWAP4 JUMP JUMPDEST PUSH1 0x2 PUSH1 0x20 MSTORE PUSH1 0x0 SWAP1 DUP2 MSTORE PUSH1 0x40 SWAP1 KECCAK256 DUP1 SLOAD DUP2 SWAP1 PUSH2 0xB55 SWAP1 PUSH2 0x3829 JUMP JUMPDEST DUP1 PUSH1 0x1F ADD PUSH1 0x20 DUP1 SWAP2 DIV MUL PUSH1 0x20 ADD PUSH1 0x40 MLOAD SWAP1 DUP2 ADD PUSH1 0x40 MSTORE DUP1 SWAP3 SWAP2 SWAP1 DUP2 DUP2 MSTORE PUSH1 0x20 ADD DUP3 DUP1 SLOAD PUSH2 0xB81 SWAP1 PUSH2 0x3829 JUMP JUMPDEST DUP1 ISZERO PUSH2 0xBCE JUMPI DUP1 PUSH1 0x1F LT PUSH2 0xBA3 JUMPI PUSH2 0x100 DUP1 DUP4 SLOAD DIV MUL DUP4 MSTORE SWAP2 PUSH1 0x20 ADD SWAP2 PUSH2 0xBCE JUMP JUMPDEST DUP3 ADD SWAP2 SWAP1 PUSH1 0x0 MSTORE PUSH1 0x20 PUSH1 0x0 KECCAK256 SWAP1 JUMPDEST DUP2 SLOAD DUP2 MSTORE SWAP1 PUSH1 0x1 ADD SWAP1 PUSH1 0x20 ADD DUP1 DUP4 GT PUSH2 0xBB1 JUMPI DUP3 SWAP1 SUB PUSH1 0x1F AND DUP3 ADD SWAP2 JUMPDEST POP POP POP POP POP SWAP1 DUP1 PUSH1 0x1 ADD DUP1 SLOAD PUSH2 0xBE3 SWAP1 PUSH2 0x3829 JUMP JUMPDEST DUP1 PUSH1 0x1F ADD PUSH1 0x20 DUP1 SWAP2 DIV MUL PUSH1 0x20 ADD PUSH1 0x40 MLOAD SWAP1 DUP2 ADD PUSH1 0x40 MSTORE DUP1 SWAP3 SWAP2 SWAP1 DUP2 DUP2 MSTORE PUSH1 0x20 ADD DUP3 DUP1 SLOAD PUSH2 0xC0F SWAP1 PUSH2 0x3829 JUMP JUMPDEST DUP1 ISZERO PUSH2 0xC5C JUMPI DUP1 PUSH1 0x1F LT PUSH2 0xC31 JUMPI PUSH2 0x100 DUP1 DUP4 SLOAD DIV MUL DUP4 MSTORE SWAP2 PUSH1 0x20 ADD SWAP2 PUSH2 0xC5C JUMP JUMPDEST DUP3 ADD SWAP2 SWAP1 PUSH1 0x0 MSTORE PUSH1 0x20 PUSH1 0x0 KECCAK256 SWAP1 JUMPDEST DUP2 SLOAD DUP2 MSTORE SWAP1 PUSH1 0x1 ADD SWAP1 PUSH1 0x20 ADD DUP1 DUP4 GT PUSH2 0xC3F JUMPI DUP3 SWAP1 SUB PUSH1 0x1F AND DUP3 ADD SWAP2 JUMPDEST POP POP POP POP PUSH1 0x2 DUP4 ADD SLOAD PUSH1 0x3 SWAP1 SWAP4 ADD SLOAD SWAP2 SWAP3 SWAP2 PUSH1 0xFF DUP1 DUP3 AND SWAP3 POP PUSH2 0x100 SWAP1 SWAP2 DIV AND DUP6 JUMP JUMPDEST PUSH1 0x3 DUP2 DUP2 SLOAD DUP2 LT PUSH2 0xC8F JUMPI PUSH1 0x0 DUP1 REVERT JUMPDEST PUSH1 0x0 SWAP2 DUP3 MSTORE PUSH1 0x20 SWAP1 SWAP2 KECCAK256 PUSH1 0x6 SWAP1 SWAP2 MUL ADD DUP1 SLOAD PUSH1 0x1 DUP3 ADD SLOAD PUSH1 0x2 DUP4 ADD SLOAD PUSH1 0x3 DUP5 ADD SLOAD PUSH1 0x4 DUP6 ADD SLOAD PUSH1 0x5 DUP7 ADD DUP1 SLOAD PUSH1 0x1 PUSH1 0x1 PUSH1 0xA0 SHL SUB SWAP1 SWAP7 AND SWAP8 POP SWAP4 SWAP6 PUSH1 0xFF SWAP1 SWAP4 AND SWAP5 SWAP2 SWAP4 PUSH2 0xFFFF SWAP1 SWAP2 AND SWAP3 SWAP2 PUSH2 0xCE3 SWAP1 PUSH2 0x3829 JUMP JUMPDEST DUP1 PUSH1 0x1F ADD PUSH1 0x20 DUP1 SWAP2 DIV MUL PUSH1 0x20 ADD PUSH1 0x40 MLOAD SWAP1 DUP2 ADD PUSH1 0x40 MSTORE DUP1 SWAP3 SWAP2 SWAP1 DUP2 DUP2 MSTORE PUSH1 0x20 ADD DUP3 DUP1 SLOAD PUSH2 0xD0F SWAP1 PUSH2 0x3829 JUMP JUMPDEST DUP1 ISZERO PUSH2 0xD5C JUMPI DUP1 PUSH1 0x1F LT PUSH2 0xD31 JUMPI PUSH2 0x100 DUP1 DUP4 SLOAD DIV MUL DUP4 MSTORE SWAP2 PUSH1 0x20 ADD SWAP2 PUSH2 0xD5C JUMP JUMPDEST DUP3 ADD SWAP2 SWAP1 PUSH1 0x0 MSTORE PUSH1 0x20 PUSH1 0x0 KECCAK256 SWAP1 JUMPDEST DUP2 SLOAD DUP2 MSTORE SWAP1 PUSH1 0x1 ADD SWAP1 PUSH1 0x20 ADD DUP1 DUP4 GT PUSH2 0xD3F JUMPI DUP3 SWAP1 SUB PUSH1 0x1F AND DUP3 ADD SWAP2 JUMPDEST POP POP POP POP POP SWAP1 POP DUP7 JUMP JUMPDEST PUSH1 0x11 SLOAD PUSH1 0x1 PUSH1 0x1 PUSH1 0xA0 SHL SUB AND CALLER EQ PUSH2 0xD90 JUMPI PUSH1 0x40 MLOAD PUSH3 0x461BCD PUSH1 0xE5 SHL DUP2 MSTORE PUSH1 0x4 ADD PUSH2 0x8AE SWAP1 PUSH2 0x3870 JUMP JUMPDEST PUSH1 0x11 DUP1 SLOAD PUSH1 0xFF PUSH1 0xA0 SHL NOT DUP2 AND PUSH1 0x1 PUSH1 0xA0 SHL SWAP2 DUP3 SWAP1 DIV PUSH1 0xFF AND ISZERO SWAP1 SWAP2 MUL OR SWAP1 SSTORE JUMP JUMPDEST PUSH1 0x60 PUSH1 0x4 DUP1 SLOAD DUP1 PUSH1 0x20 MUL PUSH1 0x20 ADD PUSH1 0x40 MLOAD SWAP1 DUP2 ADD PUSH1 0x40 MSTORE DUP1 SWAP3 SWAP2 SWAP1 DUP2 DUP2 MSTORE PUSH1 0x20 ADD DUP3 DUP1 SLOAD DUP1 ISZERO PUSH2 0xE09 JUMPI PUSH1 0x20 MUL DUP3 ADD SWAP2 SWAP1 PUSH1 0x0 MSTORE PUSH1 0x20 PUSH1 0x0 KECCAK256 SWAP1 JUMPDEST DUP2 SLOAD PUSH1 0x1 PUSH1 0x1 PUSH1 0xA0 SHL SUB AND DUP2 MSTORE PUSH1 0x1 SWAP1 SWAP2 ADD SWAP1 PUSH1 0x20 ADD DUP1 DUP4 GT PUSH2 0xDEB JUMPI JUMPDEST POP POP POP POP POP SWAP1 POP SWAP1 JUMP JUMPDEST CALLER PUSH1 0x0 SWAP1 DUP2 MSTORE PUSH1 0xC PUSH1 0x20 MSTORE PUSH1 0x40 SWAP1 KECCAK256 SLOAD PUSH1 0xFF AND ISZERO PUSH2 0xE66 JUMPI PUSH1 0x40 MLOAD PUSH3 0x461BCD PUSH1 0xE5 SHL DUP2 MSTORE PUSH1 0x20 PUSH1 0x4 DUP3 ADD MSTORE PUSH1 0x10 PUSH1 0x24 DUP3 ADD MSTORE PUSH16 0x105B1C9958591E481D995C9A599A5959 PUSH1 0x82 SHL PUSH1 0x44 DUP3 ADD MSTORE PUSH1 0x64 ADD PUSH2 0x8AE JUMP JUMPDEST PUSH1 0x0 DUP2 MLOAD GT PUSH2 0xEA8 JUMPI PUSH1 0x40 MLOAD PUSH3 0x461BCD PUSH1 0xE5 SHL DUP2 MSTORE PUSH1 0x20 PUSH1 0x4 DUP3 ADD MSTORE PUSH1 0xE PUSH1 0x24 DUP3 ADD MSTORE PUSH14 0x496E76616C69642068616E646C65 PUSH1 0x90 SHL PUSH1 0x44 DUP3 ADD MSTORE PUSH1 0x64 ADD PUSH2 0x8AE JUMP JUMPDEST CALLER PUSH1 0x0 SWAP1 DUP2 MSTORE PUSH1 0xC PUSH1 0x20 SWAP1 DUP2 MSTORE PUSH1 0x40 DUP1 DUP4 KECCAK256 DUP1 SLOAD PUSH1 0xFF NOT AND PUSH1 0x1 OR SWAP1 SSTORE PUSH1 0xD SWAP1 SWAP2 MSTORE SWAP1 KECCAK256 PUSH2 0xED6 DUP3 DUP3 PUSH2 0x38FF JUMP JUMPDEST POP PUSH1 0x6 SLOAD PUSH1 0x1 PUSH1 0x1 PUSH1 0xA0 SHL SUB AND ISZERO PUSH2 0xF94 JUMPI PUSH1 0x6 SLOAD PUSH1 0x40 MLOAD PUSH4 0xA9059CBB PUSH1 0xE0 SHL DUP2 MSTORE CALLER PUSH1 0x4 DUP3 ADD MSTORE PUSH9 0x2B5E3AF16B1880000 PUSH1 0x24 DUP3 ADD MSTORE PUSH1 0x1 PUSH1 0x1 PUSH1 0xA0 SHL SUB SWAP1 SWAP2 AND SWAP1 PUSH4 0xA9059CBB SWAP1 PUSH1 0x44 ADD PUSH1 0x20 PUSH1 0x40 MLOAD DUP1 DUP4 SUB DUP2 PUSH1 0x0 DUP8 GAS CALL ISZERO DUP1 ISZERO PUSH2 0xF41 JUMPI RETURNDATASIZE PUSH1 0x0 DUP1 RETURNDATACOPY RETURNDATASIZE PUSH1 0x0 REVERT JUMPDEST POP POP POP POP PUSH1 0x40 MLOAD RETURNDATASIZE PUSH1 0x1F NOT PUSH1 0x1F DUP3 ADD AND DUP3 ADD DUP1 PUSH1 0x40 MSTORE POP DUP2 ADD SWAP1 PUSH2 0xF65 SWAP2 SWAP1 PUSH2 0x37DE JUMP JUMPDEST POP CALLER PUSH1 0x0 SWAP1 DUP2 MSTORE PUSH1 0x7 PUSH1 0x20 MSTORE PUSH1 0x40 DUP2 KECCAK256 DUP1 SLOAD PUSH9 0x2B5E3AF16B1880000 SWAP3 SWAP1 PUSH2 0xF8E SWAP1 DUP5 SWAP1 PUSH2 0x3816 JUMP JUMPDEST SWAP1 SWAP2 SSTORE POP POP JUMPDEST POP JUMP JUMPDEST PUSH2 0xFD3 PUSH1 0x40 MLOAD DUP1 PUSH1 0xC0 ADD PUSH1 0x40 MSTORE DUP1 PUSH1 0x0 DUP2 MSTORE PUSH1 0x20 ADD PUSH1 0x0 DUP2 MSTORE PUSH1 0x20 ADD PUSH1 0x0 DUP2 MSTORE PUSH1 0x20 ADD PUSH1 0x0 PUSH1 0xFF AND DUP2 MSTORE PUSH1 0x20 ADD PUSH1 0x0 DUP2 MSTORE PUSH1 0x20 ADD PUSH1 0x60 DUP2 MSTORE POP SWAP1 JUMP JUMPDEST PUSH1 0x1 PUSH1 0x1 PUSH1 0xA0 SHL SUB DUP3 AND PUSH1 0x0 SWAP1 DUP2 MSTORE PUSH1 0x20 DUP2 DUP2 MSTORE PUSH1 0x40 SWAP2 DUP3 SWAP1 KECCAK256 DUP3 MLOAD PUSH1 0xC0 DUP2 ADD DUP5 MSTORE DUP2 SLOAD DUP2 MSTORE PUSH1 0x1 DUP3 ADD SLOAD DUP2 DUP5 ADD MSTORE PUSH1 0x2 DUP3 ADD SLOAD DUP2 DUP6 ADD MSTORE PUSH1 0x3 DUP3 ADD SLOAD PUSH1 0xFF AND PUSH1 0x60 DUP3 ADD MSTORE PUSH1 0x4 DUP3 ADD SLOAD PUSH1 0x80 DUP3 ADD MSTORE PUSH1 0x5 DUP3 ADD DUP1 SLOAD DUP6 MLOAD DUP2 DUP7 MUL DUP2 ADD DUP7 ADD SWAP1 SWAP7 MSTORE DUP1 DUP7 MSTORE SWAP2 SWAP5 SWAP3 SWAP4 PUSH1 0xA0 DUP7 ADD SWAP4 SWAP3 SWAP1 DUP4 ADD DUP3 DUP3 DUP1 ISZERO PUSH2 0x1091 JUMPI PUSH1 0x20 MUL DUP3 ADD SWAP2 SWAP1 PUSH1 0x0 MSTORE PUSH1 0x20 PUSH1 0x0 KECCAK256 SWAP1 PUSH1 0x0 SWAP1 JUMPDEST DUP3 SLOAD PUSH2 0x100 DUP4 SWAP1 EXP SWAP1 DIV PUSH1 0xFF AND ISZERO ISZERO DUP2 MSTORE PUSH1 0x20 PUSH1 0x1 SWAP3 DUP4 ADD DUP2 DUP2 DIV SWAP5 DUP6 ADD SWAP5 SWAP1 SWAP4 SUB SWAP1 SWAP3 MUL SWAP2 ADD DUP1 DUP5 GT PUSH2 0x1060 JUMPI SWAP1 POP JUMPDEST POP POP POP POP POP DUP2 MSTORE POP POP SWAP1 POP SWAP2 SWAP1 POP JUMP JUMPDEST PUSH1 0x11 SLOAD PUSH1 0x1 PUSH1 0x1 PUSH1 0xA0 SHL SUB AND CALLER EQ PUSH2 0x10CB JUMPI PUSH1 0x40 MLOAD PUSH3 0x461BCD PUSH1 0xE5 SHL DUP2 MSTORE PUSH1 0x4 ADD PUSH2 0x8AE SWAP1 PUSH2 0x3870 JUMP JUMPDEST PUSH2 0x10D7 DUP5 DUP5 DUP5 DUP5 PUSH2 0x25A3 JUMP JUMPDEST POP POP POP POP JUMP JUMPDEST PUSH1 0x11 SLOAD PUSH1 0x1 PUSH1 0x1 PUSH1 0xA0 SHL SUB AND CALLER EQ PUSH2 0x1107 JUMPI PUSH1 0x40 MLOAD PUSH3 0x461BCD PUSH1 0xE5 SHL DUP2 MSTORE PUSH1 0x4 ADD PUSH2 0x8AE SWAP1 PUSH2 0x3870 JUMP JUMPDEST PUSH1 0x11 DUP1 SLOAD PUSH1 0xFF PUSH1 0xA0 SHL NOT AND SWAP1 SSTORE JUMP JUMPDEST PUSH1 0x9 PUSH1 0x20 MSTORE PUSH1 0x0 SWAP1 DUP2 MSTORE PUSH1 0x40 SWAP1 KECCAK256 DUP1 SLOAD DUP2 SWAP1 PUSH2 0x1131 SWAP1 PUSH2 0x3829 JUMP JUMPDEST DUP1 PUSH1 0x1F ADD PUSH1 0x20 DUP1 SWAP2 DIV MUL PUSH1 0x20 ADD PUSH1 0x40 MLOAD SWAP1 DUP2 ADD PUSH1 0x40 MSTORE DUP1 SWAP3 SWAP2 SWAP1 DUP2 DUP2 MSTORE PUSH1 0x20 ADD DUP3 DUP1 SLOAD PUSH2 0x115D SWAP1 PUSH2 0x3829 JUMP JUMPDEST DUP1 ISZERO PUSH2 0x11AA JUMPI DUP1 PUSH1 0x1F LT PUSH2 0x117F JUMPI PUSH2 0x100 DUP1 DUP4 SLOAD DIV MUL DUP4 MSTORE SWAP2 PUSH1 0x20 ADD SWAP2 PUSH2 0x11AA JUMP JUMPDEST DUP3 ADD SWAP2 SWAP1 PUSH1 0x0 MSTORE PUSH1 0x20 PUSH1 0x0 KECCAK256 SWAP1 JUMPDEST DUP2 SLOAD DUP2 MSTORE SWAP1 PUSH1 0x1 ADD SWAP1 PUSH1 0x20 ADD DUP1 DUP4 GT PUSH2 0x118D JUMPI DUP3 SWAP1 SUB PUSH1 0x1F AND DUP3 ADD SWAP2 JUMPDEST POP POP POP POP PUSH1 0x1 DUP4 ADD SLOAD PUSH1 0x2 DUP5 ADD SLOAD PUSH1 0x3 SWAP1 SWAP5 ADD SLOAD SWAP3 SWAP4 SWAP1 SWAP3 SWAP1 SWAP2 POP PUSH1 0xFF AND DUP5 JUMP JUMPDEST PUSH1 0x11 SLOAD PUSH1 0x1 PUSH1 0xA0 SHL SWAP1 DIV PUSH1 0xFF AND PUSH2 0x1219 JUMPI PUSH1 0x40 MLOAD PUSH3 0x461BCD PUSH1 0xE5 SHL DUP2 MSTORE PUSH1 0x20 PUSH1 0x4 DUP3 ADD MSTORE PUSH1 0x12 PUSH1 0x24 DUP3 ADD MSTORE PUSH18 0x47616D65206973206E6F7420616374697665 PUSH1 0x70 SHL PUSH1 0x44 DUP3 ADD MSTORE PUSH1 0x64 ADD PUSH2 0x8AE JUMP JUMPDEST DUP3 PUSH1 0x1 DUP2 PUSH1 0xFF AND LT ISZERO DUP1 ISZERO PUSH2 0x1232 JUMPI POP PUSH1 0xA DUP2 PUSH1 0xFF AND GT ISZERO JUMPDEST PUSH2 0x126E JUMPI PUSH1 0x40 MLOAD PUSH3 0x461BCD PUSH1 0xE5 SHL DUP2 MSTORE PUSH1 0x20 PUSH1 0x4 DUP3 ADD MSTORE PUSH1 0xD PUSH1 0x24 DUP3 ADD MSTORE PUSH13 0x125B9D985B1A59081B195D995B PUSH1 0x9A SHL PUSH1 0x44 DUP3 ADD MSTORE PUSH1 0x64 ADD PUSH2 0x8AE JUMP JUMPDEST DUP5 PUSH1 0x0 DUP2 GT PUSH2 0x12BF JUMPI PUSH1 0x40 MLOAD PUSH3 0x461BCD PUSH1 0xE5 SHL DUP2 MSTORE PUSH1 0x20 PUSH1 0x4 DUP3 ADD MSTORE PUSH1 0x1C PUSH1 0x24 DUP3 ADD MSTORE PUSH32 0x53636F7265206D7573742062652067726561746572207468616E203000000000 PUSH1 0x44 DUP3 ADD MSTORE PUSH1 0x64 ADD PUSH2 0x8AE JUMP JUMPDEST PUSH2 0x12CA DUP7 DUP7 DUP7 PUSH2 0x2656 JUMP JUMPDEST PUSH2 0x1316 JUMPI PUSH1 0x40 MLOAD PUSH3 0x461BCD PUSH1 0xE5 SHL DUP2 MSTORE PUSH1 0x20 PUSH1 0x4 DUP3 ADD MSTORE PUSH1 0x17 PUSH1 0x24 DUP3 ADD MSTORE PUSH32 0x53636F72652076616C69646174696F6E206661696C6564000000000000000000 PUSH1 0x44 DUP3 ADD MSTORE PUSH1 0x64 ADD PUSH2 0x8AE JUMP JUMPDEST PUSH2 0x131F CALLER PUSH2 0x2772 JUMP JUMPDEST PUSH2 0x136B JUMPI PUSH1 0x40 MLOAD PUSH3 0x461BCD PUSH1 0xE5 SHL DUP2 MSTORE PUSH1 0x20 PUSH1 0x4 DUP3 ADD MSTORE PUSH1 0x18 PUSH1 0x24 DUP3 ADD MSTORE PUSH32 0x5375626D697373696F6E20726174652065786365656465640000000000000000 PUSH1 0x44 DUP3 ADD MSTORE PUSH1 0x64 ADD PUSH2 0x8AE JUMP JUMPDEST CALLER PUSH1 0x0 PUSH2 0x1383 PUSH7 0x2386F26FC10000 PUSH2 0xFFFF DUP9 AND PUSH2 0x39BF JUMP JUMPDEST SWAP1 POP PUSH1 0x0 DUP2 GT DUP1 ISZERO PUSH2 0x139F JUMPI POP PUSH1 0x6 SLOAD PUSH1 0x1 PUSH1 0x1 PUSH1 0xA0 SHL SUB AND ISZERO ISZERO JUMPDEST ISZERO PUSH2 0x144A JUMPI PUSH1 0x6 SLOAD PUSH1 0x40 MLOAD PUSH4 0xA9059CBB PUSH1 0xE0 SHL DUP2 MSTORE PUSH1 0x1 PUSH1 0x1 PUSH1 0xA0 SHL SUB DUP5 DUP2 AND PUSH1 0x4 DUP4 ADD MSTORE PUSH1 0x24 DUP3 ADD DUP5 SWAP1 MSTORE SWAP1 SWAP2 AND SWAP1 PUSH4 0xA9059CBB SWAP1 PUSH1 0x44 ADD PUSH1 0x20 PUSH1 0x40 MLOAD DUP1 DUP4 SUB DUP2 PUSH1 0x0 DUP8 GAS CALL ISZERO DUP1 ISZERO PUSH2 0x13F7 JUMPI RETURNDATASIZE PUSH1 0x0 DUP1 RETURNDATACOPY RETURNDATASIZE PUSH1 0x0 REVERT JUMPDEST POP POP POP POP PUSH1 0x40 MLOAD RETURNDATASIZE PUSH1 0x1F NOT PUSH1 0x1F DUP3 ADD AND DUP3 ADD DUP1 PUSH1 0x40 MSTORE POP DUP2 ADD SWAP1 PUSH2 0x141B SWAP2 SWAP1 PUSH2 0x37DE JUMP JUMPDEST POP PUSH1 0x1 PUSH1 0x1 PUSH1 0xA0 SHL SUB DUP3 AND PUSH1 0x0 SWAP1 DUP2 MSTORE PUSH1 0x7 PUSH1 0x20 MSTORE PUSH1 0x40 DUP2 KECCAK256 DUP1 SLOAD DUP4 SWAP3 SWAP1 PUSH2 0x1444 SWAP1 DUP5 SWAP1 PUSH2 0x3816 JUMP JUMPDEST SWAP1 SWAP2 SSTORE POP POP JUMPDEST PUSH1 0x1 PUSH1 0x1 PUSH1 0xA0 SHL SUB DUP3 AND PUSH1 0x0 SWAP1 DUP2 MSTORE PUSH1 0x20 DUP2 SWAP1 MSTORE PUSH1 0x40 DUP2 KECCAK256 PUSH1 0x1 ADD SLOAD SWAP1 SUB PUSH2 0x153F JUMPI PUSH1 0x4 DUP1 SLOAD PUSH1 0x1 DUP2 ADD DUP3 SSTORE PUSH1 0x0 SWAP2 DUP3 MSTORE PUSH32 0x8A35ACFBC15FF81A39AE7D344FD709F28E8600B4AA8C65C6B64BFE7FE36BD19B ADD DUP1 SLOAD PUSH1 0x1 PUSH1 0x1 PUSH1 0xA0 SHL SUB NOT AND PUSH1 0x1 PUSH1 0x1 PUSH1 0xA0 SHL SUB DUP6 AND OR SWAP1 SSTORE PUSH1 0x10 DUP1 SLOAD SWAP2 PUSH2 0x14C4 DUP4 PUSH2 0x39D6 JUMP JUMPDEST SWAP2 SWAP1 POP SSTORE POP PUSH1 0xE SLOAD PUSH8 0xFFFFFFFFFFFFFFFF DUP2 GT ISZERO PUSH2 0x14E4 JUMPI PUSH2 0x14E4 PUSH2 0x3283 JUMP JUMPDEST PUSH1 0x40 MLOAD SWAP1 DUP1 DUP3 MSTORE DUP1 PUSH1 0x20 MUL PUSH1 0x20 ADD DUP3 ADD PUSH1 0x40 MSTORE DUP1 ISZERO PUSH2 0x150D JUMPI DUP2 PUSH1 0x20 ADD PUSH1 0x20 DUP3 MUL DUP1 CALLDATASIZE DUP4 CALLDATACOPY ADD SWAP1 POP JUMPDEST POP PUSH1 0x1 PUSH1 0x1 PUSH1 0xA0 SHL SUB DUP4 AND PUSH1 0x0 SWAP1 DUP2 MSTORE PUSH1 0x20 DUP2 DUP2 MSTORE PUSH1 0x40 SWAP1 SWAP2 KECCAK256 DUP3 MLOAD PUSH2 0x153D SWAP4 PUSH1 0x5 SWAP1 SWAP3 ADD SWAP3 SWAP2 SWAP1 SWAP2 ADD SWAP1 PUSH2 0x3009 JUMP JUMPDEST POP JUMPDEST PUSH1 0x40 DUP1 MLOAD PUSH1 0xC0 DUP2 ADD DUP3 MSTORE PUSH1 0x1 PUSH1 0x1 PUSH1 0xA0 SHL SUB DUP5 AND DUP1 DUP3 MSTORE PUSH1 0x20 DUP1 DUP4 ADD DUP13 SWAP1 MSTORE PUSH1 0xFF DUP12 AND DUP4 DUP6 ADD MSTORE TIMESTAMP PUSH1 0x60 DUP5 ADD MSTORE PUSH2 0xFFFF DUP11 AND PUSH1 0x80 DUP5 ADD MSTORE PUSH1 0xA0 DUP4 ADD DUP10 SWAP1 MSTORE PUSH1 0x0 SWAP2 DUP3 MSTORE DUP2 SWAP1 MSTORE SWAP2 DUP3 KECCAK256 PUSH1 0x1 DUP2 ADD DUP1 SLOAD SWAP3 SWAP4 SWAP2 SWAP3 SWAP2 PUSH2 0x159C DUP4 PUSH2 0x39D6 JUMP JUMPDEST SWAP2 SWAP1 POP SSTORE POP DUP8 PUSH2 0xFFFF AND DUP2 PUSH1 0x2 ADD PUSH1 0x0 DUP3 DUP3 SLOAD PUSH2 0x15B9 SWAP2 SWAP1 PUSH2 0x3816 JUMP JUMPDEST SWAP1 SWAP2 SSTORE POP POP PUSH1 0xF DUP1 SLOAD SWAP1 PUSH1 0x0 PUSH2 0x15CE DUP4 PUSH2 0x39D6 JUMP JUMPDEST SWAP1 SWAP2 SSTORE POP POP PUSH1 0x3 DUP2 ADD SLOAD PUSH1 0xFF SWAP1 DUP2 AND SWAP1 DUP11 AND GT ISZERO PUSH2 0x15F8 JUMPI PUSH1 0x3 DUP2 ADD DUP1 SLOAD PUSH1 0xFF NOT AND PUSH1 0xFF DUP12 AND OR SWAP1 SSTORE JUMPDEST DUP1 SLOAD PUSH1 0x0 SWAP1 DUP12 GT ISZERO PUSH2 0x164A JUMPI POP DUP10 DUP2 SSTORE PUSH1 0x40 MLOAD DUP11 DUP2 MSTORE PUSH1 0x1 SWAP1 PUSH1 0x1 PUSH1 0x1 PUSH1 0xA0 SHL SUB DUP7 AND SWAP1 PUSH32 0xE265AE360C48DC3C258727B698CC5A994DA69B0D32354166F39003A488919443 SWAP1 PUSH1 0x20 ADD PUSH1 0x40 MLOAD DUP1 SWAP2 SUB SWAP1 LOG2 JUMPDEST PUSH1 0x1 PUSH1 0x1 PUSH1 0xA0 SHL SUB DUP6 DUP2 AND PUSH1 0x0 SWAP1 DUP2 MSTORE PUSH1 0x1 PUSH1 0x20 DUP2 DUP2 MSTORE PUSH1 0x40 DUP1 DUP5 KECCAK256 DUP1 SLOAD DUP1 DUP6 ADD DUP3 SSTORE SWAP1 DUP6 MSTORE SWAP4 DUP3 SWAP1 KECCAK256 DUP9 MLOAD PUSH1 0x6 SWAP1 SWAP6 MUL ADD DUP1 SLOAD PUSH1 0x1 PUSH1 0x1 PUSH1 0xA0 SHL SUB NOT AND SWAP5 SWAP1 SWAP6 AND SWAP4 SWAP1 SWAP4 OR DUP5 SSTORE DUP7 ADD MLOAD SWAP1 DUP4 ADD SSTORE DUP5 ADD MLOAD PUSH1 0x2 DUP3 ADD DUP1 SLOAD PUSH1 0xFF NOT AND PUSH1 0xFF SWAP1 SWAP3 AND SWAP2 SWAP1 SWAP2 OR SWAP1 SSTORE PUSH1 0x60 DUP5 ADD MLOAD PUSH1 0x3 DUP3 ADD SSTORE PUSH1 0x80 DUP5 ADD MLOAD PUSH1 0x4 DUP3 ADD DUP1 SLOAD PUSH2 0xFFFF NOT AND PUSH2 0xFFFF SWAP1 SWAP3 AND SWAP2 SWAP1 SWAP2 OR SWAP1 SSTORE PUSH1 0xA0 DUP5 ADD MLOAD DUP5 SWAP2 SWAP1 PUSH1 0x5 DUP3 ADD SWAP1 PUSH2 0x16EE SWAP1 DUP3 PUSH2 0x38FF JUMP JUMPDEST POP POP POP PUSH2 0x16FA DUP4 PUSH2 0x27C6 JUMP JUMPDEST PUSH2 0x1703 DUP6 PUSH2 0x2DCC JUMP JUMPDEST PUSH1 0x40 DUP1 MLOAD DUP13 DUP2 MSTORE PUSH1 0xFF DUP13 AND PUSH1 0x20 DUP3 ADD MSTORE TIMESTAMP DUP2 DUP4 ADD MSTORE SWAP1 MLOAD PUSH1 0x1 PUSH1 0x1 PUSH1 0xA0 SHL SUB DUP8 AND SWAP2 PUSH32 0x5CDA6E39A6C4E0B3311E33C36DE098DA84B9222DCC24C13B2E9165C175F4E3D3 SWAP2 SWAP1 DUP2 SWAP1 SUB PUSH1 0x60 ADD SWAP1 LOG2 DUP1 ISZERO PUSH2 0x175F JUMPI PUSH2 0x175F DUP6 PUSH2 0x2FB5 JUMP JUMPDEST POP POP POP POP POP POP POP POP POP POP POP JUMP JUMPDEST PUSH2 0x1799 PUSH1 0x40 MLOAD DUP1 PUSH1 0x80 ADD PUSH1 0x40 MSTORE DUP1 PUSH1 0x60 DUP2 MSTORE PUSH1 0x20 ADD PUSH1 0x0 DUP2 MSTORE PUSH1 0x20 ADD PUSH1 0x0 DUP2 MSTORE PUSH1 0x20 ADD PUSH1 0x0 ISZERO ISZERO DUP2 MSTORE POP SWAP1 JUMP JUMPDEST PUSH1 0xB SLOAD DUP3 LT PUSH2 0x17DC JUMPI PUSH1 0x40 MLOAD PUSH3 0x461BCD PUSH1 0xE5 SHL DUP2 MSTORE PUSH1 0x20 PUSH1 0x4 DUP3 ADD MSTORE PUSH1 0xF PUSH1 0x24 DUP3 ADD MSTORE PUSH15 0x125B9D985B1A59081A5D195B481251 PUSH1 0x8A SHL PUSH1 0x44 DUP3 ADD MSTORE PUSH1 0x64 ADD PUSH2 0x8AE JUMP JUMPDEST PUSH1 0x0 DUP3 DUP2 MSTORE PUSH1 0x9 PUSH1 0x20 MSTORE PUSH1 0x40 SWAP1 DUP2 SWAP1 KECCAK256 DUP2 MLOAD PUSH1 0x80 DUP2 ADD SWAP1 SWAP3 MSTORE DUP1 SLOAD DUP3 SWAP1 DUP3 SWAP1 PUSH2 0x1804 SWAP1 PUSH2 0x3829 JUMP JUMPDEST DUP1 PUSH1 0x1F ADD PUSH1 0x20 DUP1 SWAP2 DIV MUL PUSH1 0x20 ADD PUSH1 0x40 MLOAD SWAP1 DUP2 ADD PUSH1 0x40 MSTORE DUP1 SWAP3 SWAP2 SWAP1 DUP2 DUP2 MSTORE PUSH1 0x20 ADD DUP3 DUP1 SLOAD PUSH2 0x1830 SWAP1 PUSH2 0x3829 JUMP JUMPDEST DUP1 ISZERO PUSH2 0x187D JUMPI DUP1 PUSH1 0x1F LT PUSH2 0x1852 JUMPI PUSH2 0x100 DUP1 DUP4 SLOAD DIV MUL DUP4 MSTORE SWAP2 PUSH1 0x20 ADD SWAP2 PUSH2 0x187D JUMP JUMPDEST DUP3 ADD SWAP2 SWAP1 PUSH1 0x0 MSTORE PUSH1 0x20 PUSH1 0x0 KECCAK256 SWAP1 JUMPDEST DUP2 SLOAD DUP2 MSTORE SWAP1 PUSH1 0x1 ADD SWAP1 PUSH1 0x20 ADD DUP1 DUP4 GT PUSH2 0x1860 JUMPI DUP3 SWAP1 SUB PUSH1 0x1F AND DUP3 ADD SWAP2 JUMPDEST POP POP POP SWAP2 DUP4 MSTORE POP POP PUSH1 0x1 DUP3 ADD SLOAD PUSH1 0x20 DUP3 ADD MSTORE PUSH1 0x2 DUP3 ADD SLOAD PUSH1 0x40 DUP3 ADD MSTORE PUSH1 0x3 SWAP1 SWAP2 ADD SLOAD PUSH1 0xFF AND ISZERO ISZERO PUSH1 0x60 SWAP1 SWAP2 ADD MSTORE SWAP3 SWAP2 POP POP JUMP JUMPDEST PUSH1 0x1 PUSH1 0x20 MSTORE DUP2 PUSH1 0x0 MSTORE PUSH1 0x40 PUSH1 0x0 KECCAK256 DUP2 DUP2 SLOAD DUP2 LT PUSH2 0x18CC JUMPI PUSH1 0x0 DUP1 REVERT JUMPDEST PUSH1 0x0 SWAP2 DUP3 MSTORE PUSH1 0x20 SWAP1 SWAP2 KECCAK256 PUSH1 0x6 SWAP1 SWAP2 MUL ADD DUP1 SLOAD PUSH1 0x1 DUP3 ADD SLOAD PUSH1 0x2 DUP4 ADD SLOAD PUSH1 0x3 DUP5 ADD SLOAD PUSH1 0x4 DUP6 ADD SLOAD PUSH1 0x5 DUP7 ADD DUP1 SLOAD PUSH1 0x1 PUSH1 0x1 PUSH1 0xA0 SHL SUB SWAP1 SWAP7 AND SWAP9 POP SWAP4 SWAP7 POP PUSH1 0xFF SWAP1 SWAP3 AND SWAP5 SWAP1 SWAP4 PUSH2 0xFFFF SWAP1 SWAP3 AND SWAP3 SWAP1 SWAP2 PUSH2 0xCE3 SWAP1 PUSH2 0x3829 JUMP JUMPDEST PUSH1 0x60 PUSH1 0x0 PUSH1 0xE SLOAD PUSH8 0xFFFFFFFFFFFFFFFF DUP2 GT ISZERO PUSH2 0x1941 JUMPI PUSH2 0x1941 PUSH2 0x3283 JUMP JUMPDEST PUSH1 0x40 MLOAD SWAP1 DUP1 DUP3 MSTORE DUP1 PUSH1 0x20 MUL PUSH1 0x20 ADD DUP3 ADD PUSH1 0x40 MSTORE DUP1 ISZERO PUSH2 0x19A9 JUMPI DUP2 PUSH1 0x20 ADD JUMPDEST PUSH2 0x1996 PUSH1 0x40 MLOAD DUP1 PUSH1 0xA0 ADD PUSH1 0x40 MSTORE DUP1 PUSH1 0x60 DUP2 MSTORE PUSH1 0x20 ADD PUSH1 0x60 DUP2 MSTORE PUSH1 0x20 ADD PUSH1 0x0 DUP2 MSTORE PUSH1 0x20 ADD PUSH1 0x0 PUSH1 0xFF AND DUP2 MSTORE PUSH1 0x20 ADD PUSH1 0x0 ISZERO ISZERO DUP2 MSTORE POP SWAP1 JUMP JUMPDEST DUP2 MSTORE PUSH1 0x20 ADD SWAP1 PUSH1 0x1 SWAP1 SUB SWAP1 DUP2 PUSH2 0x195F JUMPI SWAP1 POP JUMPDEST POP SWAP1 POP PUSH1 0x0 JUMPDEST PUSH1 0xE SLOAD DUP2 LT ISZERO PUSH2 0x1B4F JUMPI PUSH1 0x0 DUP2 DUP2 MSTORE PUSH1 0x2 PUSH1 0x20 MSTORE PUSH1 0x40 SWAP1 DUP2 SWAP1 KECCAK256 DUP2 MLOAD PUSH1 0xA0 DUP2 ADD SWAP1 SWAP3 MSTORE DUP1 SLOAD DUP3 SWAP1 DUP3 SWAP1 PUSH2 0x19E1 SWAP1 PUSH2 0x3829 JUMP JUMPDEST DUP1 PUSH1 0x1F ADD PUSH1 0x20 DUP1 SWAP2 DIV MUL PUSH1 0x20 ADD PUSH1 0x40 MLOAD SWAP1 DUP2 ADD PUSH1 0x40 MSTORE DUP1 SWAP3 SWAP2 SWAP1 DUP2 DUP2 MSTORE PUSH1 0x20 ADD DUP3 DUP1 SLOAD PUSH2 0x1A0D SWAP1 PUSH2 0x3829 JUMP JUMPDEST DUP1 ISZERO PUSH2 0x1A5A JUMPI DUP1 PUSH1 0x1F LT PUSH2 0x1A2F JUMPI PUSH2 0x100 DUP1 DUP4 SLOAD DIV MUL DUP4 MSTORE SWAP2 PUSH1 0x20 ADD SWAP2 PUSH2 0x1A5A JUMP JUMPDEST DUP3 ADD SWAP2 SWAP1 PUSH1 0x0 MSTORE PUSH1 0x20 PUSH1 0x0 KECCAK256 SWAP1 JUMPDEST DUP2 SLOAD DUP2 MSTORE SWAP1 PUSH1 0x1 ADD SWAP1 PUSH1 0x20 ADD DUP1 DUP4 GT PUSH2 0x1A3D JUMPI DUP3 SWAP1 SUB PUSH1 0x1F AND DUP3 ADD SWAP2 JUMPDEST POP POP POP POP POP DUP2 MSTORE PUSH1 0x20 ADD PUSH1 0x1 DUP3 ADD DUP1 SLOAD PUSH2 0x1A73 SWAP1 PUSH2 0x3829 JUMP JUMPDEST DUP1 PUSH1 0x1F ADD PUSH1 0x20 DUP1 SWAP2 DIV MUL PUSH1 0x20 ADD PUSH1 0x40 MLOAD SWAP1 DUP2 ADD PUSH1 0x40 MSTORE DUP1 SWAP3 SWAP2 SWAP1 DUP2 DUP2 MSTORE PUSH1 0x20 ADD DUP3 DUP1 SLOAD PUSH2 0x1A9F SWAP1 PUSH2 0x3829 JUMP JUMPDEST DUP1 ISZERO PUSH2 0x1AEC JUMPI DUP1 PUSH1 0x1F LT PUSH2 0x1AC1 JUMPI PUSH2 0x100 DUP1 DUP4 SLOAD DIV MUL DUP4 MSTORE SWAP2 PUSH1 0x20 ADD SWAP2 PUSH2 0x1AEC JUMP JUMPDEST DUP3 ADD SWAP2 SWAP1 PUSH1 0x0 MSTORE PUSH1 0x20 PUSH1 0x0 KECCAK256 SWAP1 JUMPDEST DUP2 SLOAD DUP2 MSTORE SWAP1 PUSH1 0x1 ADD SWAP1 PUSH1 0x20 ADD DUP1 DUP4 GT PUSH2 0x1ACF JUMPI DUP3 SWAP1 SUB PUSH1 0x1F AND DUP3 ADD SWAP2 JUMPDEST POP POP POP SWAP2 DUP4 MSTORE POP POP PUSH1 0x2 DUP3 ADD SLOAD PUSH1 0x20 DUP3 ADD MSTORE PUSH1 0x3 SWAP1 SWAP2 ADD SLOAD PUSH1 0xFF DUP1 DUP3 AND PUSH1 0x40 DUP5 ADD MSTORE PUSH2 0x100 SWAP1 SWAP2 DIV AND ISZERO ISZERO PUSH1 0x60 SWAP1 SWAP2 ADD MSTORE DUP3 MLOAD DUP4 SWAP1 DUP4 SWAP1 DUP2 LT PUSH2 0x1B31 JUMPI PUSH2 0x1B31 PUSH2 0x39EF JUMP JUMPDEST PUSH1 0x20 MUL PUSH1 0x20 ADD ADD DUP2 SWAP1 MSTORE POP DUP1 DUP1 PUSH2 0x1B47 SWAP1 PUSH2 0x39D6 JUMP JUMPDEST SWAP2 POP POP PUSH2 0x19AF JUMP JUMPDEST POP SWAP2 SWAP1 POP JUMP JUMPDEST PUSH1 0x3 SLOAD PUSH1 0x60 SWAP1 PUSH1 0x0 SWAP1 DUP4 GT PUSH2 0x1B6A JUMPI DUP3 PUSH2 0x1B6E JUMP JUMPDEST PUSH1 0x3 SLOAD JUMPDEST SWAP1 POP PUSH1 0x0 DUP2 PUSH8 0xFFFFFFFFFFFFFFFF DUP2 GT ISZERO PUSH2 0x1B8B JUMPI PUSH2 0x1B8B PUSH2 0x3283 JUMP JUMPDEST PUSH1 0x40 MLOAD SWAP1 DUP1 DUP3 MSTORE DUP1 PUSH1 0x20 MUL PUSH1 0x20 ADD DUP3 ADD PUSH1 0x40 MSTORE DUP1 ISZERO PUSH2 0x1C05 JUMPI DUP2 PUSH1 0x20 ADD JUMPDEST PUSH2 0x1BF2 PUSH1 0x40 MLOAD DUP1 PUSH1 0xC0 ADD PUSH1 0x40 MSTORE DUP1 PUSH1 0x0 PUSH1 0x1 PUSH1 0x1 PUSH1 0xA0 SHL SUB AND DUP2 MSTORE PUSH1 0x20 ADD PUSH1 0x0 DUP2 MSTORE PUSH1 0x20 ADD PUSH1 0x0 PUSH1 0xFF AND DUP2 MSTORE PUSH1 0x20 ADD PUSH1 0x0 DUP2 MSTORE PUSH1 0x20 ADD PUSH1 0x0 PUSH2 0xFFFF AND DUP2 MSTORE PUSH1 0x20 ADD PUSH1 0x60 DUP2 MSTORE POP SWAP1 JUMP JUMPDEST DUP2 MSTORE PUSH1 0x20 ADD SWAP1 PUSH1 0x1 SWAP1 SUB SWAP1 DUP2 PUSH2 0x1BA9 JUMPI SWAP1 POP JUMPDEST POP SWAP1 POP PUSH1 0x0 JUMPDEST DUP3 DUP2 LT ISZERO PUSH2 0x1D4A JUMPI PUSH1 0x3 DUP2 DUP2 SLOAD DUP2 LT PUSH2 0x1C26 JUMPI PUSH2 0x1C26 PUSH2 0x39EF JUMP JUMPDEST PUSH1 0x0 SWAP2 DUP3 MSTORE PUSH1 0x20 SWAP2 DUP3 SWAP1 KECCAK256 PUSH1 0x40 DUP1 MLOAD PUSH1 0xC0 DUP2 ADD DUP3 MSTORE PUSH1 0x6 SWAP1 SWAP4 MUL SWAP1 SWAP2 ADD DUP1 SLOAD PUSH1 0x1 PUSH1 0x1 PUSH1 0xA0 SHL SUB AND DUP4 MSTORE PUSH1 0x1 DUP2 ADD SLOAD SWAP4 DUP4 ADD SWAP4 SWAP1 SWAP4 MSTORE PUSH1 0x2 DUP4 ADD SLOAD PUSH1 0xFF AND SWAP1 DUP3 ADD MSTORE PUSH1 0x3 DUP3 ADD SLOAD PUSH1 0x60 DUP3 ADD MSTORE PUSH1 0x4 DUP3 ADD SLOAD PUSH2 0xFFFF AND PUSH1 0x80 DUP3 ADD MSTORE PUSH1 0x5 DUP3 ADD DUP1 SLOAD SWAP2 SWAP3 SWAP2 PUSH1 0xA0 DUP5 ADD SWAP2 SWAP1 PUSH2 0x1C98 SWAP1 PUSH2 0x3829 JUMP JUMPDEST DUP1 PUSH1 0x1F ADD PUSH1 0x20 DUP1 SWAP2 DIV MUL PUSH1 0x20 ADD PUSH1 0x40 MLOAD SWAP1 DUP2 ADD PUSH1 0x40 MSTORE DUP1 SWAP3 SWAP2 SWAP1 DUP2 DUP2 MSTORE PUSH1 0x20 ADD DUP3 DUP1 SLOAD PUSH2 0x1CC4 SWAP1 PUSH2 0x3829 JUMP JUMPDEST DUP1 ISZERO PUSH2 0x1D11 JUMPI DUP1 PUSH1 0x1F LT PUSH2 0x1CE6 JUMPI PUSH2 0x100 DUP1 DUP4 SLOAD DIV MUL DUP4 MSTORE SWAP2 PUSH1 0x20 ADD SWAP2 PUSH2 0x1D11 JUMP JUMPDEST DUP3 ADD SWAP2 SWAP1 PUSH1 0x0 MSTORE PUSH1 0x20 PUSH1 0x0 KECCAK256 SWAP1 JUMPDEST DUP2 SLOAD DUP2 MSTORE SWAP1 PUSH1 0x1 ADD SWAP1 PUSH1 0x20 ADD DUP1 DUP4 GT PUSH2 0x1CF4 JUMPI DUP3 SWAP1 SUB PUSH1 0x1F AND DUP3 ADD SWAP2 JUMPDEST POP POP POP POP POP DUP2 MSTORE POP POP DUP3 DUP3 DUP2 MLOAD DUP2 LT PUSH2 0x1D2C JUMPI PUSH2 0x1D2C PUSH2 0x39EF JUMP JUMPDEST PUSH1 0x20 MUL PUSH1 0x20 ADD ADD DUP2 SWAP1 MSTORE POP DUP1 DUP1 PUSH2 0x1D42 SWAP1 PUSH2 0x39D6 JUMP JUMPDEST SWAP2 POP POP PUSH2 0x1C0B JUMP JUMPDEST POP SWAP4 SWAP3 POP POP POP JUMP JUMPDEST PUSH1 0x11 SLOAD PUSH1 0x1 PUSH1 0x1 PUSH1 0xA0 SHL SUB AND CALLER EQ PUSH2 0x1D7C JUMPI PUSH1 0x40 MLOAD PUSH3 0x461BCD PUSH1 0xE5 SHL DUP2 MSTORE PUSH1 0x4 ADD PUSH2 0x8AE SWAP1 PUSH2 0x3870 JUMP JUMPDEST PUSH1 0x6 SLOAD PUSH1 0x1 PUSH1 0x1 PUSH1 0xA0 SHL SUB AND PUSH2 0x1DC8 JUMPI PUSH1 0x40 MLOAD PUSH3 0x461BCD PUSH1 0xE5 SHL DUP2 MSTORE PUSH1 0x20 PUSH1 0x4 DUP3 ADD MSTORE PUSH1 0x11 PUSH1 0x24 DUP3 ADD MSTORE PUSH17 0x14D4D1081D1BDAD95B881B9BDD081CD95D PUSH1 0x7A SHL PUSH1 0x44 DUP3 ADD MSTORE PUSH1 0x64 ADD PUSH2 0x8AE JUMP JUMPDEST PUSH1 0x6 SLOAD PUSH1 0x11 SLOAD PUSH1 0x40 MLOAD PUSH4 0xA9059CBB PUSH1 0xE0 SHL DUP2 MSTORE PUSH1 0x1 PUSH1 0x1 PUSH1 0xA0 SHL SUB SWAP2 DUP3 AND PUSH1 0x4 DUP3 ADD MSTORE PUSH1 0x24 DUP2 ADD DUP5 SWAP1 MSTORE SWAP2 AND SWAP1 PUSH4 0xA9059CBB SWAP1 PUSH1 0x44 ADD PUSH1 0x20 PUSH1 0x40 MLOAD DUP1 DUP4 SUB DUP2 PUSH1 0x0 DUP8 GAS CALL ISZERO DUP1 ISZERO PUSH2 0x1E1D JUMPI RETURNDATASIZE PUSH1 0x0 DUP1 RETURNDATACOPY RETURNDATASIZE PUSH1 0x0 REVERT JUMPDEST POP POP POP POP PUSH1 0x40 MLOAD RETURNDATASIZE PUSH1 0x1F NOT PUSH1 0x1F DUP3 ADD AND DUP3 ADD DUP1 PUSH1 0x40 MSTORE POP DUP2 ADD SWAP1 PUSH2 0xA6E SWAP2 SWAP1 PUSH2 0x37DE JUMP JUMPDEST PUSH1 0x60 PUSH1 0x0 PUSH1 0xB SLOAD PUSH8 0xFFFFFFFFFFFFFFFF DUP2 GT ISZERO PUSH2 0x1E60 JUMPI PUSH2 0x1E60 PUSH2 0x3283 JUMP JUMPDEST PUSH1 0x40 MLOAD SWAP1 DUP1 DUP3 MSTORE DUP1 PUSH1 0x20 MUL PUSH1 0x20 ADD DUP3 ADD PUSH1 0x40 MSTORE DUP1 ISZERO PUSH2 0x1EBE JUMPI DUP2 PUSH1 0x20 ADD JUMPDEST PUSH2 0x1EAB PUSH1 0x40 MLOAD DUP1 PUSH1 0x80 ADD PUSH1 0x40 MSTORE DUP1 PUSH1 0x60 DUP2 MSTORE PUSH1 0x20 ADD PUSH1 0x0 DUP2 MSTORE PUSH1 0x20 ADD PUSH1 0x0 DUP2 MSTORE PUSH1 0x20 ADD PUSH1 0x0 ISZERO ISZERO DUP2 MSTORE POP SWAP1 JUMP JUMPDEST DUP2 MSTORE PUSH1 0x20 ADD SWAP1 PUSH1 0x1 SWAP1 SUB SWAP1 DUP2 PUSH2 0x1E7E JUMPI SWAP1 POP JUMPDEST POP SWAP1 POP PUSH1 0x0 JUMPDEST PUSH1 0xB SLOAD DUP2 LT ISZERO PUSH2 0x1B4F JUMPI PUSH1 0x0 DUP2 DUP2 MSTORE PUSH1 0x9 PUSH1 0x20 MSTORE PUSH1 0x40 SWAP1 DUP2 SWAP1 KECCAK256 DUP2 MLOAD PUSH1 0x80 DUP2 ADD SWAP1 SWAP3 MSTORE DUP1 SLOAD DUP3 SWAP1 DUP3 SWAP1 PUSH2 0x1EF6 SWAP1 PUSH2 0x3829 JUMP JUMPDEST DUP1 PUSH1 0x1F ADD PUSH1 0x20 DUP1 SWAP2 DIV MUL PUSH1 0x20 ADD PUSH1 0x40 MLOAD SWAP1 DUP2 ADD PUSH1 0x40 MSTORE DUP1 SWAP3 SWAP2 SWAP1 DUP2 DUP2 MSTORE PUSH1 0x20 ADD DUP3 DUP1 SLOAD PUSH2 0x1F22 SWAP1 PUSH2 0x3829 JUMP JUMPDEST DUP1 ISZERO PUSH2 0x1F6F JUMPI DUP1 PUSH1 0x1F LT PUSH2 0x1F44 JUMPI PUSH2 0x100 DUP1 DUP4 SLOAD DIV MUL DUP4 MSTORE SWAP2 PUSH1 0x20 ADD SWAP2 PUSH2 0x1F6F JUMP JUMPDEST DUP3 ADD SWAP2 SWAP1 PUSH1 0x0 MSTORE PUSH1 0x20 PUSH1 0x0 KECCAK256 SWAP1 JUMPDEST DUP2 SLOAD DUP2 MSTORE SWAP1 PUSH1 0x1 ADD SWAP1 PUSH1 0x20 ADD DUP1 DUP4 GT PUSH2 0x1F52 JUMPI DUP3 SWAP1 SUB PUSH1 0x1F AND DUP3 ADD SWAP2 JUMPDEST POP POP POP SWAP2 DUP4 MSTORE POP POP PUSH1 0x1 DUP3 ADD SLOAD PUSH1 0x20 DUP3 ADD MSTORE PUSH1 0x2 DUP3 ADD SLOAD PUSH1 0x40 DUP3 ADD MSTORE PUSH1 0x3 SWAP1 SWAP2 ADD SLOAD PUSH1 0xFF AND ISZERO ISZERO PUSH1 0x60 SWAP1 SWAP2 ADD MSTORE DUP3 MLOAD DUP4 SWAP1 DUP4 SWAP1 DUP2 LT PUSH2 0x1FB0 JUMPI PUSH2 0x1FB0 PUSH2 0x39EF JUMP JUMPDEST PUSH1 0x20 MUL PUSH1 0x20 ADD ADD DUP2 SWAP1 MSTORE POP DUP1 DUP1 PUSH2 0x1FC6 SWAP1 PUSH2 0x39D6 JUMP JUMPDEST SWAP2 POP POP PUSH2 0x1EC4 JUMP JUMPDEST PUSH1 0x1 PUSH1 0x1 PUSH1 0xA0 SHL SUB DUP2 AND PUSH1 0x0 SWAP1 DUP2 MSTORE PUSH1 0x20 DUP2 DUP2 MSTORE PUSH1 0x40 SWAP2 DUP3 SWAP1 KECCAK256 PUSH1 0x5 ADD DUP1 SLOAD DUP4 MLOAD DUP2 DUP5 MUL DUP2 ADD DUP5 ADD SWAP1 SWAP5 MSTORE DUP1 DUP5 MSTORE PUSH1 0x60 SWAP4 SWAP3 DUP4 ADD DUP3 DUP3 DUP1 ISZERO PUSH2 0x204F JUMPI PUSH1 0x20 MUL DUP3 ADD SWAP2 SWAP1 PUSH1 0x0 MSTORE PUSH1 0x20 PUSH1 0x0 KECCAK256 SWAP1 PUSH1 0x0 SWAP1 JUMPDEST DUP3 SLOAD PUSH2 0x100 DUP4 SWAP1 EXP SWAP1 DIV PUSH1 0xFF AND ISZERO ISZERO DUP2 MSTORE PUSH1 0x20 PUSH1 0x1 SWAP3 DUP4 ADD DUP2 DUP2 DIV SWAP5 DUP6 ADD SWAP5 SWAP1 SWAP4 SUB SWAP1 SWAP3 MUL SWAP2 ADD DUP1 DUP5 GT PUSH2 0x201E JUMPI SWAP1 POP JUMPDEST POP POP POP POP POP SWAP1 POP SWAP2 SWAP1 POP JUMP JUMPDEST PUSH1 0x1 PUSH1 0x1 PUSH1 0xA0 SHL SUB DUP1 DUP3 AND PUSH1 0x0 SWAP1 DUP2 MSTORE PUSH1 0x7 PUSH1 0x20 SWAP1 DUP2 MSTORE PUSH1 0x40 DUP1 DUP4 KECCAK256 SLOAD PUSH1 0x8 SWAP1 SWAP3 MSTORE DUP3 KECCAK256 SLOAD PUSH1 0x6 SLOAD SWAP2 SWAP4 SWAP1 SWAP3 SWAP2 AND PUSH2 0x2094 JUMPI PUSH1 0x0 PUSH2 0x2102 JUMP JUMPDEST PUSH1 0x6 SLOAD PUSH1 0x40 MLOAD PUSH4 0x70A08231 PUSH1 0xE0 SHL DUP2 MSTORE PUSH1 0x1 PUSH1 0x1 PUSH1 0xA0 SHL SUB DUP7 DUP2 AND PUSH1 0x4 DUP4 ADD MSTORE SWAP1 SWAP2 AND SWAP1 PUSH4 0x70A08231 SWAP1 PUSH1 0x24 ADD PUSH1 0x20 PUSH1 0x40 MLOAD DUP1 DUP4 SUB DUP2 DUP7 GAS STATICCALL ISZERO DUP1 ISZERO PUSH2 0x20DE JUMPI RETURNDATASIZE PUSH1 0x0 DUP1 RETURNDATACOPY RETURNDATASIZE PUSH1 0x0 REVERT JUMPDEST POP POP POP POP PUSH1 0x40 MLOAD RETURNDATASIZE PUSH1 0x1F NOT PUSH1 0x1F DUP3 ADD AND DUP3 ADD DUP1 PUSH1 0x40 MSTORE POP DUP2 ADD SWAP1 PUSH2 0x2102 SWAP2 SWAP1 PUSH2 0x3A05 JUMP JUMPDEST SWAP3 SWAP5 SWAP2 SWAP4 POP POP JUMP JUMPDEST PUSH1 0x11 SLOAD PUSH1 0x1 PUSH1 0x1 PUSH1 0xA0 SHL SUB AND CALLER EQ PUSH2 0x2134 JUMPI PUSH1 0x40 MLOAD PUSH3 0x461BCD PUSH1 0xE5 SHL DUP2 MSTORE PUSH1 0x4 ADD PUSH2 0x8AE SWAP1 PUSH2 0x3870 JUMP JUMPDEST PUSH1 0x6 DUP1 SLOAD PUSH1 0x1 PUSH1 0x1 PUSH1 0xA0 SHL SUB NOT AND PUSH1 0x1 PUSH1 0x1 PUSH1 0xA0 SHL SUB SWAP3 SWAP1 SWAP3 AND SWAP2 SWAP1 SWAP2 OR SWAP1 SSTORE JUMP JUMPDEST PUSH1 0x1 PUSH1 0x1 PUSH1 0xA0 SHL SUB DUP2 AND PUSH1 0x0 SWAP1 DUP2 MSTORE PUSH1 0x20 DUP2 SWAP1 MSTORE PUSH1 0x40 DUP2 KECCAK256 SLOAD DUP1 DUP3 SUB PUSH2 0x217F JUMPI POP PUSH1 0x0 SWAP3 SWAP2 POP POP JUMP JUMPDEST PUSH1 0x0 JUMPDEST PUSH1 0x3 SLOAD DUP2 LT ISZERO PUSH2 0x221D JUMPI DUP4 PUSH1 0x1 PUSH1 0x1 PUSH1 0xA0 SHL SUB AND PUSH1 0x3 DUP3 DUP2 SLOAD DUP2 LT PUSH2 0x21A9 JUMPI PUSH2 0x21A9 PUSH2 0x39EF JUMP JUMPDEST PUSH1 0x0 SWAP2 DUP3 MSTORE PUSH1 0x20 SWAP1 SWAP2 KECCAK256 PUSH1 0x6 SWAP1 SWAP2 MUL ADD SLOAD PUSH1 0x1 PUSH1 0x1 PUSH1 0xA0 SHL SUB AND EQ DUP1 ISZERO PUSH2 0x21F3 JUMPI POP DUP2 PUSH1 0x3 DUP3 DUP2 SLOAD DUP2 LT PUSH2 0x21DF JUMPI PUSH2 0x21DF PUSH2 0x39EF JUMP JUMPDEST SWAP1 PUSH1 0x0 MSTORE PUSH1 0x20 PUSH1 0x0 KECCAK256 SWAP1 PUSH1 0x6 MUL ADD PUSH1 0x1 ADD SLOAD EQ JUMPDEST ISZERO PUSH2 0x220B JUMPI PUSH2 0x2203 DUP2 PUSH1 0x1 PUSH2 0x3816 JUMP JUMPDEST SWAP5 SWAP4 POP POP POP POP JUMP JUMPDEST DUP1 PUSH2 0x2215 DUP2 PUSH2 0x39D6 JUMP JUMPDEST SWAP2 POP POP PUSH2 0x2182 JUMP JUMPDEST POP PUSH1 0x0 SWAP4 SWAP3 POP POP POP JUMP JUMPDEST PUSH1 0x1 PUSH1 0x1 PUSH1 0xA0 SHL SUB DUP2 AND PUSH1 0x0 SWAP1 DUP2 MSTORE PUSH1 0x1 PUSH1 0x20 SWAP1 DUP2 MSTORE PUSH1 0x40 DUP1 DUP4 KECCAK256 DUP1 SLOAD DUP3 MLOAD DUP2 DUP6 MUL DUP2 ADD DUP6 ADD SWAP1 SWAP4 MSTORE DUP1 DUP4 MSTORE PUSH1 0x60 SWAP5 SWAP3 SWAP4 SWAP2 SWAP3 SWAP1 SWAP2 DUP5 ADD JUMPDEST DUP3 DUP3 LT ISZERO PUSH2 0x2369 JUMPI PUSH1 0x0 DUP5 DUP2 MSTORE PUSH1 0x20 SWAP1 DUP2 SWAP1 KECCAK256 PUSH1 0x40 DUP1 MLOAD PUSH1 0xC0 DUP2 ADD DUP3 MSTORE PUSH1 0x6 DUP7 MUL SWAP1 SWAP3 ADD DUP1 SLOAD PUSH1 0x1 PUSH1 0x1 PUSH1 0xA0 SHL SUB AND DUP4 MSTORE PUSH1 0x1 DUP2 ADD SLOAD SWAP4 DUP4 ADD SWAP4 SWAP1 SWAP4 MSTORE PUSH1 0x2 DUP4 ADD SLOAD PUSH1 0xFF AND SWAP1 DUP3 ADD MSTORE PUSH1 0x3 DUP3 ADD SLOAD PUSH1 0x60 DUP3 ADD MSTORE PUSH1 0x4 DUP3 ADD SLOAD PUSH2 0xFFFF AND PUSH1 0x80 DUP3 ADD MSTORE PUSH1 0x5 DUP3 ADD DUP1 SLOAD SWAP2 SWAP3 SWAP2 PUSH1 0xA0 DUP5 ADD SWAP2 SWAP1 PUSH2 0x22D8 SWAP1 PUSH2 0x3829 JUMP JUMPDEST DUP1 PUSH1 0x1F ADD PUSH1 0x20 DUP1 SWAP2 DIV MUL PUSH1 0x20 ADD PUSH1 0x40 MLOAD SWAP1 DUP2 ADD PUSH1 0x40 MSTORE DUP1 SWAP3 SWAP2 SWAP1 DUP2 DUP2 MSTORE PUSH1 0x20 ADD DUP3 DUP1 SLOAD PUSH2 0x2304 SWAP1 PUSH2 0x3829 JUMP JUMPDEST DUP1 ISZERO PUSH2 0x2351 JUMPI DUP1 PUSH1 0x1F LT PUSH2 0x2326 JUMPI PUSH2 0x100 DUP1 DUP4 SLOAD DIV MUL DUP4 MSTORE SWAP2 PUSH1 0x20 ADD SWAP2 PUSH2 0x2351 JUMP JUMPDEST DUP3 ADD SWAP2 SWAP1 PUSH1 0x0 MSTORE PUSH1 0x20 PUSH1 0x0 KECCAK256 SWAP1 JUMPDEST DUP2 SLOAD DUP2 MSTORE SWAP1 PUSH1 0x1 ADD SWAP1 PUSH1 0x20 ADD DUP1 DUP4 GT PUSH2 0x2334 JUMPI DUP3 SWAP1 SUB PUSH1 0x1F AND DUP3 ADD SWAP2 JUMPDEST POP POP POP POP POP DUP2 MSTORE POP POP DUP2 MSTORE PUSH1 0x20 ADD SWAP1 PUSH1 0x1 ADD SWAP1 PUSH2 0x225F JUMP JUMPDEST POP POP POP POP SWAP1 POP SWAP2 SWAP1 POP JUMP JUMPDEST PUSH1 0x4 DUP2 DUP2 SLOAD DUP2 LT PUSH2 0x2384 JUMPI PUSH1 0x0 DUP1 REVERT JUMPDEST PUSH1 0x0 SWAP2 DUP3 MSTORE PUSH1 0x20 SWAP1 SWAP2 KECCAK256 ADD SLOAD PUSH1 0x1 PUSH1 0x1 PUSH1 0xA0 SHL SUB AND SWAP1 POP DUP2 JUMP JUMPDEST PUSH1 0x1 PUSH1 0x1 PUSH1 0xA0 SHL SUB DUP3 AND PUSH1 0x0 SWAP1 DUP2 MSTORE PUSH1 0xA PUSH1 0x20 SWAP1 DUP2 MSTORE PUSH1 0x40 DUP1 DUP4 KECCAK256 DUP5 DUP5 MSTORE SWAP1 SWAP2 MSTORE SWAP1 KECCAK256 SLOAD TIMESTAMP LT JUMPDEST SWAP3 SWAP2 POP POP JUMP JUMPDEST PUSH1 0x11 SLOAD PUSH1 0x1 PUSH1 0x1 PUSH1 0xA0 SHL SUB AND CALLER EQ PUSH2 0x23F5 JUMPI PUSH1 0x40 MLOAD PUSH3 0x461BCD PUSH1 0xE5 SHL DUP2 MSTORE PUSH1 0x4 ADD PUSH2 0x8AE SWAP1 PUSH2 0x3870 JUMP JUMPDEST PUSH1 0xE SLOAD DUP2 LT PUSH2 0x243F JUMPI PUSH1 0x40 MLOAD PUSH3 0x461BCD PUSH1 0xE5 SHL DUP2 MSTORE PUSH1 0x20 PUSH1 0x4 DUP3 ADD MSTORE PUSH1 0x16 PUSH1 0x24 DUP3 ADD MSTORE PUSH22 0x125B9D985B1A59081858DA1A595D995B595B9D081251 PUSH1 0x52 SHL PUSH1 0x44 DUP3 ADD MSTORE PUSH1 0x64 ADD PUSH2 0x8AE JUMP JUMPDEST PUSH1 0x0 SWAP1 DUP2 MSTORE PUSH1 0x2 PUSH1 0x20 MSTORE PUSH1 0x40 SWAP1 KECCAK256 PUSH1 0x3 ADD DUP1 SLOAD PUSH2 0xFF00 NOT AND SWAP1 SSTORE JUMP JUMPDEST PUSH1 0x11 SLOAD PUSH1 0x1 PUSH1 0x1 PUSH1 0xA0 SHL SUB AND CALLER EQ PUSH2 0x2485 JUMPI PUSH1 0x40 MLOAD PUSH3 0x461BCD PUSH1 0xE5 SHL DUP2 MSTORE PUSH1 0x4 ADD PUSH2 0x8AE SWAP1 PUSH2 0x3870 JUMP JUMPDEST PUSH1 0x40 DUP1 MLOAD PUSH1 0x80 DUP2 ADD DUP3 MSTORE DUP5 DUP2 MSTORE PUSH1 0x20 DUP1 DUP3 ADD DUP6 SWAP1 MSTORE DUP2 DUP4 ADD DUP5 SWAP1 MSTORE PUSH1 0x1 PUSH1 0x60 DUP4 ADD MSTORE PUSH1 0xB SLOAD PUSH1 0x0 SWAP1 DUP2 MSTORE PUSH1 0x9 SWAP1 SWAP2 MSTORE SWAP2 SWAP1 SWAP2 KECCAK256 DUP2 MLOAD DUP2 SWAP1 PUSH2 0x24C6 SWAP1 DUP3 PUSH2 0x38FF JUMP JUMPDEST POP PUSH1 0x20 DUP3 ADD MLOAD PUSH1 0x1 DUP3 ADD SSTORE PUSH1 0x40 DUP3 ADD MLOAD PUSH1 0x2 DUP3 ADD SSTORE PUSH1 0x60 SWAP1 SWAP2 ADD MLOAD PUSH1 0x3 SWAP1 SWAP2 ADD DUP1 SLOAD PUSH1 0xFF NOT AND SWAP2 ISZERO ISZERO SWAP2 SWAP1 SWAP2 OR SWAP1 SSTORE PUSH1 0xB DUP1 SLOAD SWAP1 PUSH1 0x0 PUSH2 0x2505 DUP4 PUSH2 0x39D6 JUMP JUMPDEST SWAP2 SWAP1 POP SSTORE POP POP POP POP JUMP JUMPDEST PUSH1 0x11 SLOAD PUSH1 0x1 PUSH1 0x1 PUSH1 0xA0 SHL SUB AND CALLER EQ PUSH2 0x2539 JUMPI PUSH1 0x40 MLOAD PUSH3 0x461BCD PUSH1 0xE5 SHL DUP2 MSTORE PUSH1 0x4 ADD PUSH2 0x8AE SWAP1 PUSH2 0x3870 JUMP JUMPDEST PUSH1 0x1 PUSH1 0x1 PUSH1 0xA0 SHL SUB DUP2 AND PUSH2 0x2581 JUMPI PUSH1 0x40 MLOAD PUSH3 0x461BCD PUSH1 0xE5 SHL DUP2 MSTORE PUSH1 0x20 PUSH1 0x4 DUP3 ADD MSTORE PUSH1 0xF PUSH1 0x24 DUP3 ADD MSTORE PUSH15 0x496E76616C69642061646472657373 PUSH1 0x88 SHL PUSH1 0x44 DUP3 ADD MSTORE PUSH1 0x64 ADD PUSH2 0x8AE JUMP JUMPDEST PUSH1 0x11 DUP1 SLOAD PUSH1 0x1 PUSH1 0x1 PUSH1 0xA0 SHL SUB NOT AND PUSH1 0x1 PUSH1 0x1 PUSH1 0xA0 SHL SUB SWAP3 SWAP1 SWAP3 AND SWAP2 SWAP1 SWAP2 OR SWAP1 SSTORE JUMP JUMPDEST PUSH1 0x40 DUP1 MLOAD PUSH1 0xA0 DUP2 ADD DUP3 MSTORE DUP6 DUP2 MSTORE PUSH1 0x20 DUP1 DUP3 ADD DUP7 SWAP1 MSTORE DUP2 DUP4 ADD DUP6 SWAP1 MSTORE PUSH1 0xFF DUP5 AND PUSH1 0x60 DUP4 ADD MSTORE PUSH1 0x1 PUSH1 0x80 DUP4 ADD MSTORE PUSH1 0xE SLOAD PUSH1 0x0 SWAP1 DUP2 MSTORE PUSH1 0x2 SWAP1 SWAP2 MSTORE SWAP2 SWAP1 SWAP2 KECCAK256 DUP2 MLOAD DUP2 SWAP1 PUSH2 0x25ED SWAP1 DUP3 PUSH2 0x38FF JUMP JUMPDEST POP PUSH1 0x20 DUP3 ADD MLOAD PUSH1 0x1 DUP3 ADD SWAP1 PUSH2 0x2602 SWAP1 DUP3 PUSH2 0x38FF JUMP JUMPDEST POP PUSH1 0x40 DUP3 ADD MLOAD PUSH1 0x2 DUP3 ADD SSTORE PUSH1 0x60 DUP3 ADD MLOAD PUSH1 0x3 SWAP1 SWAP2 ADD DUP1 SLOAD PUSH1 0x80 SWAP1 SWAP4 ADD MLOAD ISZERO ISZERO PUSH2 0x100 MUL PUSH2 0xFFFF NOT SWAP1 SWAP4 AND PUSH1 0xFF SWAP1 SWAP3 AND SWAP2 SWAP1 SWAP2 OR SWAP2 SWAP1 SWAP2 OR SWAP1 SSTORE PUSH1 0xE DUP1 SLOAD SWAP1 PUSH1 0x0 PUSH2 0x264B DUP4 PUSH2 0x39D6 JUMP JUMPDEST SWAP2 SWAP1 POP SSTORE POP POP POP POP POP JUMP JUMPDEST PUSH1 0x0 PUSH3 0xF4240 DUP5 GT ISZERO PUSH2 0x266B JUMPI POP PUSH1 0x0 PUSH2 0x276B JUMP JUMPDEST PUSH2 0x2710 DUP3 PUSH2 0xFFFF AND GT ISZERO PUSH2 0x2681 JUMPI POP PUSH1 0x0 PUSH2 0x276B JUMP JUMPDEST PUSH2 0xFFFF DUP3 AND ISZERO PUSH2 0x26C1 JUMPI PUSH1 0x0 PUSH2 0x269B PUSH2 0xFFFF DUP5 AND DUP7 PUSH2 0x3A1E JUMP JUMPDEST SWAP1 POP PUSH1 0x5 DUP2 LT DUP1 PUSH2 0x26AC JUMPI POP PUSH1 0x96 DUP2 GT JUMPDEST ISZERO PUSH2 0x26BB JUMPI PUSH1 0x0 SWAP2 POP POP PUSH2 0x276B JUMP JUMPDEST POP PUSH2 0x26D2 JUMP JUMPDEST PUSH1 0x64 DUP5 GT ISZERO PUSH2 0x26D2 JUMPI POP PUSH1 0x0 PUSH2 0x276B JUMP JUMPDEST PUSH1 0x40 DUP1 MLOAD PUSH2 0x140 DUP2 ADD DUP3 MSTORE PUSH2 0x3E8 DUP2 MSTORE PUSH2 0xBB8 PUSH1 0x20 DUP3 ADD MSTORE PUSH2 0x1770 SWAP2 DUP2 ADD SWAP2 SWAP1 SWAP2 MSTORE PUSH2 0x2710 PUSH1 0x60 DUP3 ADD MSTORE PUSH2 0x3A98 PUSH1 0x80 DUP3 ADD MSTORE PUSH2 0x61A8 PUSH1 0xA0 DUP3 ADD MSTORE PUSH2 0x9C40 PUSH1 0xC0 DUP3 ADD MSTORE PUSH2 0xEA60 PUSH1 0xE0 DUP3 ADD MSTORE PUSH3 0x186A0 PUSH2 0x100 DUP3 ADD MSTORE PUSH3 0x30D40 PUSH2 0x120 DUP3 ADD MSTORE DUP1 PUSH2 0x273C PUSH1 0x1 DUP7 PUSH2 0x3A40 JUMP JUMPDEST PUSH1 0xFF AND PUSH1 0xA DUP2 LT PUSH2 0x274F JUMPI PUSH2 0x274F PUSH2 0x39EF JUMP JUMPDEST PUSH1 0x20 MUL ADD MLOAD DUP6 GT ISZERO PUSH2 0x2765 JUMPI PUSH1 0x0 SWAP2 POP POP PUSH2 0x276B JUMP JUMPDEST PUSH1 0x1 SWAP2 POP POP JUMPDEST SWAP4 SWAP3 POP POP POP JUMP JUMPDEST PUSH1 0x1 PUSH1 0x1 PUSH1 0xA0 SHL SUB DUP2 AND PUSH1 0x0 SWAP1 DUP2 MSTORE PUSH1 0x5 PUSH1 0x20 DUP2 SWAP1 MSTORE PUSH1 0x40 DUP3 KECCAK256 SLOAD PUSH2 0x2797 SWAP2 SWAP1 PUSH2 0x3816 JUMP JUMPDEST TIMESTAMP LT ISZERO PUSH2 0x27A6 JUMPI POP PUSH1 0x0 SWAP2 SWAP1 POP JUMP JUMPDEST POP PUSH1 0x1 PUSH1 0x1 PUSH1 0xA0 SHL SUB AND PUSH1 0x0 SWAP1 DUP2 MSTORE PUSH1 0x5 PUSH1 0x20 MSTORE PUSH1 0x40 SWAP1 KECCAK256 TIMESTAMP SWAP1 SSTORE PUSH1 0x1 SWAP1 JUMP JUMPDEST PUSH1 0x3 SLOAD PUSH1 0x0 SUB PUSH2 0x2922 JUMPI PUSH1 0x3 DUP1 SLOAD PUSH1 0x1 DUP2 ADD DUP3 SSTORE PUSH1 0x0 SWAP2 SWAP1 SWAP2 MSTORE DUP2 MLOAD PUSH32 0xC2575A0E9E593C00F959F8C92F12DB2869C3395A3B0502D05E2516446F71F85B PUSH1 0x6 SWAP1 SWAP3 MUL SWAP2 DUP3 ADD DUP1 SLOAD PUSH1 0x1 PUSH1 0x1 PUSH1 0xA0 SHL SUB NOT AND PUSH1 0x1 PUSH1 0x1 PUSH1 0xA0 SHL SUB SWAP1 SWAP3 AND SWAP2 SWAP1 SWAP2 OR DUP2 SSTORE PUSH1 0x20 DUP4 ADD MLOAD PUSH32 0xC2575A0E9E593C00F959F8C92F12DB2869C3395A3B0502D05E2516446F71F85C DUP4 ADD SSTORE PUSH1 0x40 DUP4 ADD MLOAD PUSH32 0xC2575A0E9E593C00F959F8C92F12DB2869C3395A3B0502D05E2516446F71F85D DUP4 ADD DUP1 SLOAD PUSH1 0xFF NOT AND PUSH1 0xFF SWAP1 SWAP3 AND SWAP2 SWAP1 SWAP2 OR SWAP1 SSTORE PUSH1 0x60 DUP4 ADD MLOAD PUSH32 0xC2575A0E9E593C00F959F8C92F12DB2869C3395A3B0502D05E2516446F71F85E DUP4 ADD SSTORE PUSH1 0x80 DUP4 ADD MLOAD PUSH32 0xC2575A0E9E593C00F959F8C92F12DB2869C3395A3B0502D05E2516446F71F85F DUP4 ADD DUP1 SLOAD PUSH2 0xFFFF NOT AND PUSH2 0xFFFF SWAP1 SWAP3 AND SWAP2 SWAP1 SWAP2 OR SWAP1 SSTORE PUSH1 0xA0 DUP4 ADD MLOAD DUP4 SWAP3 PUSH32 0xC2575A0E9E593C00F959F8C92F12DB2869C3395A3B0502D05E2516446F71F860 ADD SWAP1 PUSH2 0x10D7 SWAP1 DUP3 PUSH2 0x38FF JUMP JUMPDEST PUSH1 0x3 SLOAD PUSH1 0x0 JUMPDEST PUSH1 0x3 SLOAD DUP2 LT ISZERO PUSH2 0x297C JUMPI PUSH1 0x3 DUP2 DUP2 SLOAD DUP2 LT PUSH2 0x2945 JUMPI PUSH2 0x2945 PUSH2 0x39EF JUMP JUMPDEST SWAP1 PUSH1 0x0 MSTORE PUSH1 0x20 PUSH1 0x0 KECCAK256 SWAP1 PUSH1 0x6 MUL ADD PUSH1 0x1 ADD SLOAD DUP4 PUSH1 0x20 ADD MLOAD GT ISZERO PUSH2 0x296A JUMPI DUP1 SWAP2 POP PUSH2 0x297C JUMP JUMPDEST DUP1 PUSH2 0x2974 DUP2 PUSH2 0x39D6 JUMP JUMPDEST SWAP2 POP POP PUSH2 0x2928 JUMP JUMPDEST POP PUSH1 0x3 SLOAD DUP2 LT ISZERO PUSH2 0x2BFA JUMPI PUSH1 0x3 DUP1 SLOAD DUP2 SWAP1 PUSH2 0x2999 SWAP1 PUSH1 0x1 SWAP1 PUSH2 0x385D JUMP JUMPDEST DUP2 SLOAD DUP2 LT PUSH2 0x29A9 JUMPI PUSH2 0x29A9 PUSH2 0x39EF JUMP JUMPDEST PUSH1 0x0 SWAP2 DUP3 MSTORE PUSH1 0x20 DUP1 DUP4 KECCAK256 DUP5 SLOAD PUSH1 0x1 DUP2 DUP2 ADD DUP8 SSTORE SWAP6 DUP6 MSTORE SWAP2 SWAP1 SWAP4 KECCAK256 PUSH1 0x6 SWAP3 DUP4 MUL SWAP1 SWAP4 ADD DUP1 SLOAD SWAP2 SWAP1 SWAP3 MUL SWAP1 SWAP3 ADD DUP1 SLOAD PUSH1 0x1 PUSH1 0x1 PUSH1 0xA0 SHL SUB NOT AND PUSH1 0x1 PUSH1 0x1 PUSH1 0xA0 SHL SUB SWAP1 SWAP4 AND SWAP3 SWAP1 SWAP3 OR DUP3 SSTORE DUP3 DUP2 ADD SLOAD SWAP3 DUP3 ADD SWAP3 SWAP1 SWAP3 SSTORE PUSH1 0x2 DUP1 DUP4 ADD SLOAD SWAP1 DUP3 ADD DUP1 SLOAD PUSH1 0xFF NOT AND PUSH1 0xFF SWAP1 SWAP3 AND SWAP2 SWAP1 SWAP2 OR SWAP1 SSTORE PUSH1 0x3 DUP1 DUP4 ADD SLOAD SWAP1 DUP3 ADD SSTORE PUSH1 0x4 DUP1 DUP4 ADD SLOAD SWAP1 DUP3 ADD DUP1 SLOAD PUSH2 0xFFFF NOT AND PUSH2 0xFFFF SWAP1 SWAP3 AND SWAP2 SWAP1 SWAP2 OR SWAP1 SSTORE PUSH1 0x5 DUP1 DUP3 ADD SWAP1 PUSH2 0x2A4E SWAP1 DUP5 ADD DUP3 PUSH2 0x3A59 JUMP JUMPDEST POP POP PUSH1 0x3 SLOAD PUSH1 0x0 SWAP2 POP PUSH2 0x2A63 SWAP1 PUSH1 0x1 SWAP1 PUSH2 0x385D JUMP JUMPDEST SWAP1 POP JUMPDEST DUP2 DUP2 GT ISZERO PUSH2 0x2B4E JUMPI PUSH1 0x3 PUSH2 0x2A7B PUSH1 0x1 DUP4 PUSH2 0x385D JUMP JUMPDEST DUP2 SLOAD DUP2 LT PUSH2 0x2A8B JUMPI PUSH2 0x2A8B PUSH2 0x39EF JUMP JUMPDEST SWAP1 PUSH1 0x0 MSTORE PUSH1 0x20 PUSH1 0x0 KECCAK256 SWAP1 PUSH1 0x6 MUL ADD PUSH1 0x3 DUP3 DUP2 SLOAD DUP2 LT PUSH2 0x2AAC JUMPI PUSH2 0x2AAC PUSH2 0x39EF JUMP JUMPDEST PUSH1 0x0 SWAP2 DUP3 MSTORE PUSH1 0x20 SWAP1 SWAP2 KECCAK256 DUP3 SLOAD PUSH1 0x6 SWAP1 SWAP3 MUL ADD DUP1 SLOAD PUSH1 0x1 PUSH1 0x1 PUSH1 0xA0 SHL SUB NOT AND PUSH1 0x1 PUSH1 0x1 PUSH1 0xA0 SHL SUB SWAP1 SWAP3 AND SWAP2 SWAP1 SWAP2 OR DUP2 SSTORE PUSH1 0x1 DUP1 DUP4 ADD SLOAD SWAP1 DUP3 ADD SSTORE PUSH1 0x2 DUP1 DUP4 ADD SLOAD SWAP1 DUP3 ADD DUP1 SLOAD PUSH1 0xFF NOT AND PUSH1 0xFF SWAP1 SWAP3 AND SWAP2 SWAP1 SWAP2 OR SWAP1 SSTORE PUSH1 0x3 DUP1 DUP4 ADD SLOAD SWAP1 DUP3 ADD SSTORE PUSH1 0x4 DUP1 DUP4 ADD SLOAD SWAP1 DUP3 ADD DUP1 SLOAD PUSH2 0xFFFF NOT AND PUSH2 0xFFFF SWAP1 SWAP3 AND SWAP2 SWAP1 SWAP2 OR SWAP1 SSTORE PUSH1 0x5 DUP1 DUP3 ADD SWAP1 PUSH2 0x2B37 SWAP1 DUP5 ADD DUP3 PUSH2 0x3A59 JUMP JUMPDEST POP SWAP1 POP POP DUP1 DUP1 PUSH2 0x2B46 SWAP1 PUSH2 0x3B34 JUMP JUMPDEST SWAP2 POP POP PUSH2 0x2A66 JUMP JUMPDEST POP DUP2 PUSH1 0x3 DUP3 DUP2 SLOAD DUP2 LT PUSH2 0x2B63 JUMPI PUSH2 0x2B63 PUSH2 0x39EF JUMP JUMPDEST PUSH1 0x0 SWAP2 DUP3 MSTORE PUSH1 0x20 SWAP2 DUP3 SWAP1 KECCAK256 DUP4 MLOAD PUSH1 0x6 SWAP3 SWAP1 SWAP3 MUL ADD DUP1 SLOAD PUSH1 0x1 PUSH1 0x1 PUSH1 0xA0 SHL SUB NOT AND PUSH1 0x1 PUSH1 0x1 PUSH1 0xA0 SHL SUB SWAP1 SWAP3 AND SWAP2 SWAP1 SWAP2 OR DUP2 SSTORE SWAP1 DUP3 ADD MLOAD PUSH1 0x1 DUP3 ADD SSTORE PUSH1 0x40 DUP3 ADD MLOAD PUSH1 0x2 DUP3 ADD DUP1 SLOAD PUSH1 0xFF NOT AND PUSH1 0xFF SWAP1 SWAP3 AND SWAP2 SWAP1 SWAP2 OR SWAP1 SSTORE PUSH1 0x60 DUP3 ADD MLOAD PUSH1 0x3 DUP3 ADD SSTORE PUSH1 0x80 DUP3 ADD MLOAD PUSH1 0x4 DUP3 ADD DUP1 SLOAD PUSH2 0xFFFF NOT AND PUSH2 0xFFFF SWAP1 SWAP3 AND SWAP2 SWAP1 SWAP2 OR SWAP1 SSTORE PUSH1 0xA0 DUP3 ADD MLOAD PUSH1 0x5 DUP3 ADD SWAP1 PUSH2 0x2BF1 SWAP1 DUP3 PUSH2 0x38FF JUMP JUMPDEST POP SWAP1 POP POP PUSH2 0x2D50 JUMP JUMPDEST PUSH1 0x3 DUP1 SLOAD PUSH1 0x1 DUP2 ADD DUP3 SSTORE PUSH1 0x0 SWAP2 SWAP1 SWAP2 MSTORE DUP3 MLOAD PUSH32 0xC2575A0E9E593C00F959F8C92F12DB2869C3395A3B0502D05E2516446F71F85B PUSH1 0x6 SWAP1 SWAP3 MUL SWAP2 DUP3 ADD DUP1 SLOAD PUSH1 0x1 PUSH1 0x1 PUSH1 0xA0 SHL SUB NOT AND PUSH1 0x1 PUSH1 0x1 PUSH1 0xA0 SHL SUB SWAP1 SWAP3 AND SWAP2 SWAP1 SWAP2 OR DUP2 SSTORE PUSH1 0x20 DUP5 ADD MLOAD PUSH32 0xC2575A0E9E593C00F959F8C92F12DB2869C3395A3B0502D05E2516446F71F85C DUP4 ADD SSTORE PUSH1 0x40 DUP5 ADD MLOAD PUSH32 0xC2575A0E9E593C00F959F8C92F12DB2869C3395A3B0502D05E2516446F71F85D DUP4 ADD DUP1 SLOAD PUSH1 0xFF NOT AND PUSH1 0xFF SWAP1 SWAP3 AND SWAP2 SWAP1 SWAP2 OR SWAP1 SSTORE PUSH1 0x60 DUP5 ADD MLOAD PUSH32 0xC2575A0E9E593C00F959F8C92F12DB2869C3395A3B0502D05E2516446F71F85E DUP4 ADD SSTORE PUSH1 0x80 DUP5 ADD MLOAD PUSH32 0xC2575A0E9E593C00F959F8C92F12DB2869C3395A3B0502D05E2516446F71F85F DUP4 ADD DUP1 SLOAD PUSH2 0xFFFF NOT AND PUSH2 0xFFFF SWAP1 SWAP3 AND SWAP2 SWAP1 SWAP2 OR SWAP1 SSTORE PUSH1 0xA0 DUP5 ADD MLOAD DUP5 SWAP3 PUSH32 0xC2575A0E9E593C00F959F8C92F12DB2869C3395A3B0502D05E2516446F71F860 ADD SWAP1 PUSH2 0x2D4C SWAP1 DUP3 PUSH2 0x38FF JUMP JUMPDEST POP POP POP JUMPDEST PUSH1 0x3 SLOAD PUSH1 0x64 LT ISZERO PUSH2 0xA6E JUMPI PUSH1 0x3 DUP1 SLOAD DUP1 PUSH2 0x2D6C JUMPI PUSH2 0x2D6C PUSH2 0x3B4B JUMP JUMPDEST PUSH1 0x0 DUP3 DUP2 MSTORE PUSH1 0x20 DUP2 KECCAK256 PUSH1 0x6 PUSH1 0x0 NOT SWAP1 SWAP4 ADD SWAP3 DUP4 MUL ADD DUP1 SLOAD PUSH1 0x1 PUSH1 0x1 PUSH1 0xA0 SHL SUB NOT AND DUP2 SSTORE PUSH1 0x1 DUP2 ADD DUP3 SWAP1 SSTORE PUSH1 0x2 DUP2 ADD DUP1 SLOAD PUSH1 0xFF NOT AND SWAP1 SSTORE PUSH1 0x3 DUP2 ADD DUP3 SWAP1 SSTORE PUSH1 0x4 DUP2 ADD DUP1 SLOAD PUSH2 0xFFFF NOT AND SWAP1 SSTORE SWAP1 PUSH2 0x2DC4 PUSH1 0x5 DUP4 ADD DUP3 PUSH2 0x30AE JUMP JUMPDEST POP POP SWAP1 SSTORE POP POP JUMP JUMPDEST PUSH1 0x1 PUSH1 0x1 PUSH1 0xA0 SHL SUB DUP2 AND PUSH1 0x0 SWAP1 DUP2 MSTORE PUSH1 0x20 DUP2 SWAP1 MSTORE PUSH1 0x40 DUP2 KECCAK256 SWAP1 JUMPDEST PUSH1 0xE SLOAD DUP2 LT ISZERO PUSH2 0x2FB0 JUMPI PUSH1 0x0 DUP2 DUP2 MSTORE PUSH1 0x2 PUSH1 0x20 MSTORE PUSH1 0x40 SWAP1 KECCAK256 PUSH1 0x3 ADD SLOAD PUSH2 0x100 SWAP1 DIV PUSH1 0xFF AND ISZERO DUP1 PUSH2 0x2E47 JUMPI POP DUP2 PUSH1 0x5 ADD DUP2 DUP2 SLOAD DUP2 LT PUSH2 0x2E26 JUMPI PUSH2 0x2E26 PUSH2 0x39EF JUMP JUMPDEST SWAP1 PUSH1 0x0 MSTORE PUSH1 0x20 PUSH1 0x0 KECCAK256 SWAP1 PUSH1 0x20 SWAP2 DUP3 DUP3 DIV ADD SWAP2 SWAP1 MOD SWAP1 SLOAD SWAP1 PUSH2 0x100 EXP SWAP1 DIV PUSH1 0xFF AND JUMPDEST PUSH2 0x2F9E JUMPI PUSH1 0x0 DUP2 DUP2 MSTORE PUSH1 0x2 PUSH1 0x20 MSTORE PUSH1 0x40 DUP2 KECCAK256 PUSH1 0x3 ADD SLOAD DUP2 SWAP1 PUSH1 0xFF AND DUP2 SUB PUSH2 0x2E70 JUMPI POP DUP3 SLOAD PUSH2 0x2EE7 JUMP JUMPDEST PUSH1 0x0 DUP4 DUP2 MSTORE PUSH1 0x2 PUSH1 0x20 MSTORE PUSH1 0x40 SWAP1 KECCAK256 PUSH1 0x3 ADD SLOAD PUSH1 0xFF AND PUSH1 0x1 SUB PUSH2 0x2E9A JUMPI POP PUSH1 0x3 DUP4 ADD SLOAD PUSH1 0xFF AND PUSH2 0x2EE7 JUMP JUMPDEST PUSH1 0x0 DUP4 DUP2 MSTORE PUSH1 0x2 PUSH1 0x20 DUP2 SWAP1 MSTORE PUSH1 0x40 SWAP1 SWAP2 KECCAK256 PUSH1 0x3 ADD SLOAD PUSH1 0xFF AND SWAP1 SUB PUSH2 0x2EC3 JUMPI POP PUSH1 0x2 DUP4 ADD SLOAD PUSH2 0x2EE7 JUMP JUMPDEST PUSH1 0x0 DUP4 DUP2 MSTORE PUSH1 0x2 PUSH1 0x20 MSTORE PUSH1 0x40 SWAP1 KECCAK256 PUSH1 0x3 SWAP1 DUP2 ADD SLOAD PUSH1 0xFF AND SWAP1 SUB PUSH2 0x2EE7 JUMPI POP PUSH1 0x1 DUP4 ADD SLOAD JUMPDEST PUSH1 0x0 DUP4 DUP2 MSTORE PUSH1 0x2 PUSH1 0x20 DUP2 SWAP1 MSTORE PUSH1 0x40 SWAP1 SWAP2 KECCAK256 ADD SLOAD DUP2 LT PUSH2 0x2F9B JUMPI PUSH1 0x1 DUP5 PUSH1 0x5 ADD DUP5 DUP2 SLOAD DUP2 LT PUSH2 0x2F17 JUMPI PUSH2 0x2F17 PUSH2 0x39EF JUMP JUMPDEST SWAP1 PUSH1 0x0 MSTORE PUSH1 0x20 PUSH1 0x0 KECCAK256 SWAP1 PUSH1 0x20 SWAP2 DUP3 DUP3 DIV ADD SWAP2 SWAP1 MOD PUSH2 0x100 EXP DUP2 SLOAD DUP2 PUSH1 0xFF MUL NOT AND SWAP1 DUP4 ISZERO ISZERO MUL OR SWAP1 SSTORE POP PUSH1 0x1 SWAP2 POP DUP5 PUSH1 0x1 PUSH1 0x1 PUSH1 0xA0 SHL SUB AND PUSH32 0xCA8C9ACCCE1EA9B1E88E76D666C26849F39052A6344521346B739CDD29AD4AE6 PUSH1 0x2 PUSH1 0x0 DUP7 DUP2 MSTORE PUSH1 0x20 ADD SWAP1 DUP2 MSTORE PUSH1 0x20 ADD PUSH1 0x0 KECCAK256 PUSH1 0x0 ADD PUSH1 0x40 MLOAD PUSH2 0x2F92 SWAP2 SWAP1 PUSH2 0x3B61 JUMP JUMPDEST PUSH1 0x40 MLOAD DUP1 SWAP2 SUB SWAP1 LOG2 JUMPDEST POP POP JUMPDEST DUP1 PUSH2 0x2FA8 DUP2 PUSH2 0x39D6 JUMP JUMPDEST SWAP2 POP POP PUSH2 0x2DE6 JUMP JUMPDEST POP POP POP JUMP JUMPDEST PUSH1 0x0 PUSH2 0x2FC0 DUP3 PUSH2 0x2156 JUMP JUMPDEST SWAP1 POP DUP2 PUSH1 0x1 PUSH1 0x1 PUSH1 0xA0 SHL SUB AND PUSH32 0x24E225604268D6416871B32DB1BE8E49F497CAF8360393B31D71A34A4CE26693 DUP3 PUSH1 0x40 MLOAD PUSH2 0x2FFD SWAP2 DUP2 MSTORE PUSH1 0x20 ADD SWAP1 JUMP JUMPDEST PUSH1 0x40 MLOAD DUP1 SWAP2 SUB SWAP1 LOG2 POP POP JUMP JUMPDEST DUP3 DUP1 SLOAD DUP3 DUP3 SSTORE SWAP1 PUSH1 0x0 MSTORE PUSH1 0x20 PUSH1 0x0 KECCAK256 SWAP1 PUSH1 0x1F ADD PUSH1 0x20 SWAP1 DIV DUP2 ADD SWAP3 DUP3 ISZERO PUSH2 0x309E JUMPI SWAP2 PUSH1 0x20 MUL DUP3 ADD PUSH1 0x0 JUMPDEST DUP4 DUP3 GT ISZERO PUSH2 0x306F JUMPI DUP4 MLOAD DUP4 DUP3 PUSH2 0x100 EXP DUP2 SLOAD DUP2 PUSH1 0xFF MUL NOT AND SWAP1 DUP4 ISZERO ISZERO MUL OR SWAP1 SSTORE POP SWAP3 PUSH1 0x20 ADD SWAP3 PUSH1 0x1 ADD PUSH1 0x20 DUP2 PUSH1 0x0 ADD DIV SWAP3 DUP4 ADD SWAP3 PUSH1 0x1 SUB MUL PUSH2 0x3032 JUMP JUMPDEST DUP1 ISZERO PUSH2 0x309C JUMPI DUP3 DUP2 PUSH2 0x100 EXP DUP2 SLOAD SWAP1 PUSH1 0xFF MUL NOT AND SWAP1 SSTORE PUSH1 0x1 ADD PUSH1 0x20 DUP2 PUSH1 0x0 ADD DIV SWAP3 DUP4 ADD SWAP3 PUSH1 0x1 SUB MUL PUSH2 0x306F JUMP JUMPDEST POP JUMPDEST POP PUSH2 0x30AA SWAP3 SWAP2 POP PUSH2 0x30E4 JUMP JUMPDEST POP SWAP1 JUMP JUMPDEST POP DUP1 SLOAD PUSH2 0x30BA SWAP1 PUSH2 0x3829 JUMP JUMPDEST PUSH1 0x0 DUP3 SSTORE DUP1 PUSH1 0x1F LT PUSH2 0x30CA JUMPI POP POP JUMP JUMPDEST PUSH1 0x1F ADD PUSH1 0x20 SWAP1 DIV SWAP1 PUSH1 0x0 MSTORE PUSH1 0x20 PUSH1 0x0 KECCAK256 SWAP1 DUP2 ADD SWAP1 PUSH2 0xF94 SWAP2 SWAP1 JUMPDEST JUMPDEST DUP1 DUP3 GT ISZERO PUSH2 0x30AA JUMPI PUSH1 0x0 DUP2 SSTORE PUSH1 0x1 ADD PUSH2 0x30E5 JUMP JUMPDEST PUSH1 0x0 PUSH1 0x20 DUP3 DUP5 SUB SLT ISZERO PUSH2 0x310B JUMPI PUSH1 0x0 DUP1 REVERT JUMPDEST POP CALLDATALOAD SWAP2 SWAP1 POP JUMP JUMPDEST DUP1 CALLDATALOAD PUSH1 0x1 PUSH1 0x1 PUSH1 0xA0 SHL SUB DUP2 AND DUP2 EQ PUSH2 0x3129 JUMPI PUSH1 0x0 DUP1 REVERT JUMPDEST SWAP2 SWAP1 POP JUMP JUMPDEST PUSH1 0x0 PUSH1 0x20 DUP3 DUP5 SUB SLT ISZERO PUSH2 0x3140 JUMPI PUSH1 0x0 DUP1 REVERT JUMPDEST PUSH2 0x276B DUP3 PUSH2 0x3112 JUMP JUMPDEST PUSH1 0x0 DUP2 MLOAD DUP1 DUP5 MSTORE PUSH1 0x0 JUMPDEST DUP2 DUP2 LT ISZERO PUSH2 0x316F JUMPI PUSH1 0x20 DUP2 DUP6 ADD DUP2 ADD MLOAD DUP7 DUP4 ADD DUP3 ADD MSTORE ADD PUSH2 0x3153 JUMP JUMPDEST POP PUSH1 0x0 PUSH1 0x20 DUP3 DUP7 ADD ADD MSTORE PUSH1 0x20 PUSH1 0x1F NOT PUSH1 0x1F DUP4 ADD AND DUP6 ADD ADD SWAP2 POP POP SWAP3 SWAP2 POP POP JUMP JUMPDEST PUSH1 0x20 DUP2 MSTORE PUSH1 0x0 PUSH2 0x276B PUSH1 0x20 DUP4 ADD DUP5 PUSH2 0x3149 JUMP JUMPDEST PUSH1 0xA0 DUP2 MSTORE PUSH1 0x0 PUSH2 0x31B5 PUSH1 0xA0 DUP4 ADD DUP9 PUSH2 0x3149 JUMP JUMPDEST DUP3 DUP2 SUB PUSH1 0x20 DUP5 ADD MSTORE PUSH2 0x31C7 DUP2 DUP9 PUSH2 0x3149 JUMP JUMPDEST PUSH1 0x40 DUP5 ADD SWAP7 SWAP1 SWAP7 MSTORE POP POP PUSH1 0xFF SWAP3 SWAP1 SWAP3 AND PUSH1 0x60 DUP4 ADD MSTORE ISZERO ISZERO PUSH1 0x80 SWAP1 SWAP2 ADD MSTORE SWAP3 SWAP2 POP POP JUMP JUMPDEST PUSH1 0x1 DUP1 PUSH1 0xA0 SHL SUB DUP8 AND DUP2 MSTORE DUP6 PUSH1 0x20 DUP3 ADD MSTORE PUSH1 0xFF DUP6 AND PUSH1 0x40 DUP3 ADD MSTORE DUP4 PUSH1 0x60 DUP3 ADD MSTORE PUSH2 0xFFFF DUP4 AND PUSH1 0x80 DUP3 ADD MSTORE PUSH1 0xC0 PUSH1 0xA0 DUP3 ADD MSTORE PUSH1 0x0 PUSH2 0x322A PUSH1 0xC0 DUP4 ADD DUP5 PUSH2 0x3149 JUMP JUMPDEST SWAP9 SWAP8 POP POP POP POP POP POP POP POP JUMP JUMPDEST PUSH1 0x20 DUP1 DUP3 MSTORE DUP3 MLOAD DUP3 DUP3 ADD DUP2 SWAP1 MSTORE PUSH1 0x0 SWAP2 SWAP1 DUP5 DUP3 ADD SWAP1 PUSH1 0x40 DUP6 ADD SWAP1 DUP5 JUMPDEST DUP2 DUP2 LT ISZERO PUSH2 0x3277 JUMPI DUP4 MLOAD PUSH1 0x1 PUSH1 0x1 PUSH1 0xA0 SHL SUB AND DUP4 MSTORE SWAP3 DUP5 ADD SWAP3 SWAP2 DUP5 ADD SWAP2 PUSH1 0x1 ADD PUSH2 0x3252 JUMP JUMPDEST POP SWAP1 SWAP7 SWAP6 POP POP POP POP POP POP JUMP JUMPDEST PUSH4 0x4E487B71 PUSH1 0xE0 SHL PUSH1 0x0 MSTORE PUSH1 0x41 PUSH1 0x4 MSTORE PUSH1 0x24 PUSH1 0x0 REVERT JUMPDEST PUSH1 0x0 DUP3 PUSH1 0x1F DUP4 ADD SLT PUSH2 0x32AA JUMPI PUSH1 0x0 DUP1 REVERT JUMPDEST DUP2 CALLDATALOAD PUSH8 0xFFFFFFFFFFFFFFFF DUP1 DUP3 GT ISZERO PUSH2 0x32C5 JUMPI PUSH2 0x32C5 PUSH2 0x3283 JUMP JUMPDEST PUSH1 0x40 MLOAD PUSH1 0x1F DUP4 ADD PUSH1 0x1F NOT SWAP1 DUP2 AND PUSH1 0x3F ADD AND DUP2 ADD SWAP1 DUP3 DUP3 GT DUP2 DUP4 LT OR ISZERO PUSH2 0x32ED JUMPI PUSH2 0x32ED PUSH2 0x3283 JUMP JUMPDEST DUP2 PUSH1 0x40 MSTORE DUP4 DUP2 MSTORE DUP7 PUSH1 0x20 DUP6 DUP9 ADD ADD GT ISZERO PUSH2 0x3306 JUMPI PUSH1 0x0 DUP1 REVERT JUMPDEST DUP4 PUSH1 0x20 DUP8 ADD PUSH1 0x20 DUP4 ADD CALLDATACOPY PUSH1 0x0 PUSH1 0x20 DUP6 DUP4 ADD ADD MSTORE DUP1 SWAP5 POP POP POP POP POP SWAP3 SWAP2 POP POP JUMP JUMPDEST PUSH1 0x0 PUSH1 0x20 DUP3 DUP5 SUB SLT ISZERO PUSH2 0x3338 JUMPI PUSH1 0x0 DUP1 REVERT JUMPDEST DUP2 CALLDATALOAD PUSH8 0xFFFFFFFFFFFFFFFF DUP2 GT ISZERO PUSH2 0x334F JUMPI PUSH1 0x0 DUP1 REVERT JUMPDEST PUSH2 0x2203 DUP5 DUP3 DUP6 ADD PUSH2 0x3299 JUMP JUMPDEST PUSH1 0x0 DUP2 MLOAD DUP1 DUP5 MSTORE PUSH1 0x20 DUP1 DUP6 ADD SWAP5 POP DUP1 DUP5 ADD PUSH1 0x0 JUMPDEST DUP4 DUP2 LT ISZERO PUSH2 0x338D JUMPI DUP2 MLOAD ISZERO ISZERO DUP8 MSTORE SWAP6 DUP3 ADD SWAP6 SWAP1 DUP3 ADD SWAP1 PUSH1 0x1 ADD PUSH2 0x336F JUMP JUMPDEST POP SWAP5 SWAP6 SWAP5 POP POP POP POP POP JUMP JUMPDEST PUSH1 0x20 DUP2 MSTORE DUP2 MLOAD PUSH1 0x20 DUP3 ADD MSTORE PUSH1 0x20 DUP3 ADD MLOAD PUSH1 0x40 DUP3 ADD MSTORE PUSH1 0x40 DUP3 ADD MLOAD PUSH1 0x60 DUP3 ADD MSTORE PUSH1 0xFF PUSH1 0x60 DUP4 ADD MLOAD AND PUSH1 0x80 DUP3 ADD MSTORE PUSH1 0x80 DUP3 ADD MLOAD PUSH1 0xA0 DUP3 ADD MSTORE PUSH1 0x0 PUSH1 0xA0 DUP4 ADD MLOAD PUSH1 0xC0 DUP1 DUP5 ADD MSTORE PUSH2 0x2203 PUSH1 0xE0 DUP5 ADD DUP3 PUSH2 0x335B JUMP JUMPDEST DUP1 CALLDATALOAD PUSH1 0xFF DUP2 AND DUP2 EQ PUSH2 0x3129 JUMPI PUSH1 0x0 DUP1 REVERT JUMPDEST PUSH1 0x0 DUP1 PUSH1 0x0 DUP1 PUSH1 0x80 DUP6 DUP8 SUB SLT ISZERO PUSH2 0x340F JUMPI PUSH1 0x0 DUP1 REVERT JUMPDEST DUP5 CALLDATALOAD PUSH8 0xFFFFFFFFFFFFFFFF DUP1 DUP3 GT ISZERO PUSH2 0x3427 JUMPI PUSH1 0x0 DUP1 REVERT JUMPDEST PUSH2 0x3433 DUP9 DUP4 DUP10 ADD PUSH2 0x3299 JUMP JUMPDEST SWAP6 POP PUSH1 0x20 DUP8 ADD CALLDATALOAD SWAP2 POP DUP1 DUP3 GT ISZERO PUSH2 0x3449 JUMPI PUSH1 0x0 DUP1 REVERT JUMPDEST POP PUSH2 0x3456 DUP8 DUP3 DUP9 ADD PUSH2 0x3299 JUMP JUMPDEST SWAP4 POP POP PUSH1 0x40 DUP6 ADD CALLDATALOAD SWAP2 POP PUSH2 0x346C PUSH1 0x60 DUP7 ADD PUSH2 0x33E8 JUMP JUMPDEST SWAP1 POP SWAP3 SWAP6 SWAP2 SWAP5 POP SWAP3 POP JUMP JUMPDEST PUSH1 0x80 DUP2 MSTORE PUSH1 0x0 PUSH2 0x348A PUSH1 0x80 DUP4 ADD DUP8 PUSH2 0x3149 JUMP JUMPDEST PUSH1 0x20 DUP4 ADD SWAP6 SWAP1 SWAP6 MSTORE POP PUSH1 0x40 DUP2 ADD SWAP3 SWAP1 SWAP3 MSTORE ISZERO ISZERO PUSH1 0x60 SWAP1 SWAP2 ADD MSTORE SWAP2 SWAP1 POP JUMP JUMPDEST PUSH1 0x0 DUP1 PUSH1 0x0 DUP1 PUSH1 0x80 DUP6 DUP8 SUB SLT ISZERO PUSH2 0x34BE JUMPI PUSH1 0x0 DUP1 REVERT JUMPDEST DUP5 CALLDATALOAD SWAP4 POP PUSH2 0x34CE PUSH1 0x20 DUP7 ADD PUSH2 0x33E8 JUMP JUMPDEST SWAP3 POP PUSH1 0x40 DUP6 ADD CALLDATALOAD PUSH2 0xFFFF DUP2 AND DUP2 EQ PUSH2 0x34E5 JUMPI PUSH1 0x0 DUP1 REVERT JUMPDEST SWAP2 POP PUSH1 0x60 DUP6 ADD CALLDATALOAD PUSH8 0xFFFFFFFFFFFFFFFF DUP2 GT ISZERO PUSH2 0x3501 JUMPI PUSH1 0x0 DUP1 REVERT JUMPDEST PUSH2 0x350D DUP8 DUP3 DUP9 ADD PUSH2 0x3299 JUMP JUMPDEST SWAP2 POP POP SWAP3 SWAP6 SWAP2 SWAP5 POP SWAP3 POP JUMP JUMPDEST PUSH1 0x0 DUP2 MLOAD PUSH1 0x80 DUP5 MSTORE PUSH2 0x352E PUSH1 0x80 DUP6 ADD DUP3 PUSH2 0x3149 JUMP JUMPDEST SWAP1 POP PUSH1 0x20 DUP4 ADD MLOAD PUSH1 0x20 DUP6 ADD MSTORE PUSH1 0x40 DUP4 ADD MLOAD PUSH1 0x40 DUP6 ADD MSTORE PUSH1 0x60 DUP4 ADD MLOAD ISZERO ISZERO PUSH1 0x60 DUP6 ADD MSTORE DUP1 SWAP2 POP POP SWAP3 SWAP2 POP POP JUMP JUMPDEST PUSH1 0x20 DUP2 MSTORE PUSH1 0x0 PUSH2 0x276B PUSH1 0x20 DUP4 ADD DUP5 PUSH2 0x3519 JUMP JUMPDEST PUSH1 0x0 DUP1 PUSH1 0x40 DUP4 DUP6 SUB SLT ISZERO PUSH2 0x3580 JUMPI PUSH1 0x0 DUP1 REVERT JUMPDEST PUSH2 0x3589 DUP4 PUSH2 0x3112 JUMP JUMPDEST SWAP5 PUSH1 0x20 SWAP4 SWAP1 SWAP4 ADD CALLDATALOAD SWAP4 POP POP POP JUMP JUMPDEST PUSH1 0x0 PUSH1 0x20 DUP1 DUP4 ADD DUP2 DUP5 MSTORE DUP1 DUP6 MLOAD DUP1 DUP4 MSTORE PUSH1 0x40 SWAP3 POP DUP3 DUP7 ADD SWAP2 POP DUP3 DUP2 PUSH1 0x5 SHL DUP8 ADD ADD DUP5 DUP9 ADD PUSH1 0x0 JUMPDEST DUP4 DUP2 LT ISZERO PUSH2 0x3633 JUMPI PUSH1 0x3F NOT DUP10 DUP5 SUB ADD DUP6 MSTORE DUP2 MLOAD PUSH1 0xA0 DUP2 MLOAD DUP2 DUP7 MSTORE PUSH2 0x35E4 DUP3 DUP8 ADD DUP3 PUSH2 0x3149 JUMP JUMPDEST SWAP2 POP POP DUP9 DUP3 ADD MLOAD DUP6 DUP3 SUB DUP11 DUP8 ADD MSTORE PUSH2 0x35FC DUP3 DUP3 PUSH2 0x3149 JUMP JUMPDEST DUP4 DUP11 ADD MLOAD DUP8 DUP12 ADD MSTORE PUSH1 0x60 DUP1 DUP6 ADD MLOAD PUSH1 0xFF AND SWAP1 DUP9 ADD MSTORE PUSH1 0x80 SWAP4 DUP5 ADD MLOAD ISZERO ISZERO SWAP4 SWAP1 SWAP7 ADD SWAP3 SWAP1 SWAP3 MSTORE POP POP SWAP4 DUP7 ADD SWAP4 SWAP1 DUP7 ADD SWAP1 PUSH1 0x1 ADD PUSH2 0x35BE JUMP JUMPDEST POP SWAP1 SWAP9 SWAP8 POP POP POP POP POP POP POP POP JUMP JUMPDEST PUSH1 0x1 DUP1 PUSH1 0xA0 SHL SUB DUP6 AND DUP2 MSTORE DUP4 ISZERO ISZERO PUSH1 0x20 DUP3 ADD MSTORE DUP3 PUSH1 0x40 DUP3 ADD MSTORE PUSH1 0x80 PUSH1 0x60 DUP3 ADD MSTORE PUSH1 0x0 PUSH2 0x3670 PUSH1 0x80 DUP4 ADD DUP5 PUSH2 0x3149 JUMP JUMPDEST SWAP7 SWAP6 POP POP POP POP POP POP JUMP JUMPDEST PUSH1 0x0 PUSH1 0x20 DUP1 DUP4 ADD DUP2 DUP5 MSTORE DUP1 DUP6 MLOAD DUP1 DUP4 MSTORE PUSH1 0x40 SWAP3 POP DUP3 DUP7 ADD SWAP2 POP DUP3 DUP2 PUSH1 0x5 SHL DUP8 ADD ADD DUP5 DUP9 ADD PUSH1 0x0 JUMPDEST DUP4 DUP2 LT ISZERO PUSH2 0x3633 JUMPI DUP9 DUP4 SUB PUSH1 0x3F NOT ADD DUP6 MSTORE DUP2 MLOAD DUP1 MLOAD PUSH1 0x1 PUSH1 0x1 PUSH1 0xA0 SHL SUB AND DUP5 MSTORE DUP8 DUP2 ADD MLOAD DUP9 DUP6 ADD MSTORE DUP7 DUP2 ADD MLOAD PUSH1 0xFF AND DUP8 DUP6 ADD MSTORE PUSH1 0x60 DUP1 DUP3 ADD MLOAD SWAP1 DUP6 ADD MSTORE PUSH1 0x80 DUP1 DUP3 ADD MLOAD PUSH2 0xFFFF AND SWAP1 DUP6 ADD MSTORE PUSH1 0xA0 SWAP1 DUP2 ADD MLOAD PUSH1 0xC0 SWAP2 DUP6 ADD DUP3 SWAP1 MSTORE SWAP1 PUSH2 0x3707 DUP2 DUP7 ADD DUP4 PUSH2 0x3149 JUMP JUMPDEST SWAP7 DUP10 ADD SWAP7 SWAP5 POP POP POP SWAP1 DUP7 ADD SWAP1 PUSH1 0x1 ADD PUSH2 0x36A1 JUMP JUMPDEST PUSH1 0x0 PUSH1 0x20 DUP1 DUP4 ADD DUP2 DUP5 MSTORE DUP1 DUP6 MLOAD DUP1 DUP4 MSTORE PUSH1 0x40 DUP7 ADD SWAP2 POP PUSH1 0x40 DUP2 PUSH1 0x5 SHL DUP8 ADD ADD SWAP3 POP DUP4 DUP8 ADD PUSH1 0x0 JUMPDEST DUP3 DUP2 LT ISZERO PUSH2 0x3770 JUMPI PUSH1 0x3F NOT DUP9 DUP7 SUB ADD DUP5 MSTORE PUSH2 0x375E DUP6 DUP4 MLOAD PUSH2 0x3519 JUMP JUMPDEST SWAP5 POP SWAP3 DUP6 ADD SWAP3 SWAP1 DUP6 ADD SWAP1 PUSH1 0x1 ADD PUSH2 0x3742 JUMP JUMPDEST POP SWAP3 SWAP8 SWAP7 POP POP POP POP POP POP POP JUMP JUMPDEST PUSH1 0x20 DUP2 MSTORE PUSH1 0x0 PUSH2 0x276B PUSH1 0x20 DUP4 ADD DUP5 PUSH2 0x335B JUMP JUMPDEST PUSH1 0x0 DUP1 PUSH1 0x0 PUSH1 0x60 DUP5 DUP7 SUB SLT ISZERO PUSH2 0x37A5 JUMPI PUSH1 0x0 DUP1 REVERT JUMPDEST DUP4 CALLDATALOAD PUSH8 0xFFFFFFFFFFFFFFFF DUP2 GT ISZERO PUSH2 0x37BC JUMPI PUSH1 0x0 DUP1 REVERT JUMPDEST PUSH2 0x37C8 DUP7 DUP3 DUP8 ADD PUSH2 0x3299 JUMP JUMPDEST SWAP7 PUSH1 0x20 DUP7 ADD CALLDATALOAD SWAP7 POP PUSH1 0x40 SWAP1 SWAP6 ADD CALLDATALOAD SWAP5 SWAP4 POP POP POP POP JUMP JUMPDEST PUSH1 0x0 PUSH1 0x20 DUP3 DUP5 SUB SLT ISZERO PUSH2 0x37F0 JUMPI PUSH1 0x0 DUP1 REVERT JUMPDEST DUP2 MLOAD DUP1 ISZERO ISZERO DUP2 EQ PUSH2 0x276B JUMPI PUSH1 0x0 DUP1 REVERT JUMPDEST PUSH4 0x4E487B71 PUSH1 0xE0 SHL PUSH1 0x0 MSTORE PUSH1 0x11 PUSH1 0x4 MSTORE PUSH1 0x24 PUSH1 0x0 REVERT JUMPDEST DUP1 DUP3 ADD DUP1 DUP3 GT ISZERO PUSH2 0x23C5 JUMPI PUSH2 0x23C5 PUSH2 0x3800 JUMP JUMPDEST PUSH1 0x1 DUP2 DUP2 SHR SWAP1 DUP3 AND DUP1 PUSH2 0x383D JUMPI PUSH1 0x7F DUP3 AND SWAP2 POP JUMPDEST PUSH1 0x20 DUP3 LT DUP2 SUB PUSH2 0x1B4F JUMPI PUSH4 0x4E487B71 PUSH1 0xE0 SHL PUSH1 0x0 MSTORE PUSH1 0x22 PUSH1 0x4 MSTORE PUSH1 0x24 PUSH1 0x0 REVERT JUMPDEST DUP2 DUP2 SUB DUP2 DUP2 GT ISZERO PUSH2 0x23C5 JUMPI PUSH2 0x23C5 PUSH2 0x3800 JUMP JUMPDEST PUSH1 0x20 DUP1 DUP3 MSTORE PUSH1 0x21 SWAP1 DUP3 ADD MSTORE PUSH32 0x4F6E6C79206F776E65722063616E2063616C6C20746869732066756E6374696F PUSH1 0x40 DUP3 ADD MSTORE PUSH1 0x37 PUSH1 0xF9 SHL PUSH1 0x60 DUP3 ADD MSTORE PUSH1 0x80 ADD SWAP1 JUMP JUMPDEST PUSH1 0x1F DUP3 GT ISZERO PUSH2 0x2FB0 JUMPI PUSH1 0x0 DUP2 DUP2 MSTORE PUSH1 0x20 DUP2 KECCAK256 PUSH1 0x1F DUP6 ADD PUSH1 0x5 SHR DUP2 ADD PUSH1 0x20 DUP7 LT ISZERO PUSH2 0x38D8 JUMPI POP DUP1 JUMPDEST PUSH1 0x1F DUP6 ADD PUSH1 0x5 SHR DUP3 ADD SWAP2 POP JUMPDEST DUP2 DUP2 LT ISZERO PUSH2 0x38F7 JUMPI DUP3 DUP2 SSTORE PUSH1 0x1 ADD PUSH2 0x38E4 JUMP JUMPDEST POP POP POP POP POP POP JUMP JUMPDEST DUP2 MLOAD PUSH8 0xFFFFFFFFFFFFFFFF DUP2 GT ISZERO PUSH2 0x3919 JUMPI PUSH2 0x3919 PUSH2 0x3283 JUMP JUMPDEST PUSH2 0x392D DUP2 PUSH2 0x3927 DUP5 SLOAD PUSH2 0x3829 JUMP JUMPDEST DUP5 PUSH2 0x38B1 JUMP JUMPDEST PUSH1 0x20 DUP1 PUSH1 0x1F DUP4 GT PUSH1 0x1 DUP2 EQ PUSH2 0x3962 JUMPI PUSH1 0x0 DUP5 ISZERO PUSH2 0x394A JUMPI POP DUP6 DUP4 ADD MLOAD JUMPDEST PUSH1 0x0 NOT PUSH1 0x3 DUP7 SWAP1 SHL SHR NOT AND PUSH1 0x1 DUP6 SWAP1 SHL OR DUP6 SSTORE PUSH2 0x38F7 JUMP JUMPDEST PUSH1 0x0 DUP6 DUP2 MSTORE PUSH1 0x20 DUP2 KECCAK256 PUSH1 0x1F NOT DUP7 AND SWAP2 JUMPDEST DUP3 DUP2 LT ISZERO PUSH2 0x3991 JUMPI DUP9 DUP7 ADD MLOAD DUP3 SSTORE SWAP5 DUP5 ADD SWAP5 PUSH1 0x1 SWAP1 SWAP2 ADD SWAP1 DUP5 ADD PUSH2 0x3972 JUMP JUMPDEST POP DUP6 DUP3 LT ISZERO PUSH2 0x39AF JUMPI DUP8 DUP6 ADD MLOAD PUSH1 0x0 NOT PUSH1 0x3 DUP9 SWAP1 SHL PUSH1 0xF8 AND SHR NOT AND DUP2 SSTORE JUMPDEST POP POP POP POP POP PUSH1 0x1 SWAP1 DUP2 SHL ADD SWAP1 SSTORE POP JUMP JUMPDEST DUP1 DUP3 MUL DUP2 ISZERO DUP3 DUP3 DIV DUP5 EQ OR PUSH2 0x23C5 JUMPI PUSH2 0x23C5 PUSH2 0x3800 JUMP JUMPDEST PUSH1 0x0 PUSH1 0x1 DUP3 ADD PUSH2 0x39E8 JUMPI PUSH2 0x39E8 PUSH2 0x3800 JUMP JUMPDEST POP PUSH1 0x1 ADD SWAP1 JUMP JUMPDEST PUSH4 0x4E487B71 PUSH1 0xE0 SHL PUSH1 0x0 MSTORE PUSH1 0x32 PUSH1 0x4 MSTORE PUSH1 0x24 PUSH1 0x0 REVERT JUMPDEST PUSH1 0x0 PUSH1 0x20 DUP3 DUP5 SUB SLT ISZERO PUSH2 0x3A17 JUMPI PUSH1 0x0 DUP1 REVERT JUMPDEST POP MLOAD SWAP2 SWAP1 POP JUMP JUMPDEST PUSH1 0x0 DUP3 PUSH2 0x3A3B JUMPI PUSH4 0x4E487B71 PUSH1 0xE0 SHL PUSH1 0x0 MSTORE PUSH1 0x12 PUSH1 0x4 MSTORE PUSH1 0x24 PUSH1 0x0 REVERT JUMPDEST POP DIV SWAP1 JUMP JUMPDEST PUSH1 0xFF DUP3 DUP2 AND DUP3 DUP3 AND SUB SWAP1 DUP2 GT ISZERO PUSH2 0x23C5 JUMPI PUSH2 0x23C5 PUSH2 0x3800 JUMP JUMPDEST DUP2 DUP2 SUB PUSH2 0x3A64 JUMPI POP POP JUMP JUMPDEST PUSH2 0x3A6E DUP3 SLOAD PUSH2 0x3829 JUMP JUMPDEST PUSH8 0xFFFFFFFFFFFFFFFF DUP2 GT ISZERO PUSH2 0x3A86 JUMPI PUSH2 0x3A86 PUSH2 0x3283 JUMP JUMPDEST PUSH2 0x3A94 DUP2 PUSH2 0x3927 DUP5 SLOAD PUSH2 0x3829 JUMP JUMPDEST PUSH1 0x0 PUSH1 0x1F DUP3 GT PUSH1 0x1 DUP2 EQ PUSH2 0x3AC8 JUMPI PUSH1 0x0 DUP4 ISZERO PUSH2 0x3AB0 JUMPI POP DUP5 DUP3 ADD SLOAD JUMPDEST PUSH1 0x0 NOT PUSH1 0x3 DUP6 SWAP1 SHL SHR NOT AND PUSH1 0x1 DUP5 SWAP1 SHL OR DUP5 SSTORE PUSH2 0x3B2D JUMP JUMPDEST PUSH1 0x0 DUP6 DUP2 MSTORE PUSH1 0x20 SWAP1 KECCAK256 PUSH1 0x1F NOT DUP5 AND SWAP1 PUSH1 0x0 DUP7 DUP2 MSTORE PUSH1 0x20 SWAP1 KECCAK256 DUP5 JUMPDEST DUP4 DUP2 LT ISZERO PUSH2 0x3B02 JUMPI DUP3 DUP7 ADD SLOAD DUP3 SSTORE PUSH1 0x1 SWAP6 DUP7 ADD SWAP6 SWAP1 SWAP2 ADD SWAP1 PUSH1 0x20 ADD PUSH2 0x3AE2 JUMP JUMPDEST POP DUP6 DUP4 LT ISZERO PUSH2 0x3B20 JUMPI DUP2 DUP6 ADD SLOAD PUSH1 0x0 NOT PUSH1 0x3 DUP9 SWAP1 SHL PUSH1 0xF8 AND SHR NOT AND DUP2 SSTORE JUMPDEST POP POP POP PUSH1 0x1 DUP4 PUSH1 0x1 SHL ADD DUP5 SSTORE JUMPDEST POP POP POP POP POP JUMP JUMPDEST PUSH1 0x0 DUP2 PUSH2 0x3B43 JUMPI PUSH2 0x3B43 PUSH2 0x3800 JUMP JUMPDEST POP PUSH1 0x0 NOT ADD SWAP1 JUMP JUMPDEST PUSH4 0x4E487B71 PUSH1 0xE0 SHL PUSH1 0x0 MSTORE PUSH1 0x31 PUSH1 0x4 MSTORE PUSH1 0x24 PUSH1 0x0 REVERT JUMPDEST PUSH1 0x0 PUSH1 0x20 DUP1 DUP4 MSTORE PUSH1 0x0 DUP5 SLOAD PUSH2 0x3B75 DUP2 PUSH2 0x3829 JUMP JUMPDEST DUP1 DUP5 DUP8 ADD MSTORE PUSH1 0x40 PUSH1 0x1 DUP1 DUP5 AND PUSH1 0x0 DUP2 EQ PUSH2 0x3B96 JUMPI PUSH1 0x1 DUP2 EQ PUSH2 0x3BB0 JUMPI PUSH2 0x3BDE JUMP JUMPDEST PUSH1 0xFF NOT DUP6 AND DUP10 DUP5 ADD MSTORE DUP4 ISZERO ISZERO PUSH1 0x5 SHL DUP10 ADD DUP4 ADD SWAP6 POP PUSH2 0x3BDE JUMP JUMPDEST DUP10 PUSH1 0x0 MSTORE DUP7 PUSH1 0x0 KECCAK256 PUSH1 0x0 JUMPDEST DUP6 DUP2 LT ISZERO PUSH2 0x3BD6 JUMPI DUP2 SLOAD DUP12 DUP3 ADD DUP7 ADD MSTORE SWAP1 DUP4 ADD SWAP1 DUP9 ADD PUSH2 0x3BBB JUMP JUMPDEST DUP11 ADD DUP5 ADD SWAP7 POP POP JUMPDEST POP SWAP4 SWAP9 SWAP8 POP POP POP POP POP POP POP POP JUMP INVALID LOG2 PUSH5 0x6970667358 0x22 SLT KECCAK256 PUSH8 0xB75AEDB2440BCFF8 PUSH30 0xEFFFA27AD5520D192C81D93983E7B8CCB9B17C8C1ADD64736F6C63430008 SGT STOP CALLER "},"methodIdentifiers":{"MAX_LEADERBOARD_SIZE()":"db877142","SSD_PER_KILL()":"c3bbe5fc","SUBMISSION_COOLDOWN()":"a0ec242a","TWITTER_REWARD()":"61d8b34d","achievementCount()":"4443993a","achievements(uint256)":"27aed72e","activePlayers(uint256)":"b55f108f","addAchievement(string,string,uint256,uint8)":"50691505","addShopItem(string,uint256,uint256)":"e4649eaf","buyShopItem(uint256)":"01650e74","deactivateAchievement(uint256)":"deffae5b","emergencyPause()":"51858e27","gameActive()":"f020044f","gameStartTime()":"0252b995","getActivePlayers()":"3c4f5a66","getAllAchievements()":"7725a9fb","getAllShopItems()":"9cb1e729","getContractInfo()":"7cc1f867","getGameStats()":"1aff30dd","getLeaderboardSize()":"1b3e4db1","getPlayerAchievements(address)":"9ce67bdd","getPlayerRank(address)":"a697cb0e","getPlayerSSDStats(address)":"9e123201","getPlayerScores(address)":"b162f257","getPlayerStats(address)":"4fd66eae","getShopItem(uint256)":"72af7ea2","getTopScores(uint256)":"968ffe34","getTotalAchievements()":"f0860c01","globalLeaderboard(uint256)":"330ab49a","hasActiveBoost(address,uint256)":"ccf1b68c","isPlayerRegistered(address)":"1417b82a","isTwitterVerified(address)":"9e8a4dd3","lastSubmissionTime(address)":"a4365476","owner()":"8da5cb5b","playerBoosts(address,uint256)":"8b8c21d7","playerScores(address,uint256)":"73055bc3","playerStats(address)":"cdafbbb6","shopItemCount()":"8cc5fa04","shopItems(uint256)":"5ca9e380","ssdEarned(address)":"790b3228","ssdSpent(address)":"76302a57","ssdToken()":"18889109","submitScore(uint256,uint8,uint16,string)":"7225d340","toggleGameActive()":"33b2641f","totalGamesPlayed()":"5c492129","totalPlayersRegistered()":"bee1ffb7","transferOwnership(address)":"f2fde38b","twitterHandles(address)":"13a5cede","twitterVerified(address)":"66c09668","updateSSDToken(address)":"a59b33d8","verifyTwitter(string)":"3fae3508","withdrawSSD(uint256)":"9b2e0e98"}}}}}