{
  "_format": "hh-sol-artifact-1",
  "contractName": "SDToken",
  "sourceName": "contracts/SDToken.sol",
  "abi": [
    {
      "inputs": [
        {
          "internalType": "string",
          "name": "_name",
          "type": "string"
        },
        {
          "internalType": "string",
          "name": "_symbol",
          "type": "string"
        },
        {
          "internalType": "uint8",
          "name": "_decimals",
          "type": "uint8"
        },
        {
          "internalType": "uint256",
          "name": "_initialSupply",
          "type": "uint256"
        }
      ],
      "stateMutability": "nonpayable",
      "type": "constructor"
    },
    {
      "anonymous": false,
      "inputs": [
        {
          "indexed": true,
          "internalType": "address",
          "name": "owner",
          "type": "address"
        },
        {
          "indexed": true,
          "internalType": "address",
          "name": "spender",
          "type": "address"
        },
        {
          "indexed": false,
          "internalType": "uint256",
          "name": "value",
          "type": "uint256"
        }
      ],
      "name": "Approval",
      "type": "event"
    },
    {
      "anonymous": false,
      "inputs": [
        {
          "indexed": true,
          "internalType": "address",
          "name": "bridge",
          "type": "address"
        },
        {
          "indexed": false,
          "internalType": "bool",
          "name": "authorized",
          "type": "bool"
        }
      ],
      "name": "BridgeAuthorized",
      "type": "event"
    },
    {
      "anonymous": false,
      "inputs": [
        {
          "indexed": true,
          "internalType": "uint256",
          "name": "chainId",
          "type": "uint256"
        }
      ],
      "name": "ChainAdded",
      "type": "event"
    },
    {
      "anonymous": false,
      "inputs": [
        {
          "indexed": true,
          "internalType": "uint256",
          "name": "chainId",
          "type": "uint256"
        }
      ],
      "name": "ChainRemoved",
      "type": "event"
    },
    {
      "anonymous": false,
      "inputs": [
        {
          "indexed": true,
          "internalType": "address",
          "name": "from",
          "type": "address"
        },
        {
          "indexed": false,
          "internalType": "uint256",
          "name": "amount",
          "type": "uint256"
        },
        {
          "indexed": false,
          "internalType": "uint256",
          "name": "targetChainId",
          "type": "uint256"
        }
      ],
      "name": "TokensBurned",
      "type": "event"
    },
    {
      "anonymous": false,
      "inputs": [
        {
          "indexed": true,
          "internalType": "address",
          "name": "to",
          "type": "address"
        },
        {
          "indexed": false,
          "internalType": "uint256",
          "name": "amount",
          "type": "uint256"
        },
        {
          "indexed": false,
          "internalType": "uint256",
          "name": "sourceChainId",
          "type": "uint256"
        }
      ],
      "name": "TokensMinted",
      "type": "event"
    },
    {
      "anonymous": false,
      "inputs": [
        {
          "indexed": true,
          "internalType": "address",
          "name": "from",
          "type": "address"
        },
        {
          "indexed": true,
          "internalType": "address",
          "name": "to",
          "type": "address"
        },
        {
          "indexed": false,
          "internalType": "uint256",
          "name": "value",
          "type": "uint256"
        }
      ],
      "name": "Transfer",
      "type": "event"
    },
    {
      "inputs": [
        {
          "internalType": "uint256",
          "name": "chainId",
          "type": "uint256"
        }
      ],
      "name": "addSupportedChain",
      "outputs": [],
      "stateMutability": "nonpayable",
      "type": "function"
    },
    {
      "inputs": [
        {
          "internalType": "address",
          "name": "owner",
          "type": "address"
        },
        {
          "internalType": "address",
          "name": "spender",
          "type": "address"
        }
      ],
      "name": "allowance",
      "outputs": [
        {
          "internalType": "uint256",
          "name": "",
          "type": "uint256"
        }
      ],
      "stateMutability": "view",
      "type": "function"
    },
    {
      "inputs": [
        {
          "internalType": "address",
          "name": "spender",
          "type": "address"
        },
        {
          "internalType": "uint256",
          "name": "amount",
          "type": "uint256"
        }
      ],
      "name": "approve",
      "outputs": [
        {
          "internalType": "bool",
          "name": "",
          "type": "bool"
        }
      ],
      "stateMutability": "nonpayable",
      "type": "function"
    },
    {
      "inputs": [
        {
          "internalType": "address",
          "name": "bridge",
          "type": "address"
        },
        {
          "internalType": "bool",
          "name": "authorized",
          "type": "bool"
        }
      ],
      "name": "authorizeBridge",
      "outputs": [],
      "stateMutability": "nonpayable",
      "type": "function"
    },
    {
      "inputs": [
        {
          "internalType": "address",
          "name": "",
          "type": "address"
        }
      ],
      "name": "authorizedBridges",
      "outputs": [
        {
          "internalType": "bool",
          "name": "",
          "type": "bool"
        }
      ],
      "stateMutability": "view",
      "type": "function"
    },
    {
      "inputs": [
        {
          "internalType": "address",
          "name": "account",
          "type": "address"
        }
      ],
      "name": "balanceOf",
      "outputs": [
        {
          "internalType": "uint256",
          "name": "",
          "type": "uint256"
        }
      ],
      "stateMutability": "view",
      "type": "function"
    },
    {
      "inputs": [
        {
          "internalType": "uint256",
          "name": "amount",
          "type": "uint256"
        }
      ],
      "name": "burn",
      "outputs": [],
      "stateMutability": "nonpayable",
      "type": "function"
    },
    {
      "inputs": [
        {
          "internalType": "address",
          "name": "from",
          "type": "address"
        },
        {
          "internalType": "uint256",
          "name": "amount",
          "type": "uint256"
        },
        {
          "internalType": "uint256",
          "name": "targetChainId",
          "type": "uint256"
        }
      ],
      "name": "burnForBridge",
      "outputs": [],
      "stateMutability": "nonpayable",
      "type": "function"
    },
    {
      "inputs": [
        {
          "internalType": "uint256",
          "name": "",
          "type": "uint256"
        }
      ],
      "name": "chainList",
      "outputs": [
        {
          "internalType": "uint256",
          "name": "",
          "type": "uint256"
        }
      ],
      "stateMutability": "view",
      "type": "function"
    },
    {
      "inputs": [],
      "name": "decimals",
      "outputs": [
        {
          "internalType": "uint8",
          "name": "",
          "type": "uint8"
        }
      ],
      "stateMutability": "view",
      "type": "function"
    },
    {
      "inputs": [],
      "name": "getSupportedChains",
      "outputs": [
        {
          "internalType": "uint256[]",
          "name": "",
          "type": "uint256[]"
        }
      ],
      "stateMutability": "view",
      "type": "function"
    },
    {
      "inputs": [],
      "name": "getTokenInfo",
      "outputs": [
        {
          "internalType": "string",
          "name": "tokenName",
          "type": "string"
        },
        {
          "internalType": "string",
          "name": "tokenSymbol",
          "type": "string"
        },
        {
          "internalType": "uint8",
          "name": "tokenDecimals",
          "type": "uint8"
        },
        {
          "internalType": "uint256",
          "name": "tokenTotalSupply",
          "type": "uint256"
        },
        {
          "internalType": "address",
          "name": "tokenOwner",
          "type": "address"
        },
        {
          "internalType": "uint256",
          "name": "supportedChainCount",
          "type": "uint256"
        }
      ],
      "stateMutability": "view",
      "type": "function"
    },
    {
      "inputs": [
        {
          "internalType": "address",
          "name": "bridge",
          "type": "address"
        }
      ],
      "name": "isBridgeAuthorized",
      "outputs": [
        {
          "internalType": "bool",
          "name": "",
          "type": "bool"
        }
      ],
      "stateMutability": "view",
      "type": "function"
    },
    {
      "inputs": [
        {
          "internalType": "uint256",
          "name": "chainId",
          "type": "uint256"
        }
      ],
      "name": "isChainSupported",
      "outputs": [
        {
          "internalType": "bool",
          "name": "",
          "type": "bool"
        }
      ],
      "stateMutability": "view",
      "type": "function"
    },
    {
      "inputs": [
        {
          "internalType": "address",
          "name": "to",
          "type": "address"
        },
        {
          "internalType": "uint256",
          "name": "amount",
          "type": "uint256"
        }
      ],
      "name": "mint",
      "outputs": [],
      "stateMutability": "nonpayable",
      "type": "function"
    },
    {
      "inputs": [
        {
          "internalType": "address",
          "name": "to",
          "type": "address"
        },
        {
          "internalType": "uint256",
          "name": "amount",
          "type": "uint256"
        },
        {
          "internalType": "uint256",
          "name": "sourceChainId",
          "type": "uint256"
        }
      ],
      "name": "mintFromBridge",
      "outputs": [],
      "stateMutability": "nonpayable",
      "type": "function"
    },
    {
      "inputs": [],
      "name": "name",
      "outputs": [
        {
          "internalType": "string",
          "name": "",
          "type": "string"
        }
      ],
      "stateMutability": "view",
      "type": "function"
    },
    {
      "inputs": [],
      "name": "owner",
      "outputs": [
        {
          "internalType": "address",
          "name": "",
          "type": "address"
        }
      ],
      "stateMutability": "view",
      "type": "function"
    },
    {
      "inputs": [
        {
          "internalType": "uint256",
          "name": "chainId",
          "type": "uint256"
        }
      ],
      "name": "removeSupportedChain",
      "outputs": [],
      "stateMutability": "nonpayable",
      "type": "function"
    },
    {
      "inputs": [
        {
          "internalType": "uint256",
          "name": "",
          "type": "uint256"
        }
      ],
      "name": "supportedChains",
      "outputs": [
        {
          "internalType": "bool",
          "name": "",
          "type": "bool"
        }
      ],
      "stateMutability": "view",
      "type": "function"
    },
    {
      "inputs": [],
      "name": "symbol",
      "outputs": [
        {
          "internalType": "string",
          "name": "",
          "type": "string"
        }
      ],
      "stateMutability": "view",
      "type": "function"
    },
    {
      "inputs": [],
      "name": "totalSupply",
      "outputs": [
        {
          "internalType": "uint256",
          "name": "",
          "type": "uint256"
        }
      ],
      "stateMutability": "view",
      "type": "function"
    },
    {
      "inputs": [
        {
          "internalType": "address",
          "name": "to",
          "type": "address"
        },
        {
          "internalType": "uint256",
          "name": "amount",
          "type": "uint256"
        }
      ],
      "name": "transfer",
      "outputs": [
        {
          "internalType": "bool",
          "name": "",
          "type": "bool"
        }
      ],
      "stateMutability": "nonpayable",
      "type": "function"
    },
    {
      "inputs": [
        {
          "internalType": "address",
          "name": "from",
          "type": "address"
        },
        {
          "internalType": "address",
          "name": "to",
          "type": "address"
        },
        {
          "internalType": "uint256",
          "name": "amount",
          "type": "uint256"
        }
      ],
      "name": "transferFrom",
      "outputs": [
        {
          "internalType": "bool",
          "name": "",
          "type": "bool"
        }
      ],
      "stateMutability": "nonpayable",
      "type": "function"
    },
    {
      "inputs": [
        {
          "internalType": "address",
          "name": "newOwner",
          "type": "address"
        }
      ],
      "name": "transferOwnership",
      "outputs": [],
      "stateMutability": "nonpayable",
      "type": "function"
    }
  ],
  "bytecode": "0x60806040523480156200001157600080fd5b5060405162001ba538038062001ba58339810160408190526200003491620001a2565b6003620000428582620002bc565b506004620000518482620002bc565b506005805433610100026001600160a81b031990911660ff8516171790556200007c82600a6200049d565b620000889082620004b5565b60028190553360008181526020818152604080832085905551938452919290917fddf252ad1be2c89b69c2b068fc378daa952ba7f163c4a11628f55a4df523b3ef910160405180910390a350505050620004cf565b634e487b7160e01b600052604160045260246000fd5b600082601f8301126200010557600080fd5b81516001600160401b0380821115620001225762000122620000dd565b604051601f8301601f19908116603f011681019082821181831017156200014d576200014d620000dd565b816040528381526020925086838588010111156200016a57600080fd5b600091505b838210156200018e57858201830151818301840152908201906200016f565b600093810190920192909252949350505050565b60008060008060808587031215620001b957600080fd5b84516001600160401b0380821115620001d157600080fd5b620001df88838901620000f3565b95506020870151915080821115620001f657600080fd5b506200020587828801620000f3565b935050604085015160ff811681146200021d57600080fd5b6060959095015193969295505050565b600181811c908216806200024257607f821691505b6020821081036200026357634e487b7160e01b600052602260045260246000fd5b50919050565b601f821115620002b757600081815260208120601f850160051c81016020861015620002925750805b601f850160051c820191505b81811015620002b3578281556001016200029e565b5050505b505050565b81516001600160401b03811115620002d857620002d8620000dd565b620002f081620002e984546200022d565b8462000269565b602080601f8311600181146200032857600084156200030f5750858301515b600019600386901b1c1916600185901b178555620002b3565b600085815260208120601f198616915b82811015620003595788860151825594840194600190910190840162000338565b5085821015620003785787850151600019600388901b60f8161c191681555b5050505050600190811b01905550565b634e487b7160e01b600052601160045260246000fd5b600181815b80851115620003df578160001904821115620003c357620003c362000388565b80851615620003d157918102915b93841c9390800290620003a3565b509250929050565b600082620003f85750600162000497565b81620004075750600062000497565b81600181146200042057600281146200042b576200044b565b600191505062000497565b60ff8411156200043f576200043f62000388565b50506001821b62000497565b5060208310610133831016604e8410600b841016171562000470575081810a62000497565b6200047c83836200039e565b806000190482111562000493576200049362000388565b0290505b92915050565b6000620004ae60ff841683620003e7565b9392505050565b808202811582820484141762000497576200049762000388565b6116c680620004df6000396000f3fe608060405234801561001057600080fd5b50600436106101735760003560e01c80636fc063be116100de57806395d89b4111610097578063bc6c855711610071578063bc6c8557146103a7578063c4bffe2b146103ba578063dd62ed3e146103cf578063f2fde38b1461040857600080fd5b806395d89b4114610372578063a9059cbb1461037a578063abb1dc441461038d57600080fd5b80636fc063be146102a457806370a08231146102c757806370d48798146102f057806378fb7fd21461030357806387188a001461032f5780638da5cb5b1461034257600080fd5b8063313ce56711610130578063313ce5671461020657806340c10f191461022557806342966c68146102385780635221c1f01461024b578063548d496f1461026e57806357ed25231461029157600080fd5b806306fdde0314610178578063095ea7b3146101965780630c4844aa146101b957806318160ddd146101ce57806322a88692146101e057806323b872dd146101f3575b600080fd5b61018061041b565b60405161018d919061131a565b60405180910390f35b6101a96101a4366004611350565b6104a9565b604051901515815260200161018d565b6101cc6101c736600461137a565b6104c3565b005b6002545b60405190815260200161018d565b6101cc6101ee366004611393565b61060f565b6101a96102013660046113c6565b6107ba565b6005546102139060ff1681565b60405160ff909116815260200161018d565b6101cc610233366004611350565b6107de565b6101cc61024636600461137a565b6108dc565b6101a961025936600461137a565b60009081526007602052604090205460ff1690565b6101a961027c36600461137a565b60076020526000908152604090205460ff1681565b6101cc61029f366004611402565b610a00565b6101a96102b236600461143e565b60066020526000908152604090205460ff1681565b6101d26102d536600461143e565b6001600160a01b031660009081526020819052604090205490565b6101d26102fe36600461137a565b610a8e565b6101a961031136600461143e565b6001600160a01b031660009081526006602052604090205460ff1690565b6101cc61033d36600461137a565b610aaf565b60055461035a9061010090046001600160a01b031681565b6040516001600160a01b03909116815260200161018d565b610180610b6a565b6101a9610388366004611350565b610b77565b610395610b85565b60405161018d96959493929190611459565b6101cc6103b5366004611393565b610ced565b6103c2610e86565b60405161018d91906114b0565b6101d26103dd3660046114f4565b6001600160a01b03918216600090815260016020908152604080832093909416825291909152205490565b6101cc61041636600461143e565b610ede565b6003805461042890611527565b80601f016020809104026020016040519081016040528092919081815260200182805461045490611527565b80156104a15780601f10610476576101008083540402835291602001916104a1565b820191906000526020600020905b81548152906001019060200180831161048457829003601f168201915b505050505081565b6000336104b7818585610f8b565b60019150505b92915050565b60055461010090046001600160a01b031633146104fb5760405162461bcd60e51b81526004016104f290611561565b60405180910390fd5b60008181526007602052604090205460ff161561060c576000818152600760205260408120805460ff191690555b6008548110156105df578160088281548110610547576105476115a2565b9060005260206000200154036105cd5760088054610567906001906115ce565b81548110610577576105776115a2565b906000526020600020015460088281548110610595576105956115a2565b60009182526020909120015560088054806105b2576105b26115e1565b600190038181906000526020600020016000905590556105df565b806105d7816115f7565b915050610529565b5060405181907f11a9d1a77f76361ed131c19b1dc5758504c51dbde2e49fc973a0ef9577ad13d590600090a25b50565b3360009081526006602052604090205460ff1661063e5760405162461bcd60e51b81526004016104f290611610565b60008181526007602052604090205460ff1661069c5760405162461bcd60e51b815260206004820152601a60248201527f54617267657420636861696e206e6f7420737570706f7274656400000000000060448201526064016104f2565b6001600160a01b0383166000908152602081905260409020548211156106fb5760405162461bcd60e51b8152602060048201526014602482015273496e73756666696369656e742062616c616e636560601b60448201526064016104f2565b6001600160a01b038316600090815260208190526040812080548492906107239084906115ce565b92505081905550816002600082825461073c91906115ce565b90915550506040518281526000906001600160a01b038516906000805160206116718339815191529060200160405180910390a360408051838152602081018390526001600160a01b038516917fccbea4088a3b7ae9ca2d15fab9a9742a4075b4d7247768a1eecea917565aba0091015b60405180910390a2505050565b6000336107c88582856110af565b6107d3858585611141565b506001949350505050565b60055461010090046001600160a01b0316331461080d5760405162461bcd60e51b81526004016104f290611561565b6001600160a01b0382166108635760405162461bcd60e51b815260206004820152601b60248201527f43616e6e6f74206d696e7420746f207a65726f2061646472657373000000000060448201526064016104f2565b6001600160a01b0382166000908152602081905260408120805483929061088b90849061165d565b9250508190555080600260008282546108a4919061165d565b90915550506040518181526001600160a01b038316906000906000805160206116718339815191529060200160405180910390a35050565b60055461010090046001600160a01b0316331461090b5760405162461bcd60e51b81526004016104f290611561565b60055461010090046001600160a01b031660009081526020819052604090205481111561097a5760405162461bcd60e51b815260206004820152601c60248201527f496e73756666696369656e742062616c616e636520746f206275726e0000000060448201526064016104f2565b60055461010090046001600160a01b0316600090815260208190526040812080548392906109a99084906115ce565b9250508190555080600260008282546109c291906115ce565b909155505060055460405182815260009161010090046001600160a01b0316906000805160206116718339815191529060200160405180910390a350565b60055461010090046001600160a01b03163314610a2f5760405162461bcd60e51b81526004016104f290611561565b6001600160a01b038216600081815260066020908152604091829020805460ff191685151590811790915591519182527fc11208a19c10526c5b56ff36e4790217719cbe00bda41649d1d47b0d1d5d5c0d910160405180910390a25050565b60088181548110610a9e57600080fd5b600091825260209091200154905081565b60055461010090046001600160a01b03163314610ade5760405162461bcd60e51b81526004016104f290611561565b60008181526007602052604090205460ff1661060c57600081815260076020526040808220805460ff1916600190811790915560088054918201815583527ff3f7a9fe364faab93b216da50a3214154f22a0a2b415b23a84c8169e8b636ee3018390555182917fbba9d55e9fd1a441b1617724e2fdb76777d15ec77ab2b72ac15952cbe97085db91a250565b6004805461042890611527565b6000336104b7818585611141565b60608060008060008060036004600560009054906101000a900460ff16600254600560019054906101000a90046001600160a01b0316600880549050858054610bcd90611527565b80601f0160208091040260200160405190810160405280929190818152602001828054610bf990611527565b8015610c465780601f10610c1b57610100808354040283529160200191610c46565b820191906000526020600020905b815481529060010190602001808311610c2957829003601f168201915b50505050509550848054610c5990611527565b80601f0160208091040260200160405190810160405280929190818152602001828054610c8590611527565b8015610cd25780601f10610ca757610100808354040283529160200191610cd2565b820191906000526020600020905b815481529060010190602001808311610cb557829003601f168201915b50505050509450955095509550955095509550909192939495565b3360009081526006602052604090205460ff16610d1c5760405162461bcd60e51b81526004016104f290611610565b60008181526007602052604090205460ff16610d7a5760405162461bcd60e51b815260206004820152601a60248201527f536f7572636520636861696e206e6f7420737570706f7274656400000000000060448201526064016104f2565b6001600160a01b038316610dd05760405162461bcd60e51b815260206004820152601b60248201527f43616e6e6f74206d696e7420746f207a65726f2061646472657373000000000060448201526064016104f2565b6001600160a01b03831660009081526020819052604081208054849290610df890849061165d565b925050819055508160026000828254610e11919061165d565b90915550506040518281526001600160a01b038416906000906000805160206116718339815191529060200160405180910390a360408051838152602081018390526001600160a01b038516917f2e8ac5177a616f2aec08c3048f5021e4e9743ece034e8d83ba5caf76688bb47591016107ad565b60606008805480602002602001604051908101604052809291908181526020018280548015610ed457602002820191906000526020600020905b815481526020019060010190808311610ec0575b5050505050905090565b60055461010090046001600160a01b03163314610f0d5760405162461bcd60e51b81526004016104f290611561565b6001600160a01b038116610f635760405162461bcd60e51b815260206004820181905260248201527f4e6577206f776e65722063616e6e6f74206265207a65726f206164647265737360448201526064016104f2565b600580546001600160a01b0390921661010002610100600160a81b0319909216919091179055565b6001600160a01b038316610fed5760405162461bcd60e51b8152602060048201526024808201527f45524332303a20617070726f76652066726f6d20746865207a65726f206164646044820152637265737360e01b60648201526084016104f2565b6001600160a01b03821661104e5760405162461bcd60e51b815260206004820152602260248201527f45524332303a20617070726f766520746f20746865207a65726f206164647265604482015261737360f01b60648201526084016104f2565b6001600160a01b0383811660008181526001602090815260408083209487168084529482529182902085905590518481527f8c5be1e5ebec7d5bd14f71427d1e84f3dd0314c0f7b2291e5b200ac8c7c3b925910160405180910390a3505050565b6001600160a01b03838116600090815260016020908152604080832093861683529290522054600019811461113b578181101561112e5760405162461bcd60e51b815260206004820152601d60248201527f45524332303a20696e73756666696369656e7420616c6c6f77616e636500000060448201526064016104f2565b61113b8484848403610f8b565b50505050565b6001600160a01b0383166111a55760405162461bcd60e51b815260206004820152602560248201527f45524332303a207472616e736665722066726f6d20746865207a65726f206164604482015264647265737360d81b60648201526084016104f2565b6001600160a01b0382166112075760405162461bcd60e51b815260206004820152602360248201527f45524332303a207472616e7366657220746f20746865207a65726f206164647260448201526265737360e81b60648201526084016104f2565b6001600160a01b0383166000908152602081905260409020548181101561127f5760405162461bcd60e51b815260206004820152602660248201527f45524332303a207472616e7366657220616d6f756e7420657863656564732062604482015265616c616e636560d01b60648201526084016104f2565b6001600160a01b0384811660008181526020818152604080832087870390559387168083529184902080548701905592518581529092600080516020611671833981519152910160405180910390a350505050565b6000815180845260005b818110156112fa576020818501810151868301820152016112de565b506000602082860101526020601f19601f83011685010191505092915050565b60208152600061132d60208301846112d4565b9392505050565b80356001600160a01b038116811461134b57600080fd5b919050565b6000806040838503121561136357600080fd5b61136c83611334565b946020939093013593505050565b60006020828403121561138c57600080fd5b5035919050565b6000806000606084860312156113a857600080fd5b6113b184611334565b95602085013595506040909401359392505050565b6000806000606084860312156113db57600080fd5b6113e484611334565b92506113f260208501611334565b9150604084013590509250925092565b6000806040838503121561141557600080fd5b61141e83611334565b91506020830135801515811461143357600080fd5b809150509250929050565b60006020828403121561145057600080fd5b61132d82611334565b60c08152600061146c60c08301896112d4565b828103602084015261147e81896112d4565b60ff979097166040840152505060608101939093526001600160a01b0391909116608083015260a09091015292915050565b6020808252825182820181905260009190848201906040850190845b818110156114e8578351835292840192918401916001016114cc565b50909695505050505050565b6000806040838503121561150757600080fd5b61151083611334565b915061151e60208401611334565b90509250929050565b600181811c9082168061153b57607f821691505b60208210810361155b57634e487b7160e01b600052602260045260246000fd5b50919050565b60208082526021908201527f4f6e6c79206f776e65722063616e2063616c6c20746869732066756e6374696f6040820152603760f91b606082015260800190565b634e487b7160e01b600052603260045260246000fd5b634e487b7160e01b600052601160045260246000fd5b818103818111156104bd576104bd6115b8565b634e487b7160e01b600052603160045260246000fd5b600060018201611609576116096115b8565b5060010190565b6020808252602d908201527f4f6e6c7920617574686f72697a6564206272696467652063616e2063616c6c2060408201526c3a3434b990333ab731ba34b7b760991b606082015260800190565b808201808211156104bd576104bd6115b856feddf252ad1be2c89b69c2b068fc378daa952ba7f163c4a11628f55a4df523b3efa26469706673582212207ad1f3882a864764c0ed50a56df2bd899ea4191fcca15fbdbdb0b226fce507b664736f6c63430008130033",
  "linkReferences": {},
  "deployedLinkReferences": {}
}